{
  "_format": "hh-sol-artifact-1",
  "contractName": "PermissionedToken",
  "sourceName": "contracts/PermissionedToken.sol",
  "abi": [
    {
      "inputs": [
        {
          "internalType": "string",
          "name": "name",
          "type": "string"
        },
        {
          "internalType": "string",
          "name": "symbol",
          "type": "string"
        },
        {
          "internalType": "uint256",
          "name": "initialSupply",
          "type": "uint256"
        }
      ],
      "stateMutability": "nonpayable",
      "type": "constructor"
    },
    {
      "anonymous": false,
      "inputs": [
        {
          "indexed": true,
          "internalType": "address",
          "name": "owner",
          "type": "address"
        },
        {
          "indexed": true,
          "internalType": "address",
          "name": "spender",
          "type": "address"
        },
        {
          "indexed": false,
          "internalType": "uint256",
          "name": "value",
          "type": "uint256"
        }
      ],
      "name": "Approval",
      "type": "event"
    },
    {
      "anonymous": false,
      "inputs": [
        {
          "indexed": true,
          "internalType": "address",
          "name": "previousOwner",
          "type": "address"
        },
        {
          "indexed": true,
          "internalType": "address",
          "name": "newOwner",
          "type": "address"
        }
      ],
      "name": "OwnershipTransferred",
      "type": "event"
    },
    {
      "anonymous": false,
      "inputs": [
        {
          "indexed": true,
          "internalType": "address",
          "name": "from",
          "type": "address"
        },
        {
          "indexed": true,
          "internalType": "address",
          "name": "to",
          "type": "address"
        },
        {
          "indexed": false,
          "internalType": "uint256",
          "name": "value",
          "type": "uint256"
        }
      ],
      "name": "Transfer",
      "type": "event"
    },
    {
      "inputs": [
        {
          "internalType": "address",
          "name": "owner",
          "type": "address"
        },
        {
          "internalType": "address",
          "name": "spender",
          "type": "address"
        }
      ],
      "name": "allowance",
      "outputs": [
        {
          "internalType": "uint256",
          "name": "",
          "type": "uint256"
        }
      ],
      "stateMutability": "view",
      "type": "function"
    },
    {
      "inputs": [
        {
          "internalType": "address",
          "name": "spender",
          "type": "address"
        },
        {
          "internalType": "uint256",
          "name": "amount",
          "type": "uint256"
        }
      ],
      "name": "approve",
      "outputs": [
        {
          "internalType": "bool",
          "name": "",
          "type": "bool"
        }
      ],
      "stateMutability": "nonpayable",
      "type": "function"
    },
    {
      "inputs": [
        {
          "internalType": "address",
          "name": "account",
          "type": "address"
        }
      ],
      "name": "balanceOf",
      "outputs": [
        {
          "internalType": "uint256",
          "name": "",
          "type": "uint256"
        }
      ],
      "stateMutability": "view",
      "type": "function"
    },
    {
      "inputs": [],
      "name": "decimals",
      "outputs": [
        {
          "internalType": "uint8",
          "name": "",
          "type": "uint8"
        }
      ],
      "stateMutability": "view",
      "type": "function"
    },
    {
      "inputs": [
        {
          "internalType": "address",
          "name": "spender",
          "type": "address"
        },
        {
          "internalType": "uint256",
          "name": "subtractedValue",
          "type": "uint256"
        }
      ],
      "name": "decreaseAllowance",
      "outputs": [
        {
          "internalType": "bool",
          "name": "",
          "type": "bool"
        }
      ],
      "stateMutability": "nonpayable",
      "type": "function"
    },
    {
      "inputs": [
        {
          "internalType": "address",
          "name": "spender",
          "type": "address"
        },
        {
          "internalType": "uint256",
          "name": "addedValue",
          "type": "uint256"
        }
      ],
      "name": "increaseAllowance",
      "outputs": [
        {
          "internalType": "bool",
          "name": "",
          "type": "bool"
        }
      ],
      "stateMutability": "nonpayable",
      "type": "function"
    },
    {
      "inputs": [],
      "name": "name",
      "outputs": [
        {
          "internalType": "string",
          "name": "",
          "type": "string"
        }
      ],
      "stateMutability": "view",
      "type": "function"
    },
    {
      "inputs": [],
      "name": "owner",
      "outputs": [
        {
          "internalType": "address",
          "name": "",
          "type": "address"
        }
      ],
      "stateMutability": "view",
      "type": "function"
    },
    {
      "inputs": [],
      "name": "renounceOwnership",
      "outputs": [],
      "stateMutability": "nonpayable",
      "type": "function"
    },
    {
      "inputs": [
        {
          "internalType": "address",
          "name": "registryAddress",
          "type": "address"
        }
      ],
      "name": "setVerificationRegistry",
      "outputs": [],
      "stateMutability": "nonpayable",
      "type": "function"
    },
    {
      "inputs": [],
      "name": "symbol",
      "outputs": [
        {
          "internalType": "string",
          "name": "",
          "type": "string"
        }
      ],
      "stateMutability": "view",
      "type": "function"
    },
    {
      "inputs": [],
      "name": "totalSupply",
      "outputs": [
        {
          "internalType": "uint256",
          "name": "",
          "type": "uint256"
        }
      ],
      "stateMutability": "view",
      "type": "function"
    },
    {
      "inputs": [
        {
          "internalType": "address",
          "name": "recipient",
          "type": "address"
        },
        {
          "internalType": "uint256",
          "name": "amount",
          "type": "uint256"
        }
      ],
      "name": "transfer",
      "outputs": [
        {
          "internalType": "bool",
          "name": "",
          "type": "bool"
        }
      ],
      "stateMutability": "nonpayable",
      "type": "function"
    },
    {
      "inputs": [
        {
          "internalType": "address",
          "name": "sender",
          "type": "address"
        },
        {
          "internalType": "address",
          "name": "recipient",
          "type": "address"
        },
        {
          "internalType": "uint256",
          "name": "amount",
          "type": "uint256"
        }
      ],
      "name": "transferFrom",
      "outputs": [
        {
          "internalType": "bool",
          "name": "",
          "type": "bool"
        }
      ],
      "stateMutability": "nonpayable",
      "type": "function"
    },
    {
      "inputs": [
        {
          "internalType": "address",
          "name": "newOwner",
          "type": "address"
        }
      ],
      "name": "transferOwnership",
      "outputs": [],
      "stateMutability": "nonpayable",
      "type": "function"
    }
  ],
  "bytecode": "0x60806040523480156200001157600080fd5b50604051620027e2380380620027e2833981810160405281019062000037919062000649565b8282620000596200004d620000a860201b60201c565b620000b060201b60201c565b816004908051906020019062000071929190620004cd565b5080600590805190602001906200008a929190620004cd565b5050506200009f33826200017460201b60201c565b50505062000b5a565b600033905090565b60008060009054906101000a900473ffffffffffffffffffffffffffffffffffffffff169050816000806101000a81548173ffffffffffffffffffffffffffffffffffffffff021916908373ffffffffffffffffffffffffffffffffffffffff1602179055508173ffffffffffffffffffffffffffffffffffffffff168173ffffffffffffffffffffffffffffffffffffffff167f8be0079c531659141344cd1fd0a4f28419497f9722a3daafe3b4186f6b6457e060405160405180910390a35050565b600073ffffffffffffffffffffffffffffffffffffffff168273ffffffffffffffffffffffffffffffffffffffff161415620001e7576040517f08c379a0000000000000000000000000000000000000000000000000000000008152600401620001de90620007c9565b60405180910390fd5b620001fb60008383620002ee60201b60201c565b80600360008282546200020f919062000878565b9250508190555080600160008473ffffffffffffffffffffffffffffffffffffffff1673ffffffffffffffffffffffffffffffffffffffff168152602001908152602001600020600082825462000267919062000878565b925050819055508173ffffffffffffffffffffffffffffffffffffffff16600073ffffffffffffffffffffffffffffffffffffffff167fddf252ad1be2c89b69c2b068fc378daa952ba7f163c4a11628f55a4df523b3ef83604051620002ce9190620007eb565b60405180910390a3620002ea600083836200040960201b60201c565b5050565b620003068383836200040e60201b62000b171760201c565b600073ffffffffffffffffffffffffffffffffffffffff16600660009054906101000a900473ffffffffffffffffffffffffffffffffffffffff1673ffffffffffffffffffffffffffffffffffffffff161462000404576200036e836200041360201b60201c565b620003b0576040517f08c379a0000000000000000000000000000000000000000000000000000000008152600401620003a790620007a7565b60405180910390fd5b620003c1826200041360201b60201c565b62000403576040517f08c379a0000000000000000000000000000000000000000000000000000000008152600401620003fa9062000785565b60405180910390fd5b5b505050565b505050565b505050565b6000600760009054906101000a900473ffffffffffffffffffffffffffffffffffffffff1673ffffffffffffffffffffffffffffffffffffffff1663b9209e33836040518263ffffffff1660e01b815260040162000472919062000768565b60206040518083038186803b1580156200048b57600080fd5b505afa158015620004a0573d6000803e3d6000fd5b505050506040513d601f19601f82011682018060405250810190620004c691906200061d565b9050919050565b828054620004db9062000955565b90600052602060002090601f016020900481019282620004ff57600085556200054b565b82601f106200051a57805160ff19168380011785556200054b565b828001600101855582156200054b579182015b828111156200054a5782518255916020019190600101906200052d565b5b5090506200055a91906200055e565b5090565b5b80821115620005795760008160009055506001016200055f565b5090565b6000620005946200058e8462000831565b62000808565b905082815260208101848484011115620005ad57600080fd5b620005ba8482856200091f565b509392505050565b600081519050620005d38162000b26565b92915050565b600082601f830112620005eb57600080fd5b8151620005fd8482602086016200057d565b91505092915050565b600081519050620006178162000b40565b92915050565b6000602082840312156200063057600080fd5b60006200064084828501620005c2565b91505092915050565b6000806000606084860312156200065f57600080fd5b600084015167ffffffffffffffff8111156200067a57600080fd5b6200068886828701620005d9565b935050602084015167ffffffffffffffff811115620006a657600080fd5b620006b486828701620005d9565b9250506040620006c78682870162000606565b9150509250925092565b620006dc81620008d5565b82525050565b6000620006f1602c8362000867565b9150620006fe8262000a5f565b604082019050919050565b60006200071860298362000867565b9150620007258262000aae565b604082019050919050565b60006200073f601f8362000867565b91506200074c8262000afd565b602082019050919050565b620007628162000915565b82525050565b60006020820190506200077f6000830184620006d1565b92915050565b60006020820190508181036000830152620007a081620006e2565b9050919050565b60006020820190508181036000830152620007c28162000709565b9050919050565b60006020820190508181036000830152620007e48162000730565b9050919050565b600060208201905062000802600083018462000757565b92915050565b60006200081462000827565b90506200082282826200098b565b919050565b6000604051905090565b600067ffffffffffffffff8211156200084f576200084e62000a1f565b5b6200085a8262000a4e565b9050602081019050919050565b600082825260208201905092915050565b6000620008858262000915565b9150620008928362000915565b9250827fffffffffffffffffffffffffffffffffffffffffffffffffffffffffffffffff03821115620008ca57620008c9620009c1565b5b828201905092915050565b6000620008e282620008f5565b9050919050565b60008115159050919050565b600073ffffffffffffffffffffffffffffffffffffffff82169050919050565b6000819050919050565b60005b838110156200093f57808201518184015260208101905062000922565b838111156200094f576000848401525b50505050565b600060028204905060018216806200096e57607f821691505b60208210811415620009855762000984620009f0565b5b50919050565b620009968262000a4e565b810181811067ffffffffffffffff82111715620009b857620009b762000a1f565b5b80604052505050565b7f4e487b7100000000000000000000000000000000000000000000000000000000600052601160045260246000fd5b7f4e487b7100000000000000000000000000000000000000000000000000000000600052602260045260246000fd5b7f4e487b7100000000000000000000000000000000000000000000000000000000600052604160045260246000fd5b6000601f19601f8301169050919050565b7f5065726d697373696f6e6564546f6b656e3a20526563697069656e742069732060008201527f6e6f742076657269666965640000000000000000000000000000000000000000602082015250565b7f5065726d697373696f6e6564546f6b656e3a2053656e646572206973206e6f7460008201527f2076657269666965640000000000000000000000000000000000000000000000602082015250565b7f45524332303a206d696e7420746f20746865207a65726f206164647265737300600082015250565b62000b3181620008e9565b811462000b3d57600080fd5b50565b62000b4b8162000915565b811462000b5757600080fd5b50565b611c788062000b6a6000396000f3fe608060405234801561001057600080fd5b50600436106100f55760003560e01c8063715018a611610097578063a457c2d711610066578063a457c2d714610276578063a9059cbb146102a6578063dd62ed3e146102d6578063f2fde38b14610306576100f5565b8063715018a61461021457806387664f911461021e5780638da5cb5b1461023a57806395d89b4114610258576100f5565b806323b872dd116100d357806323b872dd14610166578063313ce5671461019657806339509351146101b457806370a08231146101e4576100f5565b806306fdde03146100fa578063095ea7b31461011857806318160ddd14610148575b600080fd5b610102610322565b60405161010f919061156b565b60405180910390f35b610132600480360381019061012d91906112da565b6103b4565b60405161013f9190611550565b60405180910390f35b6101506103d2565b60405161015d91906116ed565b60405180910390f35b610180600480360381019061017b919061128b565b6103dc565b60405161018d9190611550565b60405180910390f35b61019e6104d4565b6040516101ab9190611708565b60405180910390f35b6101ce60048036038101906101c991906112da565b6104dd565b6040516101db9190611550565b60405180910390f35b6101fe60048036038101906101f99190611226565b610589565b60405161020b91906116ed565b60405180910390f35b61021c6105d2565b005b61023860048036038101906102339190611226565b61065a565b005b6102426107d4565b60405161024f9190611535565b60405180910390f35b6102606107fd565b60405161026d919061156b565b60405180910390f35b610290600480360381019061028b91906112da565b61088f565b60405161029d9190611550565b60405180910390f35b6102c060048036038101906102bb91906112da565b61097a565b6040516102cd9190611550565b60405180910390f35b6102f060048036038101906102eb919061124f565b610998565b6040516102fd91906116ed565b60405180910390f35b610320600480360381019061031b9190611226565b610a1f565b005b6060600480546103319061181d565b80601f016020809104026020016040519081016040528092919081815260200182805461035d9061181d565b80156103aa5780601f1061037f576101008083540402835291602001916103aa565b820191906000526020600020905b81548152906001019060200180831161038d57829003601f168201915b5050505050905090565b60006103c86103c1610b1c565b8484610b24565b6001905092915050565b6000600354905090565b60006103e9848484610cef565b6000600260008673ffffffffffffffffffffffffffffffffffffffff1673ffffffffffffffffffffffffffffffffffffffff1681526020019081526020016000206000610434610b1c565b73ffffffffffffffffffffffffffffffffffffffff1673ffffffffffffffffffffffffffffffffffffffff168152602001908152602001600020549050828110156104b4576040517f08c379a00000000000000000000000000000000000000000000000000000000081526004016104ab9061164d565b60405180910390fd5b6104c8856104c0610b1c565b858403610b24565b60019150509392505050565b60006012905090565b600061057f6104ea610b1c565b8484600260006104f8610b1c565b73ffffffffffffffffffffffffffffffffffffffff1673ffffffffffffffffffffffffffffffffffffffff16815260200190815260200160002060008873ffffffffffffffffffffffffffffffffffffffff1673ffffffffffffffffffffffffffffffffffffffff1681526020019081526020016000205461057a919061173f565b610b24565b6001905092915050565b6000600160008373ffffffffffffffffffffffffffffffffffffffff1673ffffffffffffffffffffffffffffffffffffffff168152602001908152602001600020549050919050565b6105da610b1c565b73ffffffffffffffffffffffffffffffffffffffff166105f86107d4565b73ffffffffffffffffffffffffffffffffffffffff161461064e576040517f08c379a00000000000000000000000000000000000000000000000000000000081526004016106459061166d565b60405180910390fd5b6106586000610f73565b565b610662610b1c565b73ffffffffffffffffffffffffffffffffffffffff166106806107d4565b73ffffffffffffffffffffffffffffffffffffffff16146106d6576040517f08c379a00000000000000000000000000000000000000000000000000000000081526004016106cd9061166d565b60405180910390fd5b80600660006101000a81548173ffffffffffffffffffffffffffffffffffffffff021916908373ffffffffffffffffffffffffffffffffffffffff160217905550600073ffffffffffffffffffffffffffffffffffffffff16600660009054906101000a900473ffffffffffffffffffffffffffffffffffffffff1673ffffffffffffffffffffffffffffffffffffffff16146107d157600660009054906101000a900473ffffffffffffffffffffffffffffffffffffffff16600760006101000a81548173ffffffffffffffffffffffffffffffffffffffff021916908373ffffffffffffffffffffffffffffffffffffffff1602179055505b50565b60008060009054906101000a900473ffffffffffffffffffffffffffffffffffffffff16905090565b60606005805461080c9061181d565b80601f01602080910402602001604051908101604052809291908181526020018280546108389061181d565b80156108855780601f1061085a57610100808354040283529160200191610885565b820191906000526020600020905b81548152906001019060200180831161086857829003601f168201915b5050505050905090565b6000806002600061089e610b1c565b73ffffffffffffffffffffffffffffffffffffffff1673ffffffffffffffffffffffffffffffffffffffff16815260200190815260200160002060008573ffffffffffffffffffffffffffffffffffffffff1673ffffffffffffffffffffffffffffffffffffffff1681526020019081526020016000205490508281101561095b576040517f08c379a0000000000000000000000000000000000000000000000000000000008152600401610952906116cd565b60405180910390fd5b61096f610966610b1c565b85858403610b24565b600191505092915050565b600061098e610987610b1c565b8484610cef565b6001905092915050565b6000600260008473ffffffffffffffffffffffffffffffffffffffff1673ffffffffffffffffffffffffffffffffffffffff16815260200190815260200160002060008373ffffffffffffffffffffffffffffffffffffffff1673ffffffffffffffffffffffffffffffffffffffff16815260200190815260200160002054905092915050565b610a27610b1c565b73ffffffffffffffffffffffffffffffffffffffff16610a456107d4565b73ffffffffffffffffffffffffffffffffffffffff1614610a9b576040517f08c379a0000000000000000000000000000000000000000000000000000000008152600401610a929061166d565b60405180910390fd5b600073ffffffffffffffffffffffffffffffffffffffff168173ffffffffffffffffffffffffffffffffffffffff161415610b0b576040517f08c379a0000000000000000000000000000000000000000000000000000000008152600401610b02906115cd565b60405180910390fd5b610b1481610f73565b50565b505050565b600033905090565b600073ffffffffffffffffffffffffffffffffffffffff168373ffffffffffffffffffffffffffffffffffffffff161415610b94576040517f08c379a0000000000000000000000000000000000000000000000000000000008152600401610b8b906116ad565b60405180910390fd5b600073ffffffffffffffffffffffffffffffffffffffff168273ffffffffffffffffffffffffffffffffffffffff161415610c04576040517f08c379a0000000000000000000000000000000000000000000000000000000008152600401610bfb906115ed565b60405180910390fd5b80600260008573ffffffffffffffffffffffffffffffffffffffff1673ffffffffffffffffffffffffffffffffffffffff16815260200190815260200160002060008473ffffffffffffffffffffffffffffffffffffffff1673ffffffffffffffffffffffffffffffffffffffff168152602001908152602001600020819055508173ffffffffffffffffffffffffffffffffffffffff168373ffffffffffffffffffffffffffffffffffffffff167f8c5be1e5ebec7d5bd14f71427d1e84f3dd0314c0f7b2291e5b200ac8c7c3b92583604051610ce291906116ed565b60405180910390a3505050565b600073ffffffffffffffffffffffffffffffffffffffff168373ffffffffffffffffffffffffffffffffffffffff161415610d5f576040517f08c379a0000000000000000000000000000000000000000000000000000000008152600401610d569061168d565b60405180910390fd5b600073ffffffffffffffffffffffffffffffffffffffff168273ffffffffffffffffffffffffffffffffffffffff161415610dcf576040517f08c379a0000000000000000000000000000000000000000000000000000000008152600401610dc69061158d565b60405180910390fd5b610dda838383611037565b6000600160008573ffffffffffffffffffffffffffffffffffffffff1673ffffffffffffffffffffffffffffffffffffffff16815260200190815260200160002054905081811015610e61576040517f08c379a0000000000000000000000000000000000000000000000000000000008152600401610e589061160d565b60405180910390fd5b818103600160008673ffffffffffffffffffffffffffffffffffffffff1673ffffffffffffffffffffffffffffffffffffffff1681526020019081526020016000208190555081600160008573ffffffffffffffffffffffffffffffffffffffff1673ffffffffffffffffffffffffffffffffffffffff1681526020019081526020016000206000828254610ef6919061173f565b925050819055508273ffffffffffffffffffffffffffffffffffffffff168473ffffffffffffffffffffffffffffffffffffffff167fddf252ad1be2c89b69c2b068fc378daa952ba7f163c4a11628f55a4df523b3ef84604051610f5a91906116ed565b60405180910390a3610f6d84848461112e565b50505050565b60008060009054906101000a900473ffffffffffffffffffffffffffffffffffffffff169050816000806101000a81548173ffffffffffffffffffffffffffffffffffffffff021916908373ffffffffffffffffffffffffffffffffffffffff1602179055508173ffffffffffffffffffffffffffffffffffffffff168173ffffffffffffffffffffffffffffffffffffffff167f8be0079c531659141344cd1fd0a4f28419497f9722a3daafe3b4186f6b6457e060405160405180910390a35050565b611042838383610b17565b600073ffffffffffffffffffffffffffffffffffffffff16600660009054906101000a900473ffffffffffffffffffffffffffffffffffffffff1673ffffffffffffffffffffffffffffffffffffffff1614611129576110a183611133565b6110e0576040517f08c379a00000000000000000000000000000000000000000000000000000000081526004016110d79061162d565b60405180910390fd5b6110e982611133565b611128576040517f08c379a000000000000000000000000000000000000000000000000000000000815260040161111f906115ad565b60405180910390fd5b5b505050565b505050565b6000600760009054906101000a900473ffffffffffffffffffffffffffffffffffffffff1673ffffffffffffffffffffffffffffffffffffffff1663b9209e33836040518263ffffffff1660e01b81526004016111909190611535565b60206040518083038186803b1580156111a857600080fd5b505afa1580156111bc573d6000803e3d6000fd5b505050506040513d601f19601f820116820180604052508101906111e09190611316565b9050919050565b6000813590506111f681611bfd565b92915050565b60008151905061120b81611c14565b92915050565b60008135905061122081611c2b565b92915050565b60006020828403121561123857600080fd5b6000611246848285016111e7565b91505092915050565b6000806040838503121561126257600080fd5b6000611270858286016111e7565b9250506020611281858286016111e7565b9150509250929050565b6000806000606084860312156112a057600080fd5b60006112ae868287016111e7565b93505060206112bf868287016111e7565b92505060406112d086828701611211565b9150509250925092565b600080604083850312156112ed57600080fd5b60006112fb858286016111e7565b925050602061130c85828601611211565b9150509250929050565b60006020828403121561132857600080fd5b6000611336848285016111fc565b91505092915050565b61134881611795565b82525050565b611357816117a7565b82525050565b600061136882611723565b611372818561172e565b93506113828185602086016117ea565b61138b816118ad565b840191505092915050565b60006113a360238361172e565b91506113ae826118be565b604082019050919050565b60006113c6602c8361172e565b91506113d18261190d565b604082019050919050565b60006113e960268361172e565b91506113f48261195c565b604082019050919050565b600061140c60228361172e565b9150611417826119ab565b604082019050919050565b600061142f60268361172e565b915061143a826119fa565b604082019050919050565b600061145260298361172e565b915061145d82611a49565b604082019050919050565b600061147560288361172e565b915061148082611a98565b604082019050919050565b600061149860208361172e565b91506114a382611ae7565b602082019050919050565b60006114bb60258361172e565b91506114c682611b10565b604082019050919050565b60006114de60248361172e565b91506114e982611b5f565b604082019050919050565b600061150160258361172e565b915061150c82611bae565b604082019050919050565b611520816117d3565b82525050565b61152f816117dd565b82525050565b600060208201905061154a600083018461133f565b92915050565b6000602082019050611565600083018461134e565b92915050565b60006020820190508181036000830152611585818461135d565b905092915050565b600060208201905081810360008301526115a681611396565b9050919050565b600060208201905081810360008301526115c6816113b9565b9050919050565b600060208201905081810360008301526115e6816113dc565b9050919050565b60006020820190508181036000830152611606816113ff565b9050919050565b6000602082019050818103600083015261162681611422565b9050919050565b6000602082019050818103600083015261164681611445565b9050919050565b6000602082019050818103600083015261166681611468565b9050919050565b600060208201905081810360008301526116868161148b565b9050919050565b600060208201905081810360008301526116a6816114ae565b9050919050565b600060208201905081810360008301526116c6816114d1565b9050919050565b600060208201905081810360008301526116e6816114f4565b9050919050565b60006020820190506117026000830184611517565b92915050565b600060208201905061171d6000830184611526565b92915050565b600081519050919050565b600082825260208201905092915050565b600061174a826117d3565b9150611755836117d3565b9250827fffffffffffffffffffffffffffffffffffffffffffffffffffffffffffffffff0382111561178a5761178961184f565b5b828201905092915050565b60006117a0826117b3565b9050919050565b60008115159050919050565b600073ffffffffffffffffffffffffffffffffffffffff82169050919050565b6000819050919050565b600060ff82169050919050565b60005b838110156118085780820151818401526020810190506117ed565b83811115611817576000848401525b50505050565b6000600282049050600182168061183557607f821691505b602082108114156118495761184861187e565b5b50919050565b7f4e487b7100000000000000000000000000000000000000000000000000000000600052601160045260246000fd5b7f4e487b7100000000000000000000000000000000000000000000000000000000600052602260045260246000fd5b6000601f19601f8301169050919050565b7f45524332303a207472616e7366657220746f20746865207a65726f206164647260008201527f6573730000000000000000000000000000000000000000000000000000000000602082015250565b7f5065726d697373696f6e6564546f6b656e3a20526563697069656e742069732060008201527f6e6f742076657269666965640000000000000000000000000000000000000000602082015250565b7f4f776e61626c653a206e6577206f776e657220697320746865207a65726f206160008201527f6464726573730000000000000000000000000000000000000000000000000000602082015250565b7f45524332303a20617070726f766520746f20746865207a65726f20616464726560008201527f7373000000000000000000000000000000000000000000000000000000000000602082015250565b7f45524332303a207472616e7366657220616d6f756e742065786365656473206260008201527f616c616e63650000000000000000000000000000000000000000000000000000602082015250565b7f5065726d697373696f6e6564546f6b656e3a2053656e646572206973206e6f7460008201527f2076657269666965640000000000000000000000000000000000000000000000602082015250565b7f45524332303a207472616e7366657220616d6f756e742065786365656473206160008201527f6c6c6f77616e6365000000000000000000000000000000000000000000000000602082015250565b7f4f776e61626c653a2063616c6c6572206973206e6f7420746865206f776e6572600082015250565b7f45524332303a207472616e736665722066726f6d20746865207a65726f20616460008201527f6472657373000000000000000000000000000000000000000000000000000000602082015250565b7f45524332303a20617070726f76652066726f6d20746865207a65726f2061646460008201527f7265737300000000000000000000000000000000000000000000000000000000602082015250565b7f45524332303a2064656372656173656420616c6c6f77616e63652062656c6f7760008201527f207a65726f000000000000000000000000000000000000000000000000000000602082015250565b611c0681611795565b8114611c1157600080fd5b50565b611c1d816117a7565b8114611c2857600080fd5b50565b611c34816117d3565b8114611c3f57600080fd5b5056fea26469706673582212203f1bfb67b7f81020f9057d28c33328c53472ee85fbcc612b52d9fae53f37150e64736f6c63430008040033",
  "linkReferences": {},
  "deployedLinkReferences": {}
}