{
  "_format": "hh-sol-artifact-1",
  "contractName": "VerificationRegistry",
  "sourceName": "contracts/VerificationRegistry.sol",
  "abi": [
    {
      "anonymous": false,
      "inputs": [
        {
          "indexed": true,
          "internalType": "address",
          "name": "previousOwner",
          "type": "address"
        },
        {
          "indexed": true,
          "internalType": "address",
          "name": "newOwner",
          "type": "address"
        }
      ],
      "name": "OwnershipTransferred",
      "type": "event"
    },
    {
      "anonymous": false,
      "inputs": [
        {
          "indexed": false,
          "internalType": "bytes32",
          "name": "uuid",
          "type": "bytes32"
        }
      ],
      "name": "VerificationRemoved",
      "type": "event"
    },
    {
      "anonymous": false,
      "inputs": [
        {
          "components": [
            {
              "internalType": "bytes32",
              "name": "uuid",
              "type": "bytes32"
            },
            {
              "internalType": "address",
              "name": "verifier",
              "type": "address"
            },
            {
              "internalType": "address",
              "name": "subject",
              "type": "address"
            },
            {
              "internalType": "uint256",
              "name": "entryTime",
              "type": "uint256"
            },
            {
              "internalType": "uint256",
              "name": "expirationTime",
              "type": "uint256"
            },
            {
              "internalType": "bool",
              "name": "revoked",
              "type": "bool"
            }
          ],
          "indexed": false,
          "internalType": "struct VerificationRecord",
          "name": "verificationRecord",
          "type": "tuple"
        }
      ],
      "name": "VerificationResultConfirmed",
      "type": "event"
    },
    {
      "anonymous": false,
      "inputs": [
        {
          "indexed": false,
          "internalType": "bytes32",
          "name": "uuid",
          "type": "bytes32"
        }
      ],
      "name": "VerificationRevoked",
      "type": "event"
    },
    {
      "anonymous": false,
      "inputs": [
        {
          "indexed": false,
          "internalType": "address",
          "name": "verifier",
          "type": "address"
        },
        {
          "components": [
            {
              "internalType": "bytes32",
              "name": "name",
              "type": "bytes32"
            },
            {
              "internalType": "string",
              "name": "did",
              "type": "string"
            },
            {
              "internalType": "string",
              "name": "url",
              "type": "string"
            },
            {
              "internalType": "address",
              "name": "signer",
              "type": "address"
            }
          ],
          "indexed": false,
          "internalType": "struct VerifierInfo",
          "name": "verifierInfo",
          "type": "tuple"
        }
      ],
      "name": "VerifierAdded",
      "type": "event"
    },
    {
      "anonymous": false,
      "inputs": [
        {
          "indexed": false,
          "internalType": "address",
          "name": "verifier",
          "type": "address"
        }
      ],
      "name": "VerifierRemoved",
      "type": "event"
    },
    {
      "anonymous": false,
      "inputs": [
        {
          "indexed": false,
          "internalType": "address",
          "name": "verifier",
          "type": "address"
        },
        {
          "components": [
            {
              "internalType": "bytes32",
              "name": "name",
              "type": "bytes32"
            },
            {
              "internalType": "string",
              "name": "did",
              "type": "string"
            },
            {
              "internalType": "string",
              "name": "url",
              "type": "string"
            },
            {
              "internalType": "address",
              "name": "signer",
              "type": "address"
            }
          ],
          "indexed": false,
          "internalType": "struct VerifierInfo",
          "name": "verifierInfo",
          "type": "tuple"
        }
      ],
      "name": "VerifierUpdated",
      "type": "event"
    },
    {
      "inputs": [
        {
          "internalType": "address",
          "name": "verifierAddress",
          "type": "address"
        },
        {
          "components": [
            {
              "internalType": "bytes32",
              "name": "name",
              "type": "bytes32"
            },
            {
              "internalType": "string",
              "name": "did",
              "type": "string"
            },
            {
              "internalType": "string",
              "name": "url",
              "type": "string"
            },
            {
              "internalType": "address",
              "name": "signer",
              "type": "address"
            }
          ],
          "internalType": "struct VerifierInfo",
          "name": "verifierInfo",
          "type": "tuple"
        }
      ],
      "name": "addVerifier",
      "outputs": [],
      "stateMutability": "nonpayable",
      "type": "function"
    },
    {
      "inputs": [
        {
          "internalType": "bytes32",
          "name": "uuid",
          "type": "bytes32"
        }
      ],
      "name": "getVerification",
      "outputs": [
        {
          "components": [
            {
              "internalType": "bytes32",
              "name": "uuid",
              "type": "bytes32"
            },
            {
              "internalType": "address",
              "name": "verifier",
              "type": "address"
            },
            {
              "internalType": "address",
              "name": "subject",
              "type": "address"
            },
            {
              "internalType": "uint256",
              "name": "entryTime",
              "type": "uint256"
            },
            {
              "internalType": "uint256",
              "name": "expirationTime",
              "type": "uint256"
            },
            {
              "internalType": "bool",
              "name": "revoked",
              "type": "bool"
            }
          ],
          "internalType": "struct VerificationRecord",
          "name": "",
          "type": "tuple"
        }
      ],
      "stateMutability": "view",
      "type": "function"
    },
    {
      "inputs": [],
      "name": "getVerificationCount",
      "outputs": [
        {
          "internalType": "uint256",
          "name": "",
          "type": "uint256"
        }
      ],
      "stateMutability": "view",
      "type": "function"
    },
    {
      "inputs": [
        {
          "internalType": "address",
          "name": "subject",
          "type": "address"
        }
      ],
      "name": "getVerificationsForSubject",
      "outputs": [
        {
          "components": [
            {
              "internalType": "bytes32",
              "name": "uuid",
              "type": "bytes32"
            },
            {
              "internalType": "address",
              "name": "verifier",
              "type": "address"
            },
            {
              "internalType": "address",
              "name": "subject",
              "type": "address"
            },
            {
              "internalType": "uint256",
              "name": "entryTime",
              "type": "uint256"
            },
            {
              "internalType": "uint256",
              "name": "expirationTime",
              "type": "uint256"
            },
            {
              "internalType": "bool",
              "name": "revoked",
              "type": "bool"
            }
          ],
          "internalType": "struct VerificationRecord[]",
          "name": "",
          "type": "tuple[]"
        }
      ],
      "stateMutability": "view",
      "type": "function"
    },
    {
      "inputs": [
        {
          "internalType": "address",
          "name": "verifier",
          "type": "address"
        }
      ],
      "name": "getVerificationsForVerifier",
      "outputs": [
        {
          "components": [
            {
              "internalType": "bytes32",
              "name": "uuid",
              "type": "bytes32"
            },
            {
              "internalType": "address",
              "name": "verifier",
              "type": "address"
            },
            {
              "internalType": "address",
              "name": "subject",
              "type": "address"
            },
            {
              "internalType": "uint256",
              "name": "entryTime",
              "type": "uint256"
            },
            {
              "internalType": "uint256",
              "name": "expirationTime",
              "type": "uint256"
            },
            {
              "internalType": "bool",
              "name": "revoked",
              "type": "bool"
            }
          ],
          "internalType": "struct VerificationRecord[]",
          "name": "",
          "type": "tuple[]"
        }
      ],
      "stateMutability": "view",
      "type": "function"
    },
    {
      "inputs": [
        {
          "internalType": "address",
          "name": "verifierAddress",
          "type": "address"
        }
      ],
      "name": "getVerifier",
      "outputs": [
        {
          "components": [
            {
              "internalType": "bytes32",
              "name": "name",
              "type": "bytes32"
            },
            {
              "internalType": "string",
              "name": "did",
              "type": "string"
            },
            {
              "internalType": "string",
              "name": "url",
              "type": "string"
            },
            {
              "internalType": "address",
              "name": "signer",
              "type": "address"
            }
          ],
          "internalType": "struct VerifierInfo",
          "name": "",
          "type": "tuple"
        }
      ],
      "stateMutability": "view",
      "type": "function"
    },
    {
      "inputs": [],
      "name": "getVerifierCount",
      "outputs": [
        {
          "internalType": "uint256",
          "name": "",
          "type": "uint256"
        }
      ],
      "stateMutability": "view",
      "type": "function"
    },
    {
      "inputs": [
        {
          "internalType": "address",
          "name": "subject",
          "type": "address"
        }
      ],
      "name": "isVerified",
      "outputs": [
        {
          "internalType": "bool",
          "name": "",
          "type": "bool"
        }
      ],
      "stateMutability": "view",
      "type": "function"
    },
    {
      "inputs": [
        {
          "internalType": "address",
          "name": "account",
          "type": "address"
        }
      ],
      "name": "isVerifier",
      "outputs": [
        {
          "internalType": "bool",
          "name": "",
          "type": "bool"
        }
      ],
      "stateMutability": "view",
      "type": "function"
    },
    {
      "inputs": [],
      "name": "owner",
      "outputs": [
        {
          "internalType": "address",
          "name": "",
          "type": "address"
        }
      ],
      "stateMutability": "view",
      "type": "function"
    },
    {
      "inputs": [
        {
          "components": [
            {
              "internalType": "string",
              "name": "schema",
              "type": "string"
            },
            {
              "internalType": "address",
              "name": "subject",
              "type": "address"
            },
            {
              "internalType": "uint256",
              "name": "expiration",
              "type": "uint256"
            }
          ],
          "internalType": "struct VerificationResult",
          "name": "verificationResult",
          "type": "tuple"
        },
        {
          "internalType": "bytes",
          "name": "signature",
          "type": "bytes"
        }
      ],
      "name": "registerVerification",
      "outputs": [
        {
          "components": [
            {
              "internalType": "bytes32",
              "name": "uuid",
              "type": "bytes32"
            },
            {
              "internalType": "address",
              "name": "verifier",
              "type": "address"
            },
            {
              "internalType": "address",
              "name": "subject",
              "type": "address"
            },
            {
              "internalType": "uint256",
              "name": "entryTime",
              "type": "uint256"
            },
            {
              "internalType": "uint256",
              "name": "expirationTime",
              "type": "uint256"
            },
            {
              "internalType": "bool",
              "name": "revoked",
              "type": "bool"
            }
          ],
          "internalType": "struct VerificationRecord",
          "name": "",
          "type": "tuple"
        }
      ],
      "stateMutability": "nonpayable",
      "type": "function"
    },
    {
      "inputs": [
        {
          "internalType": "bytes32",
          "name": "uuid",
          "type": "bytes32"
        }
      ],
      "name": "removeVerification",
      "outputs": [],
      "stateMutability": "nonpayable",
      "type": "function"
    },
    {
      "inputs": [
        {
          "internalType": "address",
          "name": "verifierAddress",
          "type": "address"
        }
      ],
      "name": "removeVerifier",
      "outputs": [],
      "stateMutability": "nonpayable",
      "type": "function"
    },
    {
      "inputs": [],
      "name": "renounceOwnership",
      "outputs": [],
      "stateMutability": "nonpayable",
      "type": "function"
    },
    {
      "inputs": [
        {
          "internalType": "bytes32",
          "name": "uuid",
          "type": "bytes32"
        }
      ],
      "name": "revokeVerification",
      "outputs": [],
      "stateMutability": "nonpayable",
      "type": "function"
    },
    {
      "inputs": [
        {
          "internalType": "address",
          "name": "newOwner",
          "type": "address"
        }
      ],
      "name": "transferOwnership",
      "outputs": [],
      "stateMutability": "nonpayable",
      "type": "function"
    },
    {
      "inputs": [
        {
          "internalType": "address",
          "name": "verifierAddress",
          "type": "address"
        },
        {
          "components": [
            {
              "internalType": "bytes32",
              "name": "name",
              "type": "bytes32"
            },
            {
              "internalType": "string",
              "name": "did",
              "type": "string"
            },
            {
              "internalType": "string",
              "name": "url",
              "type": "string"
            },
            {
              "internalType": "address",
              "name": "signer",
              "type": "address"
            }
          ],
          "internalType": "struct VerifierInfo",
          "name": "verifierInfo",
          "type": "tuple"
        }
      ],
      "name": "updateVerifier",
      "outputs": [],
      "stateMutability": "nonpayable",
      "type": "function"
    }
  ],
  "bytecode": "0x6101206040523480156200001257600080fd5b506040518060400160405280601481526020017f566572696669636174696f6e52656769737472790000000000000000000000008152506040518060400160405280600381526020017f312e3000000000000000000000000000000000000000000000000000000000008152506200009f620000936200012260201b60201c565b6200012a60201b60201c565b60008280519060200120905060008280519060200120905060007f8b73c3c69bb8fe3d512ecc4cf759cc79239f7b179b0ffacaa9a75d522b39400f90508260c081815250508160e081815250504660a0818152505062000107818484620001ee60201b60201c565b60808181525050806101008181525050505050505062000302565b600033905090565b60008060009054906101000a900473ffffffffffffffffffffffffffffffffffffffff169050816000806101000a81548173ffffffffffffffffffffffffffffffffffffffff021916908373ffffffffffffffffffffffffffffffffffffffff1602179055508173ffffffffffffffffffffffffffffffffffffffff168173ffffffffffffffffffffffffffffffffffffffff167f8be0079c531659141344cd1fd0a4f28419497f9722a3daafe3b4186f6b6457e060405160405180910390a35050565b600083838346306040516020016200020b9594939291906200025d565b6040516020818303038152906040528051906020012090509392505050565b6200023581620002ba565b82525050565b6200024681620002ce565b82525050565b6200025781620002f8565b82525050565b600060a0820190506200027460008301886200023b565b6200028360208301876200023b565b6200029260408301866200023b565b620002a160608301856200024c565b620002b060808301846200022a565b9695505050505050565b6000620002c782620002d8565b9050919050565b6000819050919050565b600073ffffffffffffffffffffffffffffffffffffffff82169050919050565b6000819050919050565b60805160a05160c05160e051610100516142436200034760003960006124f50152600061253701526000612516015260006124a2015260006124ca01526142436000f3fe608060405234801561001057600080fd5b506004361061010b5760003560e01c8063715018a6116100a2578063b9209e3311610071578063b9209e33146102b6578063b9c688a7146102e6578063ca2dfd0a14610304578063ed2ffd2814610320578063f2fde38b146103505761010b565b8063715018a6146102425780638da5cb5b1461024c57806394ef24401461026a57806399cf1a1d1461029a5761010b565b806333105218116100de57806333105218146101be578063417469a7146101ee5780634e4de26d1461020a57806370eba124146102265761010b565b8063059ce95d146101105780630e9e848f1461014057806315e5ec2b146101705780631f05b374146101a0575b600080fd5b61012a60048036038101906101259190612ec7565b61036c565b6040516101379190613946565b60405180910390f35b61015a60048036038101906101559190612ec7565b6105d1565b60405161016791906135e8565b60405180910390f35b61018a60048036038101906101859190612f6d565b61090b565b604051610197919061392b565b60405180910390f35b6101a8610a6e565b6040516101b59190613968565b60405180910390f35b6101d860048036038101906101d39190612ec7565b610a78565b6040516101e5919061360a565b60405180910390f35b61020860048036038101906102039190612ef0565b610aca565b005b610224600480360381019061021f9190612f44565b610d5b565b005b610240600480360381019061023b9190612f44565b610f51565b005b61024a6110e6565b005b61025461116e565b604051610261919061359d565b60405180910390f35b610284600480360381019061027f9190612f44565b611197565b604051610291919061392b565b60405180910390f35b6102b460048036038101906102af9190612ef0565b6112a9565b005b6102d060048036038101906102cb9190612ec7565b611551565b6040516102dd919061360a565b60405180910390f35b6102ee6117ed565b6040516102fb9190613968565b60405180910390f35b61031e60048036038101906103199190612ec7565b6117f7565b005b61033a60048036038101906103359190612ec7565b611aa2565b60405161034791906135e8565b60405180910390f35b61036a60048036038101906103659190612ec7565b611ddc565b005b610374612afd565b6000801b600160008473ffffffffffffffffffffffffffffffffffffffff1673ffffffffffffffffffffffffffffffffffffffff1681526020019081526020016000206000015414156103fc576040517f08c379a00000000000000000000000000000000000000000000000000000000081526004016103f39061388b565b60405180910390fd5b600160008373ffffffffffffffffffffffffffffffffffffffff1673ffffffffffffffffffffffffffffffffffffffff1681526020019081526020016000206040518060800160405290816000820154815260200160018201805461046090613b46565b80601f016020809104026020016040519081016040528092919081815260200182805461048c90613b46565b80156104d95780601f106104ae576101008083540402835291602001916104d9565b820191906000526020600020905b8154815290600101906020018083116104bc57829003601f168201915b505050505081526020016002820180546104f290613b46565b80601f016020809104026020016040519081016040528092919081815260200182805461051e90613b46565b801561056b5780601f106105405761010080835404028352916020019161056b565b820191906000526020600020905b81548152906001019060200180831161054e57829003601f168201915b505050505081526020016003820160009054906101000a900473ffffffffffffffffffffffffffffffffffffffff1673ffffffffffffffffffffffffffffffffffffffff1673ffffffffffffffffffffffffffffffffffffffff16815250509050919050565b6060600073ffffffffffffffffffffffffffffffffffffffff168273ffffffffffffffffffffffffffffffffffffffff161415610643576040517f08c379a000000000000000000000000000000000000000000000000000000000815260040161063a9061390b565b60405180910390fd5b6000600660008473ffffffffffffffffffffffffffffffffffffffff1673ffffffffffffffffffffffffffffffffffffffff1681526020019081526020016000208054806020026020016040519081016040528092919081815260200182805480156106ce57602002820191906000526020600020905b8154815260200190600101908083116106ba575b505050505090506000815167ffffffffffffffff811115610718577f4e487b7100000000000000000000000000000000000000000000000000000000600052604160045260246000fd5b60405190808252806020026020018201604052801561075157816020015b61073e612b3e565b8152602001906001900390816107365790505b50905060005b82518110156109005760006004600085848151811061079f577f4e487b7100000000000000000000000000000000000000000000000000000000600052603260045260246000fd5b602002602001015181526020019081526020016000206040518060c0016040529081600082015481526020016001820160009054906101000a900473ffffffffffffffffffffffffffffffffffffffff1673ffffffffffffffffffffffffffffffffffffffff1673ffffffffffffffffffffffffffffffffffffffff1681526020016002820160009054906101000a900473ffffffffffffffffffffffffffffffffffffffff1673ffffffffffffffffffffffffffffffffffffffff1673ffffffffffffffffffffffffffffffffffffffff16815260200160038201548152602001600482015481526020016005820160009054906101000a900460ff1615151515815250509050808383815181106108e1577f4e487b7100000000000000000000000000000000000000000000000000000000600052603260045260246000fd5b60200260200101819052505080806108f890613ba9565b915050610757565b508092505050919050565b610913612b3e565b6000801b600160003373ffffffffffffffffffffffffffffffffffffffff1673ffffffffffffffffffffffffffffffffffffffff16815260200190815260200160002060000154141561099b576040517f08c379a0000000000000000000000000000000000000000000000000000000008152600401610992906137ab565b60405180910390fd5b6109a483611ed4565b60006109b08484611ed7565b90503373ffffffffffffffffffffffffffffffffffffffff16816020015173ffffffffffffffffffffffffffffffffffffffff1614610a24576040517f08c379a0000000000000000000000000000000000000000000000000000000008152600401610a1b906137cb565b60405180910390fd5b610a2d81612169565b7fb13e5e7efcce7bbc67740f0fe050563d4fd1f5cc7096c3a32cb901711c95ab5481604051610a5c919061392b565b60405180910390a18091505092915050565b6000600354905090565b60008060001b600160008473ffffffffffffffffffffffffffffffffffffffff1673ffffffffffffffffffffffffffffffffffffffff1681526020019081526020016000206000015414159050919050565b610ad2612347565b73ffffffffffffffffffffffffffffffffffffffff16610af061116e565b73ffffffffffffffffffffffffffffffffffffffff1614610b46576040517f08c379a0000000000000000000000000000000000000000000000000000000008152600401610b3d9061386b565b60405180910390fd5b6000801b600160008473ffffffffffffffffffffffffffffffffffffffff1673ffffffffffffffffffffffffffffffffffffffff168152602001908152602001600020600001541415610bce576040517f08c379a0000000000000000000000000000000000000000000000000000000008152600401610bc59061388b565b60405180910390fd5b80600160008473ffffffffffffffffffffffffffffffffffffffff1673ffffffffffffffffffffffffffffffffffffffff168152602001908152602001600020600082015181600001556020820151816001019080519060200190610c34929190612ba5565b506040820151816002019080519060200190610c51929190612ba5565b5060608201518160030160006101000a81548173ffffffffffffffffffffffffffffffffffffffff021916908373ffffffffffffffffffffffffffffffffffffffff1602179055509050508160026000836060015173ffffffffffffffffffffffffffffffffffffffff1673ffffffffffffffffffffffffffffffffffffffff16815260200190815260200160002060006101000a81548173ffffffffffffffffffffffffffffffffffffffff021916908373ffffffffffffffffffffffffffffffffffffffff1602179055507fcf8ca726ba9d58efa48fa96d3184c211fcce84e8b5e9a3c83c10c1ba9fd392c68282604051610d4f9291906135b8565b60405180910390a15050565b6000801b600160003373ffffffffffffffffffffffffffffffffffffffff1673ffffffffffffffffffffffffffffffffffffffff168152602001908152602001600020600001541415610de3576040517f08c379a0000000000000000000000000000000000000000000000000000000008152600401610dda906137ab565b60405180910390fd5b3373ffffffffffffffffffffffffffffffffffffffff166004600083815260200190815260200160002060010160009054906101000a900473ffffffffffffffffffffffffffffffffffffffff1673ffffffffffffffffffffffffffffffffffffffff1614610e87576040517f08c379a0000000000000000000000000000000000000000000000000000000008152600401610e7e906138ab565b60405180910390fd5b600460008281526020019081526020016000206000808201600090556001820160006101000a81549073ffffffffffffffffffffffffffffffffffffffff02191690556002820160006101000a81549073ffffffffffffffffffffffffffffffffffffffff0219169055600382016000905560048201600090556005820160006101000a81549060ff021916905550507f9abf56d49e4ef717f3418600d3ed66048ca2ed8e3e630a70b76a71dd2142def581604051610f469190613625565b60405180910390a150565b6000801b600160003373ffffffffffffffffffffffffffffffffffffffff1673ffffffffffffffffffffffffffffffffffffffff168152602001908152602001600020600001541415610fd9576040517f08c379a0000000000000000000000000000000000000000000000000000000008152600401610fd0906137ab565b60405180910390fd5b3373ffffffffffffffffffffffffffffffffffffffff166004600083815260200190815260200160002060010160009054906101000a900473ffffffffffffffffffffffffffffffffffffffff1673ffffffffffffffffffffffffffffffffffffffff161461107d576040517f08c379a0000000000000000000000000000000000000000000000000000000008152600401611074906138eb565b60405180910390fd5b60016004600083815260200190815260200160002060050160006101000a81548160ff0219169083151502179055507f071ad1bb208a373a52e72fe5d8aa7755d658f88e197e666bf1a6d09d0ddb5056816040516110db9190613625565b60405180910390a150565b6110ee612347565b73ffffffffffffffffffffffffffffffffffffffff1661110c61116e565b73ffffffffffffffffffffffffffffffffffffffff1614611162576040517f08c379a00000000000000000000000000000000000000000000000000000000081526004016111599061386b565b60405180910390fd5b61116c600061234f565b565b60008060009054906101000a900473ffffffffffffffffffffffffffffffffffffffff16905090565b61119f612b3e565b600460008381526020019081526020016000206040518060c0016040529081600082015481526020016001820160009054906101000a900473ffffffffffffffffffffffffffffffffffffffff1673ffffffffffffffffffffffffffffffffffffffff1673ffffffffffffffffffffffffffffffffffffffff1681526020016002820160009054906101000a900473ffffffffffffffffffffffffffffffffffffffff1673ffffffffffffffffffffffffffffffffffffffff1673ffffffffffffffffffffffffffffffffffffffff16815260200160038201548152602001600482015481526020016005820160009054906101000a900460ff1615151515815250509050919050565b6112b1612347565b73ffffffffffffffffffffffffffffffffffffffff166112cf61116e565b73ffffffffffffffffffffffffffffffffffffffff1614611325576040517f08c379a000000000000000000000000000000000000000000000000000000000815260040161131c9061386b565b60405180910390fd5b6000801b600160008473ffffffffffffffffffffffffffffffffffffffff1673ffffffffffffffffffffffffffffffffffffffff16815260200190815260200160002060000154146113ac576040517f08c379a00000000000000000000000000000000000000000000000000000000081526004016113a39061380b565b60405180910390fd5b80600160008473ffffffffffffffffffffffffffffffffffffffff1673ffffffffffffffffffffffffffffffffffffffff168152602001908152602001600020600082015181600001556020820151816001019080519060200190611412929190612ba5565b50604082015181600201908051906020019061142f929190612ba5565b5060608201518160030160006101000a81548173ffffffffffffffffffffffffffffffffffffffff021916908373ffffffffffffffffffffffffffffffffffffffff1602179055509050508160026000836060015173ffffffffffffffffffffffffffffffffffffffff1673ffffffffffffffffffffffffffffffffffffffff16815260200190815260200160002060006101000a81548173ffffffffffffffffffffffffffffffffffffffff021916908373ffffffffffffffffffffffffffffffffffffffff1602179055506003600081548092919061150f90613ba9565b91905055507f57fdb74cb7ec2177b327961b74feef54dcb8102656cf6484ea992a84eb1bb4d082826040516115459291906135b8565b60405180910390a15050565b60008073ffffffffffffffffffffffffffffffffffffffff168273ffffffffffffffffffffffffffffffffffffffff1614156115c2576040517f08c379a00000000000000000000000000000000000000000000000000000000081526004016115b99061390b565b60405180910390fd5b6000600560008473ffffffffffffffffffffffffffffffffffffffff1673ffffffffffffffffffffffffffffffffffffffff16815260200190815260200160002080548060200260200160405190810160405280929190818152602001828054801561164d57602002820191906000526020600020905b815481526020019060010190808311611639575b5050505050905060005b81518110156117e15760006004600084848151811061169f577f4e487b7100000000000000000000000000000000000000000000000000000000600052603260045260246000fd5b602002602001015181526020019081526020016000206040518060c0016040529081600082015481526020016001820160009054906101000a900473ffffffffffffffffffffffffffffffffffffffff1673ffffffffffffffffffffffffffffffffffffffff1673ffffffffffffffffffffffffffffffffffffffff1681526020016002820160009054906101000a900473ffffffffffffffffffffffffffffffffffffffff1673ffffffffffffffffffffffffffffffffffffffff1673ffffffffffffffffffffffffffffffffffffffff16815260200160038201548152602001600482015481526020016005820160009054906101000a900460ff16151515158152505090508060a001511580156117bc5750428160800151115b156117cd57600193505050506117e8565b5080806117d990613ba9565b915050611657565b5060009150505b919050565b6000600354905090565b6117ff612347565b73ffffffffffffffffffffffffffffffffffffffff1661181d61116e565b73ffffffffffffffffffffffffffffffffffffffff1614611873576040517f08c379a000000000000000000000000000000000000000000000000000000000815260040161186a9061386b565b60405180910390fd5b6000801b600160008373ffffffffffffffffffffffffffffffffffffffff1673ffffffffffffffffffffffffffffffffffffffff1681526020019081526020016000206000015414156118fb576040517f08c379a00000000000000000000000000000000000000000000000000000000081526004016118f29061382b565b60405180910390fd5b60026000600160008473ffffffffffffffffffffffffffffffffffffffff1673ffffffffffffffffffffffffffffffffffffffff16815260200190815260200160002060030160009054906101000a900473ffffffffffffffffffffffffffffffffffffffff1673ffffffffffffffffffffffffffffffffffffffff1673ffffffffffffffffffffffffffffffffffffffff16815260200190815260200160002060006101000a81549073ffffffffffffffffffffffffffffffffffffffff0219169055600160008273ffffffffffffffffffffffffffffffffffffffff1673ffffffffffffffffffffffffffffffffffffffff168152602001908152602001600020600080820160009055600182016000611a179190612c2b565b600282016000611a279190612c2b565b6003820160006101000a81549073ffffffffffffffffffffffffffffffffffffffff0219169055505060036000815480929190611a6390613b1c565b91905055507f44a3cd4eb5cc5748f6169df057b1cb2ae4c383e87cd94663c430e095d4cba42481604051611a97919061359d565b60405180910390a150565b6060600073ffffffffffffffffffffffffffffffffffffffff168273ffffffffffffffffffffffffffffffffffffffff161415611b14576040517f08c379a0000000000000000000000000000000000000000000000000000000008152600401611b0b9061390b565b60405180910390fd5b6000600560008473ffffffffffffffffffffffffffffffffffffffff1673ffffffffffffffffffffffffffffffffffffffff168152602001908152602001600020805480602002602001604051908101604052809291908181526020018280548015611b9f57602002820191906000526020600020905b815481526020019060010190808311611b8b575b505050505090506000815167ffffffffffffffff811115611be9577f4e487b7100000000000000000000000000000000000000000000000000000000600052604160045260246000fd5b604051908082528060200260200182016040528015611c2257816020015b611c0f612b3e565b815260200190600190039081611c075790505b50905060005b8251811015611dd157600060046000858481518110611c70577f4e487b7100000000000000000000000000000000000000000000000000000000600052603260045260246000fd5b602002602001015181526020019081526020016000206040518060c0016040529081600082015481526020016001820160009054906101000a900473ffffffffffffffffffffffffffffffffffffffff1673ffffffffffffffffffffffffffffffffffffffff1673ffffffffffffffffffffffffffffffffffffffff1681526020016002820160009054906101000a900473ffffffffffffffffffffffffffffffffffffffff1673ffffffffffffffffffffffffffffffffffffffff1673ffffffffffffffffffffffffffffffffffffffff16815260200160038201548152602001600482015481526020016005820160009054906101000a900460ff161515151581525050905080838381518110611db2577f4e487b7100000000000000000000000000000000000000000000000000000000600052603260045260246000fd5b6020026020010181905250508080611dc990613ba9565b915050611c28565b508092505050919050565b611de4612347565b73ffffffffffffffffffffffffffffffffffffffff16611e0261116e565b73ffffffffffffffffffffffffffffffffffffffff1614611e58576040517f08c379a0000000000000000000000000000000000000000000000000000000008152600401611e4f9061386b565b60405180910390fd5b600073ffffffffffffffffffffffffffffffffffffffff168173ffffffffffffffffffffffffffffffffffffffff161415611ec8576040517f08c379a0000000000000000000000000000000000000000000000000000000008152600401611ebf9061378b565b60405180910390fd5b611ed18161234f565b50565b50565b611edf612b3e565b6000611f4f7fdafa0744ca168e0d0f27b1ba21796593dba0298e02cde0546c6bd8adb345f6fe856000015180519060200120866020015187604001518860600151604051602001611f34959493929190613640565b60405160208183030381529060405280519060200120612413565b90506000611f5d828561242d565b90506000600260008373ffffffffffffffffffffffffffffffffffffffff1673ffffffffffffffffffffffffffffffffffffffff16815260200190815260200160002060009054906101000a900473ffffffffffffffffffffffffffffffffffffffff1690508173ffffffffffffffffffffffffffffffffffffffff16600160008373ffffffffffffffffffffffffffffffffffffffff1673ffffffffffffffffffffffffffffffffffffffff16815260200190815260200160002060030160009054906101000a900473ffffffffffffffffffffffffffffffffffffffff1673ffffffffffffffffffffffffffffffffffffffff1614612093576040517f08c379a000000000000000000000000000000000000000000000000000000000815260040161208a906138cb565b60405180910390fd5b428660400151116120d9576040517f08c379a00000000000000000000000000000000000000000000000000000000081526004016120d09061374b565b60405180910390fd5b60006040518060c001604052806000801b81526020018373ffffffffffffffffffffffffffffffffffffffff168152602001886020015173ffffffffffffffffffffffffffffffffffffffff16815260200142815260200188604001518152602001600015158152509050600061214f82612454565b905080826000018181525050819550505050505092915050565b6007600081548092919061217c90613ba9565b91905055508060046000836000015181526020019081526020016000206000820151816000015560208201518160010160006101000a81548173ffffffffffffffffffffffffffffffffffffffff021916908373ffffffffffffffffffffffffffffffffffffffff16021790555060408201518160020160006101000a81548173ffffffffffffffffffffffffffffffffffffffff021916908373ffffffffffffffffffffffffffffffffffffffff160217905550606082015181600301556080820151816004015560a08201518160050160006101000a81548160ff02191690831515021790555090505060056000826040015173ffffffffffffffffffffffffffffffffffffffff1673ffffffffffffffffffffffffffffffffffffffff1681526020019081526020016000208160000151908060018154018082558091505060019003906000526020600020016000909190919091505560066000826020015173ffffffffffffffffffffffffffffffffffffffff1673ffffffffffffffffffffffffffffffffffffffff1681526020019081526020016000208160000151908060018154018082558091505060019003906000526020600020016000909190919091505550565b600033905090565b60008060009054906101000a900473ffffffffffffffffffffffffffffffffffffffff169050816000806101000a81548173ffffffffffffffffffffffffffffffffffffffff021916908373ffffffffffffffffffffffffffffffffffffffff1602179055508173ffffffffffffffffffffffffffffffffffffffff168173ffffffffffffffffffffffffffffffffffffffff167f8be0079c531659141344cd1fd0a4f28419497f9722a3daafe3b4186f6b6457e060405160405180910390a35050565b600061242661242061249e565b83612561565b9050919050565b600080600061243c8585612594565b9150915061244981612617565b819250505092915050565b60008160200151826040015183606001518460800151600754604051602001612481959493929190613507565b604051602081830303815290604052805190602001209050919050565b60007f00000000000000000000000000000000000000000000000000000000000000004614156124f0577f0000000000000000000000000000000000000000000000000000000000000000905061255e565b61255b7f00000000000000000000000000000000000000000000000000000000000000007f00000000000000000000000000000000000000000000000000000000000000007f0000000000000000000000000000000000000000000000000000000000000000612968565b90505b90565b60008282604051602001612576929190613566565b60405160208183030381529060405280519060200120905092915050565b6000806041835114156125d65760008060006020860151925060408601519150606086015160001a90506125ca878285856129a2565b94509450505050612610565b6040835114156126075760008060208501519150604085015190506125fc868383612aaf565b935093505050612610565b60006002915091505b9250929050565b60006004811115612651577f4e487b7100000000000000000000000000000000000000000000000000000000600052602160045260246000fd5b81600481111561268a577f4e487b7100000000000000000000000000000000000000000000000000000000600052602160045260246000fd5b141561269557612965565b600160048111156126cf577f4e487b7100000000000000000000000000000000000000000000000000000000600052602160045260246000fd5b816004811115612708577f4e487b7100000000000000000000000000000000000000000000000000000000600052602160045260246000fd5b1415612749576040517f08c379a00000000000000000000000000000000000000000000000000000000081526004016127409061372b565b60405180910390fd5b60026004811115612783577f4e487b7100000000000000000000000000000000000000000000000000000000600052602160045260246000fd5b8160048111156127bc577f4e487b7100000000000000000000000000000000000000000000000000000000600052602160045260246000fd5b14156127fd576040517f08c379a00000000000000000000000000000000000000000000000000000000081526004016127f49061376b565b60405180910390fd5b60036004811115612837577f4e487b7100000000000000000000000000000000000000000000000000000000600052602160045260246000fd5b816004811115612870577f4e487b7100000000000000000000000000000000000000000000000000000000600052602160045260246000fd5b14156128b1576040517f08c379a00000000000000000000000000000000000000000000000000000000081526004016128a8906137eb565b60405180910390fd5b6004808111156128ea577f4e487b7100000000000000000000000000000000000000000000000000000000600052602160045260246000fd5b816004811115612923577f4e487b7100000000000000000000000000000000000000000000000000000000600052602160045260246000fd5b1415612964576040517f08c379a000000000000000000000000000000000000000000000000000000000815260040161295b9061384b565b60405180910390fd5b5b50565b60008383834630604051602001612983959493929190613693565b6040516020818303038152906040528051906020012090509392505050565b6000807f7fffffffffffffffffffffffffffffff5d576e7357a4501ddfe92f46681b20a08360001c11156129dd576000600391509150612aa6565b601b8560ff16141580156129f55750601c8560ff1614155b15612a07576000600491509150612aa6565b600060018787878760405160008152602001604052604051612a2c94939291906136e6565b6020604051602081039080840390855afa158015612a4e573d6000803e3d6000fd5b505050602060405103519050600073ffffffffffffffffffffffffffffffffffffffff168173ffffffffffffffffffffffffffffffffffffffff161415612a9d57600060019250925050612aa6565b80600092509250505b94509492505050565b6000806000807f7fffffffffffffffffffffffffffffffffffffffffffffffffffffffffffffff85169150601b8560ff1c019050612aef878288856129a2565b935093505050935093915050565b6040518060800160405280600080191681526020016060815260200160608152602001600073ffffffffffffffffffffffffffffffffffffffff1681525090565b6040518060c0016040528060008019168152602001600073ffffffffffffffffffffffffffffffffffffffff168152602001600073ffffffffffffffffffffffffffffffffffffffff16815260200160008152602001600081526020016000151581525090565b828054612bb190613b46565b90600052602060002090601f016020900481019282612bd35760008555612c1a565b82601f10612bec57805160ff1916838001178555612c1a565b82800160010185558215612c1a579182015b82811115612c19578251825591602001919060010190612bfe565b5b509050612c279190612c6b565b5090565b508054612c3790613b46565b6000825580601f10612c495750612c68565b601f016020900490600052602060002090810190612c679190612c6b565b5b50565b5b80821115612c84576000816000905550600101612c6c565b5090565b6000612c9b612c96846139a8565b613983565b905082815260208101848484011115612cb357600080fd5b612cbe848285613ada565b509392505050565b6000612cd9612cd4846139d9565b613983565b905082815260208101848484011115612cf157600080fd5b612cfc848285613ada565b509392505050565b600081359050612d13816141c8565b92915050565b600081359050612d28816141df565b92915050565b600082601f830112612d3f57600080fd5b8135612d4f848260208601612c88565b91505092915050565b600082601f830112612d6957600080fd5b8135612d79848260208601612cc6565b91505092915050565b600060808284031215612d9457600080fd5b612d9e6080613983565b9050600082013567ffffffffffffffff811115612dba57600080fd5b612dc684828501612d58565b6000830152506020612dda84828501612d04565b6020830152506040612dee84828501612eb2565b6040830152506060612e0284828501612d19565b60608301525092915050565b600060808284031215612e2057600080fd5b612e2a6080613983565b90506000612e3a84828501612d19565b600083015250602082013567ffffffffffffffff811115612e5a57600080fd5b612e6684828501612d58565b602083015250604082013567ffffffffffffffff811115612e8657600080fd5b612e9284828501612d58565b6040830152506060612ea684828501612d04565b60608301525092915050565b600081359050612ec1816141f6565b92915050565b600060208284031215612ed957600080fd5b6000612ee784828501612d04565b91505092915050565b60008060408385031215612f0357600080fd5b6000612f1185828601612d04565b925050602083013567ffffffffffffffff811115612f2e57600080fd5b612f3a85828601612e0e565b9150509250929050565b600060208284031215612f5657600080fd5b6000612f6484828501612d19565b91505092915050565b60008060408385031215612f8057600080fd5b600083013567ffffffffffffffff811115612f9a57600080fd5b612fa685828601612d82565b925050602083013567ffffffffffffffff811115612fc357600080fd5b612fcf85828601612d2e565b9150509250929050565b6000612fe58383613363565b60c08301905092915050565b612ffa81613a7b565b82525050565b61300981613a7b565b82525050565b61302061301b82613a7b565b613bf2565b82525050565b600061303182613a1a565b61303b8185613a3d565b935061304683613a0a565b8060005b8381101561307757815161305e8882612fd9565b975061306983613a30565b92505060018101905061304a565b5085935050505092915050565b61308d81613a8d565b82525050565b61309c81613a8d565b82525050565b6130ab81613a99565b82525050565b6130ba81613a99565b82525050565b6130d16130cc82613a99565b613c04565b82525050565b60006130e282613a25565b6130ec8185613a4e565b93506130fc818560208601613ae9565b61310581613cb7565b840191505092915050565b600061311d601883613a5f565b915061312882613cd5565b602082019050919050565b6000613140603783613a5f565b915061314b82613cfe565b604082019050919050565b6000613163601f83613a5f565b915061316e82613d4d565b602082019050919050565b6000613186602683613a5f565b915061319182613d76565b604082019050919050565b60006131a9600283613a70565b91506131b482613dc5565b600282019050919050565b60006131cc602e83613a5f565b91506131d782613dee565b604082019050919050565b60006131ef604483613a5f565b91506131fa82613e3d565b606082019050919050565b6000613212602283613a5f565b915061321d82613eb2565b604082019050919050565b6000613235602d83613a5f565b915061324082613f01565b604082019050919050565b6000613258603583613a5f565b915061326382613f50565b604082019050919050565b600061327b602283613a5f565b915061328682613f9f565b604082019050919050565b600061329e602083613a5f565b91506132a982613fee565b602082019050919050565b60006132c1602e83613a5f565b91506132cc82614017565b604082019050919050565b60006132e4604983613a5f565b91506132ef82614066565b606082019050919050565b6000613307603683613a5f565b9150613312826140db565b604082019050919050565b600061332a603983613a5f565b91506133358261412a565b604082019050919050565b600061334d602583613a5f565b915061335882614179565b604082019050919050565b60c08201600082015161337960008501826130a2565b50602082015161338c6020850182612ff1565b50604082015161339f6040850182612ff1565b5060608201516133b260608501826134c3565b5060808201516133c560808501826134c3565b5060a08201516133d860a0850182613084565b50505050565b60c0820160008201516133f460008501826130a2565b5060208201516134076020850182612ff1565b50604082015161341a6040850182612ff1565b50606082015161342d60608501826134c3565b50608082015161344060808501826134c3565b5060a082015161345360a0850182613084565b50505050565b600060808301600083015161347160008601826130a2565b506020830151848203602086015261348982826130d7565b915050604083015184820360408601526134a382826130d7565b91505060608301516134b86060860182612ff1565b508091505092915050565b6134cc81613ac3565b82525050565b6134db81613ac3565b82525050565b6134f26134ed82613ac3565b613c20565b82525050565b61350181613acd565b82525050565b6000613513828861300f565b601482019150613523828761300f565b60148201915061353382866134e1565b60208201915061354382856134e1565b60208201915061355382846134e1565b6020820191508190509695505050505050565b60006135718261319c565b915061357d82856130c0565b60208201915061358d82846130c0565b6020820191508190509392505050565b60006020820190506135b26000830184613000565b92915050565b60006040820190506135cd6000830185613000565b81810360208301526135df8184613459565b90509392505050565b600060208201905081810360008301526136028184613026565b905092915050565b600060208201905061361f6000830184613093565b92915050565b600060208201905061363a60008301846130b1565b92915050565b600060a08201905061365560008301886130b1565b61366260208301876130b1565b61366f6040830186613000565b61367c60608301856134d2565b61368960808301846130b1565b9695505050505050565b600060a0820190506136a860008301886130b1565b6136b560208301876130b1565b6136c260408301866130b1565b6136cf60608301856134d2565b6136dc6080830184613000565b9695505050505050565b60006080820190506136fb60008301876130b1565b61370860208301866134f8565b61371560408301856130b1565b61372260608301846130b1565b95945050505050565b6000602082019050818103600083015261374481613110565b9050919050565b6000602082019050818103600083015261376481613133565b9050919050565b6000602082019050818103600083015261378481613156565b9050919050565b600060208201905081810360008301526137a481613179565b9050919050565b600060208201905081810360008301526137c4816131bf565b9050919050565b600060208201905081810360008301526137e4816131e2565b9050919050565b6000602082019050818103600083015261380481613205565b9050919050565b6000602082019050818103600083015261382481613228565b9050919050565b600060208201905081810360008301526138448161324b565b9050919050565b600060208201905081810360008301526138648161326e565b9050919050565b6000602082019050818103600083015261388481613291565b9050919050565b600060208201905081810360008301526138a4816132b4565b9050919050565b600060208201905081810360008301526138c4816132d7565b9050919050565b600060208201905081810360008301526138e4816132fa565b9050919050565b600060208201905081810360008301526139048161331d565b9050919050565b6000602082019050818103600083015261392481613340565b9050919050565b600060c08201905061394060008301846133de565b92915050565b600060208201905081810360008301526139608184613459565b905092915050565b600060208201905061397d60008301846134d2565b92915050565b600061398d61399e565b90506139998282613b78565b919050565b6000604051905090565b600067ffffffffffffffff8211156139c3576139c2613c88565b5b6139cc82613cb7565b9050602081019050919050565b600067ffffffffffffffff8211156139f4576139f3613c88565b5b6139fd82613cb7565b9050602081019050919050565b6000819050602082019050919050565b600081519050919050565b600081519050919050565b6000602082019050919050565b600082825260208201905092915050565b600082825260208201905092915050565b600082825260208201905092915050565b600081905092915050565b6000613a8682613aa3565b9050919050565b60008115159050919050565b6000819050919050565b600073ffffffffffffffffffffffffffffffffffffffff82169050919050565b6000819050919050565b600060ff82169050919050565b82818337600083830152505050565b60005b83811015613b07578082015181840152602081019050613aec565b83811115613b16576000848401525b50505050565b6000613b2782613ac3565b91506000821415613b3b57613b3a613c2a565b5b600182039050919050565b60006002820490506001821680613b5e57607f821691505b60208210811415613b7257613b71613c59565b5b50919050565b613b8182613cb7565b810181811067ffffffffffffffff82111715613ba057613b9f613c88565b5b80604052505050565b6000613bb482613ac3565b91507fffffffffffffffffffffffffffffffffffffffffffffffffffffffffffffffff821415613be757613be6613c2a565b5b600182019050919050565b6000613bfd82613c0e565b9050919050565b6000819050919050565b6000613c1982613cc8565b9050919050565b6000819050919050565b7f4e487b7100000000000000000000000000000000000000000000000000000000600052601160045260246000fd5b7f4e487b7100000000000000000000000000000000000000000000000000000000600052602260045260246000fd5b7f4e487b7100000000000000000000000000000000000000000000000000000000600052604160045260246000fd5b6000601f19601f8301169050919050565b60008160601b9050919050565b7f45434453413a20696e76616c6964207369676e61747572650000000000000000600082015250565b7f566572696669636174696f6e52656769737472793a205665726966696361746960008201527f6f6e20636f6e6669726d6174696f6e2065787069726564000000000000000000602082015250565b7f45434453413a20696e76616c6964207369676e6174757265206c656e67746800600082015250565b7f4f776e61626c653a206e6577206f776e657220697320746865207a65726f206160008201527f6464726573730000000000000000000000000000000000000000000000000000602082015250565b7f1901000000000000000000000000000000000000000000000000000000000000600082015250565b7f566572696669636174696f6e52656769737472793a2043616c6c65722069732060008201527f6e6f742061205665726966696572000000000000000000000000000000000000602082015250565b7f566572696669636174696f6e52656769737472793a2043616c6c65722069732060008201527f6e6f7420746865207665726966696572206f662074686520766572696669636160208201527f74696f6e00000000000000000000000000000000000000000000000000000000604082015250565b7f45434453413a20696e76616c6964207369676e6174757265202773272076616c60008201527f7565000000000000000000000000000000000000000000000000000000000000602082015250565b7f566572696669636174696f6e52656769737472793a205665726966696572204160008201527f6464726573732045786973747300000000000000000000000000000000000000602082015250565b7f566572696669636174696f6e52656769737472793a205665726966696572204160008201527f64647265737320446f6573204e6f742045786973740000000000000000000000602082015250565b7f45434453413a20696e76616c6964207369676e6174757265202776272076616c60008201527f7565000000000000000000000000000000000000000000000000000000000000602082015250565b7f4f776e61626c653a2063616c6c6572206973206e6f7420746865206f776e6572600082015250565b7f566572696669636174696f6e52656769737472793a20556e6b6e6f776e20566560008201527f7269666965722041646472657373000000000000000000000000000000000000602082015250565b7f566572696669636174696f6e52656769737472793a2043616c6c65722069732060008201527f6e6f7420746865207665726966696572206f6620746865207265666572656e6360208201527f6564207265636f72640000000000000000000000000000000000000000000000604082015250565b7f566572696669636174696f6e52656769737472793a205369676e65642064696760008201527f6573742063616e6e6f7420626520766572696669656400000000000000000000602082015250565b7f566572696669636174696f6e52656769737472793a2043616c6c65722069732060008201527f6e6f7420746865206f726967696e616c20766572696669657200000000000000602082015250565b7f566572696669636174696f6e52656769737472793a20496e76616c696420616460008201527f6472657373000000000000000000000000000000000000000000000000000000602082015250565b6141d181613a7b565b81146141dc57600080fd5b50565b6141e881613a99565b81146141f357600080fd5b50565b6141ff81613ac3565b811461420a57600080fd5b5056fea2646970667358221220840455a6ce95633d9883c3b8c5d4c27b73ad58d5f7fbb96f319f9ea0e1a68dc864736f6c63430008040033",
  "linkReferences": {},
  "deployedLinkReferences": {}
}