{
  "_format": "hh-sol-artifact-1",
  "contractName": "ThresholdToken",
  "sourceName": "contracts/ThresholdToken.sol",
  "abi": [
    {
      "inputs": [
        {
          "internalType": "uint256",
          "name": "initialSupply",
          "type": "uint256"
        }
      ],
      "stateMutability": "nonpayable",
      "type": "constructor"
    },
    {
      "anonymous": false,
      "inputs": [
        {
          "indexed": true,
          "internalType": "address",
          "name": "owner",
          "type": "address"
        },
        {
          "indexed": true,
          "internalType": "address",
          "name": "spender",
          "type": "address"
        },
        {
          "indexed": false,
          "internalType": "uint256",
          "name": "value",
          "type": "uint256"
        }
      ],
      "name": "Approval",
      "type": "event"
    },
    {
      "anonymous": false,
      "inputs": [
        {
          "indexed": true,
          "internalType": "address",
          "name": "previousOwner",
          "type": "address"
        },
        {
          "indexed": true,
          "internalType": "address",
          "name": "newOwner",
          "type": "address"
        }
      ],
      "name": "OwnershipTransferred",
      "type": "event"
    },
    {
      "anonymous": false,
      "inputs": [
        {
          "indexed": true,
          "internalType": "address",
          "name": "from",
          "type": "address"
        },
        {
          "indexed": true,
          "internalType": "address",
          "name": "to",
          "type": "address"
        },
        {
          "indexed": false,
          "internalType": "uint256",
          "name": "value",
          "type": "uint256"
        }
      ],
      "name": "Transfer",
      "type": "event"
    },
    {
      "anonymous": false,
      "inputs": [
        {
          "indexed": false,
          "internalType": "bytes32",
          "name": "uuid",
          "type": "bytes32"
        }
      ],
      "name": "VerificationRemoved",
      "type": "event"
    },
    {
      "anonymous": false,
      "inputs": [
        {
          "components": [
            {
              "internalType": "bytes32",
              "name": "uuid",
              "type": "bytes32"
            },
            {
              "internalType": "address",
              "name": "verifier",
              "type": "address"
            },
            {
              "internalType": "address",
              "name": "subject",
              "type": "address"
            },
            {
              "internalType": "uint256",
              "name": "entryTime",
              "type": "uint256"
            },
            {
              "internalType": "uint256",
              "name": "expirationTime",
              "type": "uint256"
            },
            {
              "internalType": "bool",
              "name": "revoked",
              "type": "bool"
            }
          ],
          "indexed": false,
          "internalType": "struct VerificationRecord",
          "name": "verificationRecord",
          "type": "tuple"
        }
      ],
      "name": "VerificationResultConfirmed",
      "type": "event"
    },
    {
      "anonymous": false,
      "inputs": [
        {
          "indexed": false,
          "internalType": "bytes32",
          "name": "uuid",
          "type": "bytes32"
        }
      ],
      "name": "VerificationRevoked",
      "type": "event"
    },
    {
      "anonymous": false,
      "inputs": [
        {
          "indexed": false,
          "internalType": "address",
          "name": "verifier",
          "type": "address"
        },
        {
          "components": [
            {
              "internalType": "bytes32",
              "name": "name",
              "type": "bytes32"
            },
            {
              "internalType": "string",
              "name": "did",
              "type": "string"
            },
            {
              "internalType": "string",
              "name": "url",
              "type": "string"
            },
            {
              "internalType": "address",
              "name": "signer",
              "type": "address"
            }
          ],
          "indexed": false,
          "internalType": "struct VerifierInfo",
          "name": "verifierInfo",
          "type": "tuple"
        }
      ],
      "name": "VerifierAdded",
      "type": "event"
    },
    {
      "anonymous": false,
      "inputs": [
        {
          "indexed": false,
          "internalType": "address",
          "name": "verifier",
          "type": "address"
        }
      ],
      "name": "VerifierRemoved",
      "type": "event"
    },
    {
      "anonymous": false,
      "inputs": [
        {
          "indexed": false,
          "internalType": "address",
          "name": "verifier",
          "type": "address"
        },
        {
          "components": [
            {
              "internalType": "bytes32",
              "name": "name",
              "type": "bytes32"
            },
            {
              "internalType": "string",
              "name": "did",
              "type": "string"
            },
            {
              "internalType": "string",
              "name": "url",
              "type": "string"
            },
            {
              "internalType": "address",
              "name": "signer",
              "type": "address"
            }
          ],
          "indexed": false,
          "internalType": "struct VerifierInfo",
          "name": "verifierInfo",
          "type": "tuple"
        }
      ],
      "name": "VerifierUpdated",
      "type": "event"
    },
    {
      "inputs": [
        {
          "internalType": "address",
          "name": "verifierAddress",
          "type": "address"
        },
        {
          "components": [
            {
              "internalType": "bytes32",
              "name": "name",
              "type": "bytes32"
            },
            {
              "internalType": "string",
              "name": "did",
              "type": "string"
            },
            {
              "internalType": "string",
              "name": "url",
              "type": "string"
            },
            {
              "internalType": "address",
              "name": "signer",
              "type": "address"
            }
          ],
          "internalType": "struct VerifierInfo",
          "name": "verifierInfo",
          "type": "tuple"
        }
      ],
      "name": "addVerifier",
      "outputs": [],
      "stateMutability": "nonpayable",
      "type": "function"
    },
    {
      "inputs": [
        {
          "internalType": "address",
          "name": "owner",
          "type": "address"
        },
        {
          "internalType": "address",
          "name": "spender",
          "type": "address"
        }
      ],
      "name": "allowance",
      "outputs": [
        {
          "internalType": "uint256",
          "name": "",
          "type": "uint256"
        }
      ],
      "stateMutability": "view",
      "type": "function"
    },
    {
      "inputs": [
        {
          "internalType": "address",
          "name": "spender",
          "type": "address"
        },
        {
          "internalType": "uint256",
          "name": "amount",
          "type": "uint256"
        }
      ],
      "name": "approve",
      "outputs": [
        {
          "internalType": "bool",
          "name": "",
          "type": "bool"
        }
      ],
      "stateMutability": "nonpayable",
      "type": "function"
    },
    {
      "inputs": [
        {
          "internalType": "address",
          "name": "account",
          "type": "address"
        }
      ],
      "name": "balanceOf",
      "outputs": [
        {
          "internalType": "uint256",
          "name": "",
          "type": "uint256"
        }
      ],
      "stateMutability": "view",
      "type": "function"
    },
    {
      "inputs": [],
      "name": "decimals",
      "outputs": [
        {
          "internalType": "uint8",
          "name": "",
          "type": "uint8"
        }
      ],
      "stateMutability": "view",
      "type": "function"
    },
    {
      "inputs": [
        {
          "internalType": "address",
          "name": "spender",
          "type": "address"
        },
        {
          "internalType": "uint256",
          "name": "subtractedValue",
          "type": "uint256"
        }
      ],
      "name": "decreaseAllowance",
      "outputs": [
        {
          "internalType": "bool",
          "name": "",
          "type": "bool"
        }
      ],
      "stateMutability": "nonpayable",
      "type": "function"
    },
    {
      "inputs": [],
      "name": "getThreshold",
      "outputs": [
        {
          "internalType": "uint256",
          "name": "",
          "type": "uint256"
        }
      ],
      "stateMutability": "view",
      "type": "function"
    },
    {
      "inputs": [
        {
          "internalType": "bytes32",
          "name": "uuid",
          "type": "bytes32"
        }
      ],
      "name": "getVerification",
      "outputs": [
        {
          "components": [
            {
              "internalType": "bytes32",
              "name": "uuid",
              "type": "bytes32"
            },
            {
              "internalType": "address",
              "name": "verifier",
              "type": "address"
            },
            {
              "internalType": "address",
              "name": "subject",
              "type": "address"
            },
            {
              "internalType": "uint256",
              "name": "entryTime",
              "type": "uint256"
            },
            {
              "internalType": "uint256",
              "name": "expirationTime",
              "type": "uint256"
            },
            {
              "internalType": "bool",
              "name": "revoked",
              "type": "bool"
            }
          ],
          "internalType": "struct VerificationRecord",
          "name": "",
          "type": "tuple"
        }
      ],
      "stateMutability": "view",
      "type": "function"
    },
    {
      "inputs": [],
      "name": "getVerificationCount",
      "outputs": [
        {
          "internalType": "uint256",
          "name": "",
          "type": "uint256"
        }
      ],
      "stateMutability": "view",
      "type": "function"
    },
    {
      "inputs": [
        {
          "internalType": "address",
          "name": "subject",
          "type": "address"
        }
      ],
      "name": "getVerificationsForSubject",
      "outputs": [
        {
          "components": [
            {
              "internalType": "bytes32",
              "name": "uuid",
              "type": "bytes32"
            },
            {
              "internalType": "address",
              "name": "verifier",
              "type": "address"
            },
            {
              "internalType": "address",
              "name": "subject",
              "type": "address"
            },
            {
              "internalType": "uint256",
              "name": "entryTime",
              "type": "uint256"
            },
            {
              "internalType": "uint256",
              "name": "expirationTime",
              "type": "uint256"
            },
            {
              "internalType": "bool",
              "name": "revoked",
              "type": "bool"
            }
          ],
          "internalType": "struct VerificationRecord[]",
          "name": "",
          "type": "tuple[]"
        }
      ],
      "stateMutability": "view",
      "type": "function"
    },
    {
      "inputs": [
        {
          "internalType": "address",
          "name": "verifier",
          "type": "address"
        }
      ],
      "name": "getVerificationsForVerifier",
      "outputs": [
        {
          "components": [
            {
              "internalType": "bytes32",
              "name": "uuid",
              "type": "bytes32"
            },
            {
              "internalType": "address",
              "name": "verifier",
              "type": "address"
            },
            {
              "internalType": "address",
              "name": "subject",
              "type": "address"
            },
            {
              "internalType": "uint256",
              "name": "entryTime",
              "type": "uint256"
            },
            {
              "internalType": "uint256",
              "name": "expirationTime",
              "type": "uint256"
            },
            {
              "internalType": "bool",
              "name": "revoked",
              "type": "bool"
            }
          ],
          "internalType": "struct VerificationRecord[]",
          "name": "",
          "type": "tuple[]"
        }
      ],
      "stateMutability": "view",
      "type": "function"
    },
    {
      "inputs": [
        {
          "internalType": "address",
          "name": "verifierAddress",
          "type": "address"
        }
      ],
      "name": "getVerifier",
      "outputs": [
        {
          "components": [
            {
              "internalType": "bytes32",
              "name": "name",
              "type": "bytes32"
            },
            {
              "internalType": "string",
              "name": "did",
              "type": "string"
            },
            {
              "internalType": "string",
              "name": "url",
              "type": "string"
            },
            {
              "internalType": "address",
              "name": "signer",
              "type": "address"
            }
          ],
          "internalType": "struct VerifierInfo",
          "name": "",
          "type": "tuple"
        }
      ],
      "stateMutability": "view",
      "type": "function"
    },
    {
      "inputs": [],
      "name": "getVerifierCount",
      "outputs": [
        {
          "internalType": "uint256",
          "name": "",
          "type": "uint256"
        }
      ],
      "stateMutability": "view",
      "type": "function"
    },
    {
      "inputs": [
        {
          "internalType": "address",
          "name": "spender",
          "type": "address"
        },
        {
          "internalType": "uint256",
          "name": "addedValue",
          "type": "uint256"
        }
      ],
      "name": "increaseAllowance",
      "outputs": [
        {
          "internalType": "bool",
          "name": "",
          "type": "bool"
        }
      ],
      "stateMutability": "nonpayable",
      "type": "function"
    },
    {
      "inputs": [
        {
          "internalType": "address",
          "name": "subject",
          "type": "address"
        }
      ],
      "name": "isVerified",
      "outputs": [
        {
          "internalType": "bool",
          "name": "",
          "type": "bool"
        }
      ],
      "stateMutability": "view",
      "type": "function"
    },
    {
      "inputs": [
        {
          "internalType": "address",
          "name": "account",
          "type": "address"
        }
      ],
      "name": "isVerifier",
      "outputs": [
        {
          "internalType": "bool",
          "name": "",
          "type": "bool"
        }
      ],
      "stateMutability": "view",
      "type": "function"
    },
    {
      "inputs": [],
      "name": "name",
      "outputs": [
        {
          "internalType": "string",
          "name": "",
          "type": "string"
        }
      ],
      "stateMutability": "view",
      "type": "function"
    },
    {
      "inputs": [],
      "name": "owner",
      "outputs": [
        {
          "internalType": "address",
          "name": "",
          "type": "address"
        }
      ],
      "stateMutability": "view",
      "type": "function"
    },
    {
      "inputs": [
        {
          "components": [
            {
              "internalType": "string",
              "name": "schema",
              "type": "string"
            },
            {
              "internalType": "address",
              "name": "subject",
              "type": "address"
            },
            {
              "internalType": "uint256",
              "name": "expiration",
              "type": "uint256"
            }
          ],
          "internalType": "struct VerificationResult",
          "name": "verificationResult",
          "type": "tuple"
        },
        {
          "internalType": "bytes",
          "name": "signature",
          "type": "bytes"
        }
      ],
      "name": "registerVerification",
      "outputs": [
        {
          "components": [
            {
              "internalType": "bytes32",
              "name": "uuid",
              "type": "bytes32"
            },
            {
              "internalType": "address",
              "name": "verifier",
              "type": "address"
            },
            {
              "internalType": "address",
              "name": "subject",
              "type": "address"
            },
            {
              "internalType": "uint256",
              "name": "entryTime",
              "type": "uint256"
            },
            {
              "internalType": "uint256",
              "name": "expirationTime",
              "type": "uint256"
            },
            {
              "internalType": "bool",
              "name": "revoked",
              "type": "bool"
            }
          ],
          "internalType": "struct VerificationRecord",
          "name": "",
          "type": "tuple"
        }
      ],
      "stateMutability": "nonpayable",
      "type": "function"
    },
    {
      "inputs": [
        {
          "internalType": "bytes32",
          "name": "uuid",
          "type": "bytes32"
        }
      ],
      "name": "removeVerification",
      "outputs": [],
      "stateMutability": "nonpayable",
      "type": "function"
    },
    {
      "inputs": [
        {
          "internalType": "address",
          "name": "verifierAddress",
          "type": "address"
        }
      ],
      "name": "removeVerifier",
      "outputs": [],
      "stateMutability": "nonpayable",
      "type": "function"
    },
    {
      "inputs": [],
      "name": "renounceOwnership",
      "outputs": [],
      "stateMutability": "nonpayable",
      "type": "function"
    },
    {
      "inputs": [
        {
          "internalType": "bytes32",
          "name": "uuid",
          "type": "bytes32"
        }
      ],
      "name": "revokeVerification",
      "outputs": [],
      "stateMutability": "nonpayable",
      "type": "function"
    },
    {
      "inputs": [
        {
          "internalType": "uint256",
          "name": "t",
          "type": "uint256"
        }
      ],
      "name": "setThreshold",
      "outputs": [],
      "stateMutability": "nonpayable",
      "type": "function"
    },
    {
      "inputs": [],
      "name": "symbol",
      "outputs": [
        {
          "internalType": "string",
          "name": "",
          "type": "string"
        }
      ],
      "stateMutability": "view",
      "type": "function"
    },
    {
      "inputs": [],
      "name": "totalSupply",
      "outputs": [
        {
          "internalType": "uint256",
          "name": "",
          "type": "uint256"
        }
      ],
      "stateMutability": "view",
      "type": "function"
    },
    {
      "inputs": [
        {
          "internalType": "address",
          "name": "recipient",
          "type": "address"
        },
        {
          "internalType": "uint256",
          "name": "amount",
          "type": "uint256"
        }
      ],
      "name": "transfer",
      "outputs": [
        {
          "internalType": "bool",
          "name": "",
          "type": "bool"
        }
      ],
      "stateMutability": "nonpayable",
      "type": "function"
    },
    {
      "inputs": [
        {
          "internalType": "address",
          "name": "sender",
          "type": "address"
        },
        {
          "internalType": "address",
          "name": "recipient",
          "type": "address"
        },
        {
          "internalType": "uint256",
          "name": "amount",
          "type": "uint256"
        }
      ],
      "name": "transferFrom",
      "outputs": [
        {
          "internalType": "bool",
          "name": "",
          "type": "bool"
        }
      ],
      "stateMutability": "nonpayable",
      "type": "function"
    },
    {
      "inputs": [
        {
          "internalType": "address",
          "name": "newOwner",
          "type": "address"
        }
      ],
      "name": "transferOwnership",
      "outputs": [],
      "stateMutability": "nonpayable",
      "type": "function"
    },
    {
      "inputs": [
        {
          "internalType": "address",
          "name": "verifierAddress",
          "type": "address"
        },
        {
          "components": [
            {
              "internalType": "bytes32",
              "name": "name",
              "type": "bytes32"
            },
            {
              "internalType": "string",
              "name": "did",
              "type": "string"
            },
            {
              "internalType": "string",
              "name": "url",
              "type": "string"
            },
            {
              "internalType": "address",
              "name": "signer",
              "type": "address"
            }
          ],
          "internalType": "struct VerifierInfo",
          "name": "verifierInfo",
          "type": "tuple"
        }
      ],
      "name": "updateVerifier",
      "outputs": [],
      "stateMutability": "nonpayable",
      "type": "function"
    },
    {
      "inputs": [
        {
          "internalType": "address",
          "name": "to",
          "type": "address"
        },
        {
          "internalType": "uint256",
          "name": "amount",
          "type": "uint256"
        },
        {
          "components": [
            {
              "internalType": "string",
              "name": "schema",
              "type": "string"
            },
            {
              "internalType": "address",
              "name": "subject",
              "type": "address"
            },
            {
              "internalType": "uint256",
              "name": "expiration",
              "type": "uint256"
            }
          ],
          "internalType": "struct VerificationResult",
          "name": "verificationResult",
          "type": "tuple"
        },
        {
          "internalType": "bytes",
          "name": "signature",
          "type": "bytes"
        }
      ],
      "name": "validateAndTransfer",
      "outputs": [],
      "stateMutability": "nonpayable",
      "type": "function"
    }
  ],
  "bytecode": "0x610120604052600a600d553480156200001757600080fd5b50604051620064793803806200647983398181016040528101906200003d9190620006ff565b6040518060400160405280601481526020017f566572696669636174696f6e52656769737472790000000000000000000000008152506040518060400160405280600381526020017f312e3000000000000000000000000000000000000000000000000000000000008152506040518060400160405280601681526020017f5468726573686f6c64204578616d706c6520436f696e000000000000000000008152506040518060400160405280600581526020017f544855534400000000000000000000000000000000000000000000000000000081525081600390805190602001906200012d929190620005f5565b50806004908051906020019062000146929190620005f5565b505050620001696200015d620001ff60201b60201c565b6200020760201b60201c565b60008280519060200120905060008280519060200120905060007f8b73c3c69bb8fe3d512ecc4cf759cc79239f7b179b0ffacaa9a75d522b39400f90508260c081815250508160e081815250504660a08181525050620001d1818484620002cd60201b60201c565b608081815250508061010081815250505050505050620001f833826200030960201b60201c565b5062000aaf565b600033905090565b6000600560009054906101000a900473ffffffffffffffffffffffffffffffffffffffff16905081600560006101000a81548173ffffffffffffffffffffffffffffffffffffffff021916908373ffffffffffffffffffffffffffffffffffffffff1602179055508173ffffffffffffffffffffffffffffffffffffffff168173ffffffffffffffffffffffffffffffffffffffff167f8be0079c531659141344cd1fd0a4f28419497f9722a3daafe3b4186f6b6457e060405160405180910390a35050565b60008383834630604051602001620002ea959493929190620007c9565b6040516020818303038152906040528051906020012090509392505050565b600073ffffffffffffffffffffffffffffffffffffffff168273ffffffffffffffffffffffffffffffffffffffff1614156200037c576040517f08c379a0000000000000000000000000000000000000000000000000000000008152600401620003739062000848565b60405180910390fd5b62000390600083836200048260201b60201c565b8060026000828254620003a4919062000898565b92505081905550806000808473ffffffffffffffffffffffffffffffffffffffff1673ffffffffffffffffffffffffffffffffffffffff1681526020019081526020016000206000828254620003fb919062000898565b925050819055508173ffffffffffffffffffffffffffffffffffffffff16600073ffffffffffffffffffffffffffffffffffffffff167fddf252ad1be2c89b69c2b068fc378daa952ba7f163c4a11628f55a4df523b3ef836040516200046291906200086a565b60405180910390a36200047e60008383620005c160201b60201c565b5050565b6200049a838383620005c660201b620027d81760201c565b3373ffffffffffffffffffffffffffffffffffffffff16620004c1620005cb60201b60201c565b73ffffffffffffffffffffffffffffffffffffffff1614620005bc57600d548110806200057957503073ffffffffffffffffffffffffffffffffffffffff1663b9209e33846040518263ffffffff1660e01b8152600401620005249190620007ac565b60206040518083038186803b1580156200053d57600080fd5b505afa15801562000552573d6000803e3d6000fd5b505050506040513d601f19601f82011682018060405250810190620005789190620006d3565b5b620005bb576040517f08c379a0000000000000000000000000000000000000000000000000000000008152600401620005b29062000826565b60405180910390fd5b5b505050565b505050565b505050565b6000600560009054906101000a900473ffffffffffffffffffffffffffffffffffffffff16905090565b828054620006039062000949565b90600052602060002090601f01602090048101928262000627576000855562000673565b82601f106200064257805160ff191683800117855562000673565b8280016001018555821562000673579182015b828111156200067257825182559160200191906001019062000655565b5b50905062000682919062000686565b5090565b5b80821115620006a157600081600090555060010162000687565b5090565b600081519050620006b68162000a7b565b92915050565b600081519050620006cd8162000a95565b92915050565b600060208284031215620006e657600080fd5b6000620006f684828501620006a5565b91505092915050565b6000602082840312156200071257600080fd5b60006200072284828501620006bc565b91505092915050565b6200073681620008f5565b82525050565b620007478162000915565b82525050565b60006200075c60448362000887565b91506200076982620009dd565b606082019050919050565b600062000783601f8362000887565b9150620007908262000a52565b602082019050919050565b620007a6816200093f565b82525050565b6000602082019050620007c360008301846200072b565b92915050565b600060a082019050620007e060008301886200073c565b620007ef60208301876200073c565b620007fe60408301866200073c565b6200080d60608301856200079b565b6200081c60808301846200072b565b9695505050505050565b6000602082019050818103600083015262000841816200074d565b9050919050565b60006020820190508181036000830152620008638162000774565b9050919050565b60006020820190506200088160008301846200079b565b92915050565b600082825260208201905092915050565b6000620008a5826200093f565b9150620008b2836200093f565b9250827fffffffffffffffffffffffffffffffffffffffffffffffffffffffffffffffff03821115620008ea57620008e96200097f565b5b828201905092915050565b600062000902826200091f565b9050919050565b60008115159050919050565b6000819050919050565b600073ffffffffffffffffffffffffffffffffffffffff82169050919050565b6000819050919050565b600060028204905060018216806200096257607f821691505b60208210811415620009795762000978620009ae565b5b50919050565b7f4e487b7100000000000000000000000000000000000000000000000000000000600052601160045260246000fd5b7f4e487b7100000000000000000000000000000000000000000000000000000000600052602260045260246000fd5b7f5468726573686f6c64546f6b656e3a205472616e7366657273206f662074686960008201527f7320616d6f756e7420726571756972652073656e64657220766572696669636160208201527f74696f6e00000000000000000000000000000000000000000000000000000000604082015250565b7f45524332303a206d696e7420746f20746865207a65726f206164647265737300600082015250565b62000a868162000909565b811462000a9257600080fd5b50565b62000aa0816200093f565b811462000aac57600080fd5b50565b60805160a05160c05160e0516101005161598562000af4600039600061344b0152600061348d0152600061346c015260006133f80152600061342001526159856000f3fe608060405234801561001057600080fd5b50600436106101e55760003560e01c8063715018a61161010f578063a9059cbb116100a2578063dd62ed3e11610071578063dd62ed3e146105ca578063e75235b8146105fa578063ed2ffd2814610618578063f2fde38b14610648576101e5565b8063a9059cbb14610530578063b9209e3314610560578063b9c688a714610590578063ca2dfd0a146105ae576101e5565b806395d89b41116100de57806395d89b41146104aa578063960bfe04146104c857806399cf1a1d146104e4578063a457c2d714610500576101e5565b8063715018a6146104365780638da5cb5b146104405780638f38f8721461045e57806394ef24401461047a576101e5565b806323b872dd11610187578063417469a711610156578063417469a7146103b25780634e4de26d146103ce57806370a08231146103ea57806370eba1241461041a576101e5565b806323b872dd14610304578063313ce5671461033457806333105218146103525780633950935114610382576101e5565b80630e9e848f116101c35780630e9e848f1461026857806315e5ec2b1461029857806318160ddd146102c85780631f05b374146102e6576101e5565b8063059ce95d146101ea57806306fdde031461021a578063095ea7b314610238575b600080fd5b61020460048036038101906101ff9190613e32565b610664565b6040516102119190614d13565b60405180910390f35b6102226108c9565b60405161022f91906149b6565b60405180910390f35b610252600480360381019061024d9190613f3a565b61095b565b60405161025f9190614895565b60405180910390f35b610282600480360381019061027d9190613e32565b610979565b60405161028f9190614873565b60405180910390f35b6102b260048036038101906102ad919061405b565b610cb3565b6040516102bf9190614cf8565b60405180910390f35b6102d0610e16565b6040516102dd9190614d35565b60405180910390f35b6102ee610e20565b6040516102fb9190614d35565b60405180910390f35b61031e60048036038101906103199190613e97565b610e2a565b60405161032b9190614895565b60405180910390f35b61033c610f22565b6040516103499190614d50565b60405180910390f35b61036c60048036038101906103679190613e32565b610f2b565b6040516103799190614895565b60405180910390f35b61039c60048036038101906103979190613f3a565b610f7d565b6040516103a99190614895565b60405180910390f35b6103cc60048036038101906103c79190613ee6565b611029565b005b6103e860048036038101906103e39190614032565b6112ba565b005b61040460048036038101906103ff9190613e32565b6114b0565b6040516104119190614d35565b60405180910390f35b610434600480360381019061042f9190614032565b6114f8565b005b61043e61168d565b005b610448611715565b6040516104559190614828565b60405180910390f35b61047860048036038101906104739190613f76565b61173f565b005b610494600480360381019061048f9190614032565b6117e9565b6040516104a19190614cf8565b60405180910390f35b6104b26118fb565b6040516104bf91906149b6565b60405180910390f35b6104e260048036038101906104dd91906140c7565b61198d565b005b6104fe60048036038101906104f99190613ee6565b611a13565b005b61051a60048036038101906105159190613f3a565b611cbb565b6040516105279190614895565b60405180910390f35b61054a60048036038101906105459190613f3a565b611da6565b6040516105579190614895565b60405180910390f35b61057a60048036038101906105759190613e32565b611dc4565b6040516105879190614895565b60405180910390f35b610598612060565b6040516105a59190614d35565b60405180910390f35b6105c860048036038101906105c39190613e32565b61206a565b005b6105e460048036038101906105df9190613e5b565b612315565b6040516105f19190614d35565b60405180910390f35b61060261239c565b60405161060f9190614d35565b60405180910390f35b610632600480360381019061062d9190613e32565b6123a6565b60405161063f9190614873565b60405180910390f35b610662600480360381019061065d9190613e32565b6126e0565b005b61066c613a53565b6000801b600660008473ffffffffffffffffffffffffffffffffffffffff1673ffffffffffffffffffffffffffffffffffffffff1681526020019081526020016000206000015414156106f4576040517f08c379a00000000000000000000000000000000000000000000000000000000081526004016106eb90614bf8565b60405180910390fd5b600660008373ffffffffffffffffffffffffffffffffffffffff1673ffffffffffffffffffffffffffffffffffffffff1681526020019081526020016000206040518060800160405290816000820154815260200160018201805461075890614f84565b80601f016020809104026020016040519081016040528092919081815260200182805461078490614f84565b80156107d15780601f106107a6576101008083540402835291602001916107d1565b820191906000526020600020905b8154815290600101906020018083116107b457829003601f168201915b505050505081526020016002820180546107ea90614f84565b80601f016020809104026020016040519081016040528092919081815260200182805461081690614f84565b80156108635780601f1061083857610100808354040283529160200191610863565b820191906000526020600020905b81548152906001019060200180831161084657829003601f168201915b505050505081526020016003820160009054906101000a900473ffffffffffffffffffffffffffffffffffffffff1673ffffffffffffffffffffffffffffffffffffffff1673ffffffffffffffffffffffffffffffffffffffff16815250509050919050565b6060600380546108d890614f84565b80601f016020809104026020016040519081016040528092919081815260200182805461090490614f84565b80156109515780601f1061092657610100808354040283529160200191610951565b820191906000526020600020905b81548152906001019060200180831161093457829003601f168201915b5050505050905090565b600061096f6109686127dd565b84846127e5565b6001905092915050565b6060600073ffffffffffffffffffffffffffffffffffffffff168273ffffffffffffffffffffffffffffffffffffffff1614156109eb576040517f08c379a00000000000000000000000000000000000000000000000000000000081526004016109e290614cb8565b60405180910390fd5b6000600b60008473ffffffffffffffffffffffffffffffffffffffff1673ffffffffffffffffffffffffffffffffffffffff168152602001908152602001600020805480602002602001604051908101604052809291908181526020018280548015610a7657602002820191906000526020600020905b815481526020019060010190808311610a62575b505050505090506000815167ffffffffffffffff811115610ac0577f4e487b7100000000000000000000000000000000000000000000000000000000600052604160045260246000fd5b604051908082528060200260200182016040528015610af957816020015b610ae6613a94565b815260200190600190039081610ade5790505b50905060005b8251811015610ca857600060096000858481518110610b47577f4e487b7100000000000000000000000000000000000000000000000000000000600052603260045260246000fd5b602002602001015181526020019081526020016000206040518060c0016040529081600082015481526020016001820160009054906101000a900473ffffffffffffffffffffffffffffffffffffffff1673ffffffffffffffffffffffffffffffffffffffff1673ffffffffffffffffffffffffffffffffffffffff1681526020016002820160009054906101000a900473ffffffffffffffffffffffffffffffffffffffff1673ffffffffffffffffffffffffffffffffffffffff1673ffffffffffffffffffffffffffffffffffffffff16815260200160038201548152602001600482015481526020016005820160009054906101000a900460ff161515151581525050905080838381518110610c89577f4e487b7100000000000000000000000000000000000000000000000000000000600052603260045260246000fd5b6020026020010181905250508080610ca090614fe7565b915050610aff565b508092505050919050565b610cbb613a94565b6000801b600660003373ffffffffffffffffffffffffffffffffffffffff1673ffffffffffffffffffffffffffffffffffffffff168152602001908152602001600020600001541415610d43576040517f08c379a0000000000000000000000000000000000000000000000000000000008152600401610d3a90614ab8565b60405180910390fd5b610d4c836129b0565b6000610d5884846129b3565b90503373ffffffffffffffffffffffffffffffffffffffff16816020015173ffffffffffffffffffffffffffffffffffffffff1614610dcc576040517f08c379a0000000000000000000000000000000000000000000000000000000008152600401610dc390614ad8565b60405180910390fd5b610dd581612c45565b7fb13e5e7efcce7bbc67740f0fe050563d4fd1f5cc7096c3a32cb901711c95ab5481604051610e049190614cf8565b60405180910390a18091505092915050565b6000600254905090565b6000600854905090565b6000610e37848484612e23565b6000600160008673ffffffffffffffffffffffffffffffffffffffff1673ffffffffffffffffffffffffffffffffffffffff1681526020019081526020016000206000610e826127dd565b73ffffffffffffffffffffffffffffffffffffffff1673ffffffffffffffffffffffffffffffffffffffff16815260200190815260200160002054905082811015610f02576040517f08c379a0000000000000000000000000000000000000000000000000000000008152600401610ef990614bb8565b60405180910390fd5b610f1685610f0e6127dd565b8584036127e5565b60019150509392505050565b60006012905090565b60008060001b600660008473ffffffffffffffffffffffffffffffffffffffff1673ffffffffffffffffffffffffffffffffffffffff1681526020019081526020016000206000015414159050919050565b600061101f610f8a6127dd565b848460016000610f986127dd565b73ffffffffffffffffffffffffffffffffffffffff1673ffffffffffffffffffffffffffffffffffffffff16815260200190815260200160002060008873ffffffffffffffffffffffffffffffffffffffff1673ffffffffffffffffffffffffffffffffffffffff1681526020019081526020016000205461101a9190614e63565b6127e5565b6001905092915050565b6110316127dd565b73ffffffffffffffffffffffffffffffffffffffff1661104f611715565b73ffffffffffffffffffffffffffffffffffffffff16146110a5576040517f08c379a000000000000000000000000000000000000000000000000000000000815260040161109c90614bd8565b60405180910390fd5b6000801b600660008473ffffffffffffffffffffffffffffffffffffffff1673ffffffffffffffffffffffffffffffffffffffff16815260200190815260200160002060000154141561112d576040517f08c379a000000000000000000000000000000000000000000000000000000000815260040161112490614bf8565b60405180910390fd5b80600660008473ffffffffffffffffffffffffffffffffffffffff1673ffffffffffffffffffffffffffffffffffffffff168152602001908152602001600020600082015181600001556020820151816001019080519060200190611193929190613afb565b5060408201518160020190805190602001906111b0929190613afb565b5060608201518160030160006101000a81548173ffffffffffffffffffffffffffffffffffffffff021916908373ffffffffffffffffffffffffffffffffffffffff1602179055509050508160076000836060015173ffffffffffffffffffffffffffffffffffffffff1673ffffffffffffffffffffffffffffffffffffffff16815260200190815260200160002060006101000a81548173ffffffffffffffffffffffffffffffffffffffff021916908373ffffffffffffffffffffffffffffffffffffffff1602179055507fcf8ca726ba9d58efa48fa96d3184c211fcce84e8b5e9a3c83c10c1ba9fd392c682826040516112ae929190614843565b60405180910390a15050565b6000801b600660003373ffffffffffffffffffffffffffffffffffffffff1673ffffffffffffffffffffffffffffffffffffffff168152602001908152602001600020600001541415611342576040517f08c379a000000000000000000000000000000000000000000000000000000000815260040161133990614ab8565b60405180910390fd5b3373ffffffffffffffffffffffffffffffffffffffff166009600083815260200190815260200160002060010160009054906101000a900473ffffffffffffffffffffffffffffffffffffffff1673ffffffffffffffffffffffffffffffffffffffff16146113e6576040517f08c379a00000000000000000000000000000000000000000000000000000000081526004016113dd90614c18565b60405180910390fd5b600960008281526020019081526020016000206000808201600090556001820160006101000a81549073ffffffffffffffffffffffffffffffffffffffff02191690556002820160006101000a81549073ffffffffffffffffffffffffffffffffffffffff0219169055600382016000905560048201600090556005820160006101000a81549060ff021916905550507f9abf56d49e4ef717f3418600d3ed66048ca2ed8e3e630a70b76a71dd2142def5816040516114a591906148b0565b60405180910390a150565b60008060008373ffffffffffffffffffffffffffffffffffffffff1673ffffffffffffffffffffffffffffffffffffffff168152602001908152602001600020549050919050565b6000801b600660003373ffffffffffffffffffffffffffffffffffffffff1673ffffffffffffffffffffffffffffffffffffffff168152602001908152602001600020600001541415611580576040517f08c379a000000000000000000000000000000000000000000000000000000000815260040161157790614ab8565b60405180910390fd5b3373ffffffffffffffffffffffffffffffffffffffff166009600083815260200190815260200160002060010160009054906101000a900473ffffffffffffffffffffffffffffffffffffffff1673ffffffffffffffffffffffffffffffffffffffff1614611624576040517f08c379a000000000000000000000000000000000000000000000000000000000815260040161161b90614c78565b60405180910390fd5b60016009600083815260200190815260200160002060050160006101000a81548160ff0219169083151502179055507f071ad1bb208a373a52e72fe5d8aa7755d658f88e197e666bf1a6d09d0ddb50568160405161168291906148b0565b60405180910390a150565b6116956127dd565b73ffffffffffffffffffffffffffffffffffffffff166116b3611715565b73ffffffffffffffffffffffffffffffffffffffff1614611709576040517f08c379a000000000000000000000000000000000000000000000000000000000815260040161170090614bd8565b60405180910390fd5b61171360006130a4565b565b6000600560009054906101000a900473ffffffffffffffffffffffffffffffffffffffff16905090565b3073ffffffffffffffffffffffffffffffffffffffff1663b9209e33336040518263ffffffff1660e01b81526004016117789190614828565b60206040518083038186803b15801561179057600080fd5b505afa1580156117a4573d6000803e3d6000fd5b505050506040513d601f19601f820116820180604052508101906117c89190614009565b6117d8576117d6828261316a565b505b6117e28484611da6565b5050505050565b6117f1613a94565b600960008381526020019081526020016000206040518060c0016040529081600082015481526020016001820160009054906101000a900473ffffffffffffffffffffffffffffffffffffffff1673ffffffffffffffffffffffffffffffffffffffff1673ffffffffffffffffffffffffffffffffffffffff1681526020016002820160009054906101000a900473ffffffffffffffffffffffffffffffffffffffff1673ffffffffffffffffffffffffffffffffffffffff1673ffffffffffffffffffffffffffffffffffffffff16815260200160038201548152602001600482015481526020016005820160009054906101000a900460ff1615151515815250509050919050565b60606004805461190a90614f84565b80601f016020809104026020016040519081016040528092919081815260200182805461193690614f84565b80156119835780601f1061195857610100808354040283529160200191611983565b820191906000526020600020905b81548152906001019060200180831161196657829003601f168201915b5050505050905090565b6119956127dd565b73ffffffffffffffffffffffffffffffffffffffff166119b3611715565b73ffffffffffffffffffffffffffffffffffffffff1614611a09576040517f08c379a0000000000000000000000000000000000000000000000000000000008152600401611a0090614bd8565b60405180910390fd5b80600d8190555050565b611a1b6127dd565b73ffffffffffffffffffffffffffffffffffffffff16611a39611715565b73ffffffffffffffffffffffffffffffffffffffff1614611a8f576040517f08c379a0000000000000000000000000000000000000000000000000000000008152600401611a8690614bd8565b60405180910390fd5b6000801b600660008473ffffffffffffffffffffffffffffffffffffffff1673ffffffffffffffffffffffffffffffffffffffff1681526020019081526020016000206000015414611b16576040517f08c379a0000000000000000000000000000000000000000000000000000000008152600401611b0d90614b38565b60405180910390fd5b80600660008473ffffffffffffffffffffffffffffffffffffffff1673ffffffffffffffffffffffffffffffffffffffff168152602001908152602001600020600082015181600001556020820151816001019080519060200190611b7c929190613afb565b506040820151816002019080519060200190611b99929190613afb565b5060608201518160030160006101000a81548173ffffffffffffffffffffffffffffffffffffffff021916908373ffffffffffffffffffffffffffffffffffffffff1602179055509050508160076000836060015173ffffffffffffffffffffffffffffffffffffffff1673ffffffffffffffffffffffffffffffffffffffff16815260200190815260200160002060006101000a81548173ffffffffffffffffffffffffffffffffffffffff021916908373ffffffffffffffffffffffffffffffffffffffff16021790555060086000815480929190611c7990614fe7565b91905055507f57fdb74cb7ec2177b327961b74feef54dcb8102656cf6484ea992a84eb1bb4d08282604051611caf929190614843565b60405180910390a15050565b60008060016000611cca6127dd565b73ffffffffffffffffffffffffffffffffffffffff1673ffffffffffffffffffffffffffffffffffffffff16815260200190815260200160002060008573ffffffffffffffffffffffffffffffffffffffff1673ffffffffffffffffffffffffffffffffffffffff16815260200190815260200160002054905082811015611d87576040517f08c379a0000000000000000000000000000000000000000000000000000000008152600401611d7e90614cd8565b60405180910390fd5b611d9b611d926127dd565b858584036127e5565b600191505092915050565b6000611dba611db36127dd565b8484612e23565b6001905092915050565b60008073ffffffffffffffffffffffffffffffffffffffff168273ffffffffffffffffffffffffffffffffffffffff161415611e35576040517f08c379a0000000000000000000000000000000000000000000000000000000008152600401611e2c90614cb8565b60405180910390fd5b6000600a60008473ffffffffffffffffffffffffffffffffffffffff1673ffffffffffffffffffffffffffffffffffffffff168152602001908152602001600020805480602002602001604051908101604052809291908181526020018280548015611ec057602002820191906000526020600020905b815481526020019060010190808311611eac575b5050505050905060005b815181101561205457600060096000848481518110611f12577f4e487b7100000000000000000000000000000000000000000000000000000000600052603260045260246000fd5b602002602001015181526020019081526020016000206040518060c0016040529081600082015481526020016001820160009054906101000a900473ffffffffffffffffffffffffffffffffffffffff1673ffffffffffffffffffffffffffffffffffffffff1673ffffffffffffffffffffffffffffffffffffffff1681526020016002820160009054906101000a900473ffffffffffffffffffffffffffffffffffffffff1673ffffffffffffffffffffffffffffffffffffffff1673ffffffffffffffffffffffffffffffffffffffff16815260200160038201548152602001600482015481526020016005820160009054906101000a900460ff16151515158152505090508060a0015115801561202f5750428160800151115b15612040576001935050505061205b565b50808061204c90614fe7565b915050611eca565b5060009150505b919050565b6000600854905090565b6120726127dd565b73ffffffffffffffffffffffffffffffffffffffff16612090611715565b73ffffffffffffffffffffffffffffffffffffffff16146120e6576040517f08c379a00000000000000000000000000000000000000000000000000000000081526004016120dd90614bd8565b60405180910390fd5b6000801b600660008373ffffffffffffffffffffffffffffffffffffffff1673ffffffffffffffffffffffffffffffffffffffff16815260200190815260200160002060000154141561216e576040517f08c379a000000000000000000000000000000000000000000000000000000000815260040161216590614b58565b60405180910390fd5b60076000600660008473ffffffffffffffffffffffffffffffffffffffff1673ffffffffffffffffffffffffffffffffffffffff16815260200190815260200160002060030160009054906101000a900473ffffffffffffffffffffffffffffffffffffffff1673ffffffffffffffffffffffffffffffffffffffff1673ffffffffffffffffffffffffffffffffffffffff16815260200190815260200160002060006101000a81549073ffffffffffffffffffffffffffffffffffffffff0219169055600660008273ffffffffffffffffffffffffffffffffffffffff1673ffffffffffffffffffffffffffffffffffffffff16815260200190815260200160002060008082016000905560018201600061228a9190613b81565b60028201600061229a9190613b81565b6003820160006101000a81549073ffffffffffffffffffffffffffffffffffffffff02191690555050600860008154809291906122d690614f5a565b91905055507f44a3cd4eb5cc5748f6169df057b1cb2ae4c383e87cd94663c430e095d4cba4248160405161230a9190614828565b60405180910390a150565b6000600160008473ffffffffffffffffffffffffffffffffffffffff1673ffffffffffffffffffffffffffffffffffffffff16815260200190815260200160002060008373ffffffffffffffffffffffffffffffffffffffff1673ffffffffffffffffffffffffffffffffffffffff16815260200190815260200160002054905092915050565b6000600d54905090565b6060600073ffffffffffffffffffffffffffffffffffffffff168273ffffffffffffffffffffffffffffffffffffffff161415612418576040517f08c379a000000000000000000000000000000000000000000000000000000000815260040161240f90614cb8565b60405180910390fd5b6000600a60008473ffffffffffffffffffffffffffffffffffffffff1673ffffffffffffffffffffffffffffffffffffffff1681526020019081526020016000208054806020026020016040519081016040528092919081815260200182805480156124a357602002820191906000526020600020905b81548152602001906001019080831161248f575b505050505090506000815167ffffffffffffffff8111156124ed577f4e487b7100000000000000000000000000000000000000000000000000000000600052604160045260246000fd5b60405190808252806020026020018201604052801561252657816020015b612513613a94565b81526020019060019003908161250b5790505b50905060005b82518110156126d557600060096000858481518110612574577f4e487b7100000000000000000000000000000000000000000000000000000000600052603260045260246000fd5b602002602001015181526020019081526020016000206040518060c0016040529081600082015481526020016001820160009054906101000a900473ffffffffffffffffffffffffffffffffffffffff1673ffffffffffffffffffffffffffffffffffffffff1673ffffffffffffffffffffffffffffffffffffffff1681526020016002820160009054906101000a900473ffffffffffffffffffffffffffffffffffffffff1673ffffffffffffffffffffffffffffffffffffffff1673ffffffffffffffffffffffffffffffffffffffff16815260200160038201548152602001600482015481526020016005820160009054906101000a900460ff1615151515815250509050808383815181106126b6577f4e487b7100000000000000000000000000000000000000000000000000000000600052603260045260246000fd5b60200260200101819052505080806126cd90614fe7565b91505061252c565b508092505050919050565b6126e86127dd565b73ffffffffffffffffffffffffffffffffffffffff16612706611715565b73ffffffffffffffffffffffffffffffffffffffff161461275c576040517f08c379a000000000000000000000000000000000000000000000000000000000815260040161275390614bd8565b60405180910390fd5b600073ffffffffffffffffffffffffffffffffffffffff168173ffffffffffffffffffffffffffffffffffffffff1614156127cc576040517f08c379a00000000000000000000000000000000000000000000000000000000081526004016127c390614a78565b60405180910390fd5b6127d5816130a4565b50565b505050565b600033905090565b600073ffffffffffffffffffffffffffffffffffffffff168373ffffffffffffffffffffffffffffffffffffffff161415612855576040517f08c379a000000000000000000000000000000000000000000000000000000000815260040161284c90614c98565b60405180910390fd5b600073ffffffffffffffffffffffffffffffffffffffff168273ffffffffffffffffffffffffffffffffffffffff1614156128c5576040517f08c379a00000000000000000000000000000000000000000000000000000000081526004016128bc90614a98565b60405180910390fd5b80600160008573ffffffffffffffffffffffffffffffffffffffff1673ffffffffffffffffffffffffffffffffffffffff16815260200190815260200160002060008473ffffffffffffffffffffffffffffffffffffffff1673ffffffffffffffffffffffffffffffffffffffff168152602001908152602001600020819055508173ffffffffffffffffffffffffffffffffffffffff168373ffffffffffffffffffffffffffffffffffffffff167f8c5be1e5ebec7d5bd14f71427d1e84f3dd0314c0f7b2291e5b200ac8c7c3b925836040516129a39190614d35565b60405180910390a3505050565b50565b6129bb613a94565b6000612a2b7fdafa0744ca168e0d0f27b1ba21796593dba0298e02cde0546c6bd8adb345f6fe856000015180519060200120866020015187604001518860600151604051602001612a109594939291906148cb565b60405160208183030381529060405280519060200120613245565b90506000612a39828561325f565b90506000600760008373ffffffffffffffffffffffffffffffffffffffff1673ffffffffffffffffffffffffffffffffffffffff16815260200190815260200160002060009054906101000a900473ffffffffffffffffffffffffffffffffffffffff1690508173ffffffffffffffffffffffffffffffffffffffff16600660008373ffffffffffffffffffffffffffffffffffffffff1673ffffffffffffffffffffffffffffffffffffffff16815260200190815260200160002060030160009054906101000a900473ffffffffffffffffffffffffffffffffffffffff1673ffffffffffffffffffffffffffffffffffffffff1614612b6f576040517f08c379a0000000000000000000000000000000000000000000000000000000008152600401612b6690614c38565b60405180910390fd5b42866040015111612bb5576040517f08c379a0000000000000000000000000000000000000000000000000000000008152600401612bac90614a38565b60405180910390fd5b60006040518060c001604052806000801b81526020018373ffffffffffffffffffffffffffffffffffffffff168152602001886020015173ffffffffffffffffffffffffffffffffffffffff168152602001428152602001886040015181526020016000151581525090506000612c2b82613286565b905080826000018181525050819550505050505092915050565b600c6000815480929190612c5890614fe7565b91905055508060096000836000015181526020019081526020016000206000820151816000015560208201518160010160006101000a81548173ffffffffffffffffffffffffffffffffffffffff021916908373ffffffffffffffffffffffffffffffffffffffff16021790555060408201518160020160006101000a81548173ffffffffffffffffffffffffffffffffffffffff021916908373ffffffffffffffffffffffffffffffffffffffff160217905550606082015181600301556080820151816004015560a08201518160050160006101000a81548160ff021916908315150217905550905050600a6000826040015173ffffffffffffffffffffffffffffffffffffffff1673ffffffffffffffffffffffffffffffffffffffff16815260200190815260200160002081600001519080600181540180825580915050600190039060005260206000200160009091909190915055600b6000826020015173ffffffffffffffffffffffffffffffffffffffff1673ffffffffffffffffffffffffffffffffffffffff1681526020019081526020016000208160000151908060018154018082558091505060019003906000526020600020016000909190919091505550565b600073ffffffffffffffffffffffffffffffffffffffff168373ffffffffffffffffffffffffffffffffffffffff161415612e93576040517f08c379a0000000000000000000000000000000000000000000000000000000008152600401612e8a90614c58565b60405180910390fd5b600073ffffffffffffffffffffffffffffffffffffffff168273ffffffffffffffffffffffffffffffffffffffff161415612f03576040517f08c379a0000000000000000000000000000000000000000000000000000000008152600401612efa90614a18565b60405180910390fd5b612f0e8383836132d0565b60008060008573ffffffffffffffffffffffffffffffffffffffff1673ffffffffffffffffffffffffffffffffffffffff16815260200190815260200160002054905081811015612f94576040517f08c379a0000000000000000000000000000000000000000000000000000000008152600401612f8b90614af8565b60405180910390fd5b8181036000808673ffffffffffffffffffffffffffffffffffffffff1673ffffffffffffffffffffffffffffffffffffffff16815260200190815260200160002081905550816000808573ffffffffffffffffffffffffffffffffffffffff1673ffffffffffffffffffffffffffffffffffffffff16815260200190815260200160002060008282546130279190614e63565b925050819055508273ffffffffffffffffffffffffffffffffffffffff168473ffffffffffffffffffffffffffffffffffffffff167fddf252ad1be2c89b69c2b068fc378daa952ba7f163c4a11628f55a4df523b3ef8460405161308b9190614d35565b60405180910390a361309e8484846133ef565b50505050565b6000600560009054906101000a900473ffffffffffffffffffffffffffffffffffffffff16905081600560006101000a81548173ffffffffffffffffffffffffffffffffffffffff021916908373ffffffffffffffffffffffffffffffffffffffff1602179055508173ffffffffffffffffffffffffffffffffffffffff168173ffffffffffffffffffffffffffffffffffffffff167f8be0079c531659141344cd1fd0a4f28419497f9722a3daafe3b4186f6b6457e060405160405180910390a35050565b613172613a94565b3373ffffffffffffffffffffffffffffffffffffffff16836020015173ffffffffffffffffffffffffffffffffffffffff16146131e4576040517f08c379a00000000000000000000000000000000000000000000000000000000081526004016131db90614b78565b60405180910390fd5b6131ed836129b0565b60006131f984846129b3565b905061320481612c45565b7fb13e5e7efcce7bbc67740f0fe050563d4fd1f5cc7096c3a32cb901711c95ab54816040516132339190614cf8565b60405180910390a18091505092915050565b60006132586132526133f4565b836134b7565b9050919050565b600080600061326e85856134ea565b9150915061327b8161356d565b819250505092915050565b60008160200151826040015183606001518460800151600c546040516020016132b3959493929190614792565b604051602081830303815290604052805190602001209050919050565b6132db8383836127d8565b3373ffffffffffffffffffffffffffffffffffffffff166132fa611715565b73ffffffffffffffffffffffffffffffffffffffff16146133ea57600d548110806133aa57503073ffffffffffffffffffffffffffffffffffffffff1663b9209e33846040518263ffffffff1660e01b81526004016133599190614828565b60206040518083038186803b15801561337157600080fd5b505afa158015613385573d6000803e3d6000fd5b505050506040513d601f19601f820116820180604052508101906133a99190614009565b5b6133e9576040517f08c379a00000000000000000000000000000000000000000000000000000000081526004016133e0906149f8565b60405180910390fd5b5b505050565b505050565b60007f0000000000000000000000000000000000000000000000000000000000000000461415613446577f000000000000000000000000000000000000000000000000000000000000000090506134b4565b6134b17f00000000000000000000000000000000000000000000000000000000000000007f00000000000000000000000000000000000000000000000000000000000000007f00000000000000000000000000000000000000000000000000000000000000006138be565b90505b90565b600082826040516020016134cc9291906147f1565b60405160208183030381529060405280519060200120905092915050565b60008060418351141561352c5760008060006020860151925060408601519150606086015160001a9050613520878285856138f8565b94509450505050613566565b60408351141561355d576000806020850151915060408501519050613552868383613a05565b935093505050613566565b60006002915091505b9250929050565b600060048111156135a7577f4e487b7100000000000000000000000000000000000000000000000000000000600052602160045260246000fd5b8160048111156135e0577f4e487b7100000000000000000000000000000000000000000000000000000000600052602160045260246000fd5b14156135eb576138bb565b60016004811115613625577f4e487b7100000000000000000000000000000000000000000000000000000000600052602160045260246000fd5b81600481111561365e577f4e487b7100000000000000000000000000000000000000000000000000000000600052602160045260246000fd5b141561369f576040517f08c379a0000000000000000000000000000000000000000000000000000000008152600401613696906149d8565b60405180910390fd5b600260048111156136d9577f4e487b7100000000000000000000000000000000000000000000000000000000600052602160045260246000fd5b816004811115613712577f4e487b7100000000000000000000000000000000000000000000000000000000600052602160045260246000fd5b1415613753576040517f08c379a000000000000000000000000000000000000000000000000000000000815260040161374a90614a58565b60405180910390fd5b6003600481111561378d577f4e487b7100000000000000000000000000000000000000000000000000000000600052602160045260246000fd5b8160048111156137c6577f4e487b7100000000000000000000000000000000000000000000000000000000600052602160045260246000fd5b1415613807576040517f08c379a00000000000000000000000000000000000000000000000000000000081526004016137fe90614b18565b60405180910390fd5b600480811115613840577f4e487b7100000000000000000000000000000000000000000000000000000000600052602160045260246000fd5b816004811115613879577f4e487b7100000000000000000000000000000000000000000000000000000000600052602160045260246000fd5b14156138ba576040517f08c379a00000000000000000000000000000000000000000000000000000000081526004016138b190614b98565b60405180910390fd5b5b50565b600083838346306040516020016138d995949392919061491e565b6040516020818303038152906040528051906020012090509392505050565b6000807f7fffffffffffffffffffffffffffffff5d576e7357a4501ddfe92f46681b20a08360001c11156139335760006003915091506139fc565b601b8560ff161415801561394b5750601c8560ff1614155b1561395d5760006004915091506139fc565b6000600187878787604051600081526020016040526040516139829493929190614971565b6020604051602081039080840390855afa1580156139a4573d6000803e3d6000fd5b505050602060405103519050600073ffffffffffffffffffffffffffffffffffffffff168173ffffffffffffffffffffffffffffffffffffffff1614156139f3576000600192509250506139fc565b80600092509250505b94509492505050565b6000806000807f7fffffffffffffffffffffffffffffffffffffffffffffffffffffffffffffff85169150601b8560ff1c019050613a45878288856138f8565b935093505050935093915050565b6040518060800160405280600080191681526020016060815260200160608152602001600073ffffffffffffffffffffffffffffffffffffffff1681525090565b6040518060c0016040528060008019168152602001600073ffffffffffffffffffffffffffffffffffffffff168152602001600073ffffffffffffffffffffffffffffffffffffffff16815260200160008152602001600081526020016000151581525090565b828054613b0790614f84565b90600052602060002090601f016020900481019282613b295760008555613b70565b82601f10613b4257805160ff1916838001178555613b70565b82800160010185558215613b70579182015b82811115613b6f578251825591602001919060010190613b54565b5b509050613b7d9190613bc1565b5090565b508054613b8d90614f84565b6000825580601f10613b9f5750613bbe565b601f016020900490600052602060002090810190613bbd9190613bc1565b5b50565b5b80821115613bda576000816000905550600101613bc2565b5090565b6000613bf1613bec84614d90565b614d6b565b905082815260208101848484011115613c0957600080fd5b613c14848285614f18565b509392505050565b6000613c2f613c2a84614dc1565b614d6b565b905082815260208101848484011115613c4757600080fd5b613c52848285614f18565b509392505050565b600081359050613c69816158f3565b92915050565b600081519050613c7e8161590a565b92915050565b600081359050613c9381615921565b92915050565b600082601f830112613caa57600080fd5b8135613cba848260208601613bde565b91505092915050565b600082601f830112613cd457600080fd5b8135613ce4848260208601613c1c565b91505092915050565b600060808284031215613cff57600080fd5b613d096080614d6b565b9050600082013567ffffffffffffffff811115613d2557600080fd5b613d3184828501613cc3565b6000830152506020613d4584828501613c5a565b6020830152506040613d5984828501613e1d565b6040830152506060613d6d84828501613c84565b60608301525092915050565b600060808284031215613d8b57600080fd5b613d956080614d6b565b90506000613da584828501613c84565b600083015250602082013567ffffffffffffffff811115613dc557600080fd5b613dd184828501613cc3565b602083015250604082013567ffffffffffffffff811115613df157600080fd5b613dfd84828501613cc3565b6040830152506060613e1184828501613c5a565b60608301525092915050565b600081359050613e2c81615938565b92915050565b600060208284031215613e4457600080fd5b6000613e5284828501613c5a565b91505092915050565b60008060408385031215613e6e57600080fd5b6000613e7c85828601613c5a565b9250506020613e8d85828601613c5a565b9150509250929050565b600080600060608486031215613eac57600080fd5b6000613eba86828701613c5a565b9350506020613ecb86828701613c5a565b9250506040613edc86828701613e1d565b9150509250925092565b60008060408385031215613ef957600080fd5b6000613f0785828601613c5a565b925050602083013567ffffffffffffffff811115613f2457600080fd5b613f3085828601613d79565b9150509250929050565b60008060408385031215613f4d57600080fd5b6000613f5b85828601613c5a565b9250506020613f6c85828601613e1d565b9150509250929050565b60008060008060808587031215613f8c57600080fd5b6000613f9a87828801613c5a565b9450506020613fab87828801613e1d565b935050604085013567ffffffffffffffff811115613fc857600080fd5b613fd487828801613ced565b925050606085013567ffffffffffffffff811115613ff157600080fd5b613ffd87828801613c99565b91505092959194509250565b60006020828403121561401b57600080fd5b600061402984828501613c6f565b91505092915050565b60006020828403121561404457600080fd5b600061405284828501613c84565b91505092915050565b6000806040838503121561406e57600080fd5b600083013567ffffffffffffffff81111561408857600080fd5b61409485828601613ced565b925050602083013567ffffffffffffffff8111156140b157600080fd5b6140bd85828601613c99565b9150509250929050565b6000602082840312156140d957600080fd5b60006140e784828501613e1d565b91505092915050565b60006140fc83836145ee565b60c08301905092915050565b61411181614eb9565b82525050565b61412081614eb9565b82525050565b61413761413282614eb9565b615030565b82525050565b600061414882614e02565b6141528185614e25565b935061415d83614df2565b8060005b8381101561418e57815161417588826140f0565b975061418083614e18565b925050600181019050614161565b5085935050505092915050565b6141a481614ecb565b82525050565b6141b381614ecb565b82525050565b6141c281614ed7565b82525050565b6141d181614ed7565b82525050565b6141e86141e382614ed7565b615042565b82525050565b60006141f982614e0d565b6142038185614e36565b9350614213818560208601614f27565b61421c816150f5565b840191505092915050565b600061423282614e0d565b61423c8185614e47565b935061424c818560208601614f27565b614255816150f5565b840191505092915050565b600061426d601883614e47565b915061427882615113565b602082019050919050565b6000614290604483614e47565b915061429b8261513c565b606082019050919050565b60006142b3602383614e47565b91506142be826151b1565b604082019050919050565b60006142d6603783614e47565b91506142e182615200565b604082019050919050565b60006142f9601f83614e47565b91506143048261524f565b602082019050919050565b600061431c602683614e47565b915061432782615278565b604082019050919050565b600061433f602283614e47565b915061434a826152c7565b604082019050919050565b6000614362600283614e58565b915061436d82615316565b600282019050919050565b6000614385602e83614e47565b91506143908261533f565b604082019050919050565b60006143a8604483614e47565b91506143b38261538e565b606082019050919050565b60006143cb602683614e47565b91506143d682615403565b604082019050919050565b60006143ee602283614e47565b91506143f982615452565b604082019050919050565b6000614411602d83614e47565b915061441c826154a1565b604082019050919050565b6000614434603583614e47565b915061443f826154f0565b604082019050919050565b6000614457603883614e47565b91506144628261553f565b604082019050919050565b600061447a602283614e47565b91506144858261558e565b604082019050919050565b600061449d602883614e47565b91506144a8826155dd565b604082019050919050565b60006144c0602083614e47565b91506144cb8261562c565b602082019050919050565b60006144e3602e83614e47565b91506144ee82615655565b604082019050919050565b6000614506604983614e47565b9150614511826156a4565b606082019050919050565b6000614529603683614e47565b915061453482615719565b604082019050919050565b600061454c602583614e47565b915061455782615768565b604082019050919050565b600061456f603983614e47565b915061457a826157b7565b604082019050919050565b6000614592602483614e47565b915061459d82615806565b604082019050919050565b60006145b5602583614e47565b91506145c082615855565b604082019050919050565b60006145d8602583614e47565b91506145e3826158a4565b604082019050919050565b60c08201600082015161460460008501826141b9565b5060208201516146176020850182614108565b50604082015161462a6040850182614108565b50606082015161463d606085018261474e565b506080820151614650608085018261474e565b5060a082015161466360a085018261419b565b50505050565b60c08201600082015161467f60008501826141b9565b5060208201516146926020850182614108565b5060408201516146a56040850182614108565b5060608201516146b8606085018261474e565b5060808201516146cb608085018261474e565b5060a08201516146de60a085018261419b565b50505050565b60006080830160008301516146fc60008601826141b9565b506020830151848203602086015261471482826141ee565b9150506040830151848203604086015261472e82826141ee565b91505060608301516147436060860182614108565b508091505092915050565b61475781614f01565b82525050565b61476681614f01565b82525050565b61477d61477882614f01565b61505e565b82525050565b61478c81614f0b565b82525050565b600061479e8288614126565b6014820191506147ae8287614126565b6014820191506147be828661476c565b6020820191506147ce828561476c565b6020820191506147de828461476c565b6020820191508190509695505050505050565b60006147fc82614355565b915061480882856141d7565b60208201915061481882846141d7565b6020820191508190509392505050565b600060208201905061483d6000830184614117565b92915050565b60006040820190506148586000830185614117565b818103602083015261486a81846146e4565b90509392505050565b6000602082019050818103600083015261488d818461413d565b905092915050565b60006020820190506148aa60008301846141aa565b92915050565b60006020820190506148c560008301846141c8565b92915050565b600060a0820190506148e060008301886141c8565b6148ed60208301876141c8565b6148fa6040830186614117565b614907606083018561475d565b61491460808301846141c8565b9695505050505050565b600060a08201905061493360008301886141c8565b61494060208301876141c8565b61494d60408301866141c8565b61495a606083018561475d565b6149676080830184614117565b9695505050505050565b600060808201905061498660008301876141c8565b6149936020830186614783565b6149a060408301856141c8565b6149ad60608301846141c8565b95945050505050565b600060208201905081810360008301526149d08184614227565b905092915050565b600060208201905081810360008301526149f181614260565b9050919050565b60006020820190508181036000830152614a1181614283565b9050919050565b60006020820190508181036000830152614a31816142a6565b9050919050565b60006020820190508181036000830152614a51816142c9565b9050919050565b60006020820190508181036000830152614a71816142ec565b9050919050565b60006020820190508181036000830152614a918161430f565b9050919050565b60006020820190508181036000830152614ab181614332565b9050919050565b60006020820190508181036000830152614ad181614378565b9050919050565b60006020820190508181036000830152614af18161439b565b9050919050565b60006020820190508181036000830152614b11816143be565b9050919050565b60006020820190508181036000830152614b31816143e1565b9050919050565b60006020820190508181036000830152614b5181614404565b9050919050565b60006020820190508181036000830152614b7181614427565b9050919050565b60006020820190508181036000830152614b918161444a565b9050919050565b60006020820190508181036000830152614bb18161446d565b9050919050565b60006020820190508181036000830152614bd181614490565b9050919050565b60006020820190508181036000830152614bf1816144b3565b9050919050565b60006020820190508181036000830152614c11816144d6565b9050919050565b60006020820190508181036000830152614c31816144f9565b9050919050565b60006020820190508181036000830152614c518161451c565b9050919050565b60006020820190508181036000830152614c718161453f565b9050919050565b60006020820190508181036000830152614c9181614562565b9050919050565b60006020820190508181036000830152614cb181614585565b9050919050565b60006020820190508181036000830152614cd1816145a8565b9050919050565b60006020820190508181036000830152614cf1816145cb565b9050919050565b600060c082019050614d0d6000830184614669565b92915050565b60006020820190508181036000830152614d2d81846146e4565b905092915050565b6000602082019050614d4a600083018461475d565b92915050565b6000602082019050614d656000830184614783565b92915050565b6000614d75614d86565b9050614d818282614fb6565b919050565b6000604051905090565b600067ffffffffffffffff821115614dab57614daa6150c6565b5b614db4826150f5565b9050602081019050919050565b600067ffffffffffffffff821115614ddc57614ddb6150c6565b5b614de5826150f5565b9050602081019050919050565b6000819050602082019050919050565b600081519050919050565b600081519050919050565b6000602082019050919050565b600082825260208201905092915050565b600082825260208201905092915050565b600082825260208201905092915050565b600081905092915050565b6000614e6e82614f01565b9150614e7983614f01565b9250827fffffffffffffffffffffffffffffffffffffffffffffffffffffffffffffffff03821115614eae57614ead615068565b5b828201905092915050565b6000614ec482614ee1565b9050919050565b60008115159050919050565b6000819050919050565b600073ffffffffffffffffffffffffffffffffffffffff82169050919050565b6000819050919050565b600060ff82169050919050565b82818337600083830152505050565b60005b83811015614f45578082015181840152602081019050614f2a565b83811115614f54576000848401525b50505050565b6000614f6582614f01565b91506000821415614f7957614f78615068565b5b600182039050919050565b60006002820490506001821680614f9c57607f821691505b60208210811415614fb057614faf615097565b5b50919050565b614fbf826150f5565b810181811067ffffffffffffffff82111715614fde57614fdd6150c6565b5b80604052505050565b6000614ff282614f01565b91507fffffffffffffffffffffffffffffffffffffffffffffffffffffffffffffffff82141561502557615024615068565b5b600182019050919050565b600061503b8261504c565b9050919050565b6000819050919050565b600061505782615106565b9050919050565b6000819050919050565b7f4e487b7100000000000000000000000000000000000000000000000000000000600052601160045260246000fd5b7f4e487b7100000000000000000000000000000000000000000000000000000000600052602260045260246000fd5b7f4e487b7100000000000000000000000000000000000000000000000000000000600052604160045260246000fd5b6000601f19601f8301169050919050565b60008160601b9050919050565b7f45434453413a20696e76616c6964207369676e61747572650000000000000000600082015250565b7f5468726573686f6c64546f6b656e3a205472616e7366657273206f662074686960008201527f7320616d6f756e7420726571756972652073656e64657220766572696669636160208201527f74696f6e00000000000000000000000000000000000000000000000000000000604082015250565b7f45524332303a207472616e7366657220746f20746865207a65726f206164647260008201527f6573730000000000000000000000000000000000000000000000000000000000602082015250565b7f566572696669636174696f6e52656769737472793a205665726966696361746960008201527f6f6e20636f6e6669726d6174696f6e2065787069726564000000000000000000602082015250565b7f45434453413a20696e76616c6964207369676e6174757265206c656e67746800600082015250565b7f4f776e61626c653a206e6577206f776e657220697320746865207a65726f206160008201527f6464726573730000000000000000000000000000000000000000000000000000602082015250565b7f45524332303a20617070726f766520746f20746865207a65726f20616464726560008201527f7373000000000000000000000000000000000000000000000000000000000000602082015250565b7f1901000000000000000000000000000000000000000000000000000000000000600082015250565b7f566572696669636174696f6e52656769737472793a2043616c6c65722069732060008201527f6e6f742061205665726966696572000000000000000000000000000000000000602082015250565b7f566572696669636174696f6e52656769737472793a2043616c6c65722069732060008201527f6e6f7420746865207665726966696572206f662074686520766572696669636160208201527f74696f6e00000000000000000000000000000000000000000000000000000000604082015250565b7f45524332303a207472616e7366657220616d6f756e742065786365656473206260008201527f616c616e63650000000000000000000000000000000000000000000000000000602082015250565b7f45434453413a20696e76616c6964207369676e6174757265202773272076616c60008201527f7565000000000000000000000000000000000000000000000000000000000000602082015250565b7f566572696669636174696f6e52656769737472793a205665726966696572204160008201527f6464726573732045786973747300000000000000000000000000000000000000602082015250565b7f566572696669636174696f6e52656769737472793a205665726966696572204160008201527f64647265737320446f6573204e6f742045786973740000000000000000000000602082015250565b7f566572696669636174696f6e52656769737472793a2043616c6c65722069732060008201527f6e6f7420746865207665726966696564207375626a6563740000000000000000602082015250565b7f45434453413a20696e76616c6964207369676e6174757265202776272076616c60008201527f7565000000000000000000000000000000000000000000000000000000000000602082015250565b7f45524332303a207472616e7366657220616d6f756e742065786365656473206160008201527f6c6c6f77616e6365000000000000000000000000000000000000000000000000602082015250565b7f4f776e61626c653a2063616c6c6572206973206e6f7420746865206f776e6572600082015250565b7f566572696669636174696f6e52656769737472793a20556e6b6e6f776e20566560008201527f7269666965722041646472657373000000000000000000000000000000000000602082015250565b7f566572696669636174696f6e52656769737472793a2043616c6c65722069732060008201527f6e6f7420746865207665726966696572206f6620746865207265666572656e6360208201527f6564207265636f72640000000000000000000000000000000000000000000000604082015250565b7f566572696669636174696f6e52656769737472793a205369676e65642064696760008201527f6573742063616e6e6f7420626520766572696669656400000000000000000000602082015250565b7f45524332303a207472616e736665722066726f6d20746865207a65726f20616460008201527f6472657373000000000000000000000000000000000000000000000000000000602082015250565b7f566572696669636174696f6e52656769737472793a2043616c6c65722069732060008201527f6e6f7420746865206f726967696e616c20766572696669657200000000000000602082015250565b7f45524332303a20617070726f76652066726f6d20746865207a65726f2061646460008201527f7265737300000000000000000000000000000000000000000000000000000000602082015250565b7f566572696669636174696f6e52656769737472793a20496e76616c696420616460008201527f6472657373000000000000000000000000000000000000000000000000000000602082015250565b7f45524332303a2064656372656173656420616c6c6f77616e63652062656c6f7760008201527f207a65726f000000000000000000000000000000000000000000000000000000602082015250565b6158fc81614eb9565b811461590757600080fd5b50565b61591381614ecb565b811461591e57600080fd5b50565b61592a81614ed7565b811461593557600080fd5b50565b61594181614f01565b811461594c57600080fd5b5056fea26469706673582212203d39b7f92abe65a2b3741934a9d31eee40be361db2b20fcbc72ca7af578a682f64736f6c63430008040033",
  "linkReferences": {},
  "deployedLinkReferences": {}
}