{
  "_format": "hh-sol-artifact-1",
  "contractName": "Token",
  "sourceName": "contracts/Token.sol",
  "abi": [
    {
      "inputs": [],
      "stateMutability": "nonpayable",
      "type": "constructor"
    },
    {
      "anonymous": false,
      "inputs": [
        {
          "indexed": true,
          "internalType": "address",
          "name": "previousOwner",
          "type": "address"
        },
        {
          "indexed": true,
          "internalType": "address",
          "name": "newOwner",
          "type": "address"
        }
      ],
      "name": "OwnershipTransferred",
      "type": "event"
    },
    {
      "anonymous": false,
      "inputs": [
        {
          "indexed": true,
          "internalType": "address",
          "name": "from",
          "type": "address"
        },
        {
          "indexed": true,
          "internalType": "address",
          "name": "to",
          "type": "address"
        },
        {
          "indexed": false,
          "internalType": "uint256",
          "name": "amount",
          "type": "uint256"
        }
      ],
      "name": "Transfer",
      "type": "event"
    },
    {
      "anonymous": false,
      "inputs": [
        {
          "indexed": false,
          "internalType": "address",
          "name": "verifierAddress",
          "type": "address"
        },
        {
          "indexed": false,
          "internalType": "bytes32",
          "name": "verificationInfo",
          "type": "bytes32"
        }
      ],
      "name": "VerifiedCredentialConfirmed",
      "type": "event"
    },
    {
      "anonymous": false,
      "inputs": [
        {
          "indexed": false,
          "internalType": "address",
          "name": "verifier",
          "type": "address"
        },
        {
          "indexed": false,
          "internalType": "bytes32",
          "name": "verifierID",
          "type": "bytes32"
        }
      ],
      "name": "VerifierAdded",
      "type": "event"
    },
    {
      "anonymous": false,
      "inputs": [
        {
          "indexed": false,
          "internalType": "address",
          "name": "verifier",
          "type": "address"
        }
      ],
      "name": "VerifierRemoved",
      "type": "event"
    },
    {
      "inputs": [
        {
          "internalType": "address",
          "name": "signingAddr",
          "type": "address"
        },
        {
          "internalType": "bytes32",
          "name": "verifierID",
          "type": "bytes32"
        }
      ],
      "name": "addTrustedVerifier",
      "outputs": [],
      "stateMutability": "nonpayable",
      "type": "function"
    },
    {
      "inputs": [
        {
          "internalType": "address",
          "name": "account",
          "type": "address"
        }
      ],
      "name": "balanceOf",
      "outputs": [
        {
          "internalType": "uint256",
          "name": "",
          "type": "uint256"
        }
      ],
      "stateMutability": "view",
      "type": "function"
    },
    {
      "inputs": [
        {
          "internalType": "address",
          "name": "signingAddr",
          "type": "address"
        }
      ],
      "name": "getVerifierID",
      "outputs": [
        {
          "internalType": "bytes32",
          "name": "",
          "type": "bytes32"
        }
      ],
      "stateMutability": "view",
      "type": "function"
    },
    {
      "inputs": [
        {
          "internalType": "address",
          "name": "account",
          "type": "address"
        }
      ],
      "name": "isTrustedVerifier",
      "outputs": [
        {
          "internalType": "bool",
          "name": "",
          "type": "bool"
        }
      ],
      "stateMutability": "view",
      "type": "function"
    },
    {
      "inputs": [],
      "name": "name",
      "outputs": [
        {
          "internalType": "string",
          "name": "",
          "type": "string"
        }
      ],
      "stateMutability": "view",
      "type": "function"
    },
    {
      "inputs": [],
      "name": "owner",
      "outputs": [
        {
          "internalType": "address",
          "name": "",
          "type": "address"
        }
      ],
      "stateMutability": "view",
      "type": "function"
    },
    {
      "inputs": [
        {
          "internalType": "address",
          "name": "signingAddr",
          "type": "address"
        }
      ],
      "name": "removeTrustedVerifier",
      "outputs": [],
      "stateMutability": "nonpayable",
      "type": "function"
    },
    {
      "inputs": [],
      "name": "renounceOwnership",
      "outputs": [],
      "stateMutability": "nonpayable",
      "type": "function"
    },
    {
      "inputs": [],
      "name": "symbol",
      "outputs": [
        {
          "internalType": "string",
          "name": "",
          "type": "string"
        }
      ],
      "stateMutability": "view",
      "type": "function"
    },
    {
      "inputs": [],
      "name": "totalSupply",
      "outputs": [
        {
          "internalType": "uint256",
          "name": "",
          "type": "uint256"
        }
      ],
      "stateMutability": "view",
      "type": "function"
    },
    {
      "inputs": [
        {
          "internalType": "address",
          "name": "to",
          "type": "address"
        },
        {
          "internalType": "uint256",
          "name": "amount",
          "type": "uint256"
        }
      ],
      "name": "transfer",
      "outputs": [],
      "stateMutability": "nonpayable",
      "type": "function"
    },
    {
      "inputs": [
        {
          "internalType": "address",
          "name": "newOwner",
          "type": "address"
        }
      ],
      "name": "transferOwnership",
      "outputs": [],
      "stateMutability": "nonpayable",
      "type": "function"
    },
    {
      "inputs": [
        {
          "internalType": "address",
          "name": "signingAddr",
          "type": "address"
        },
        {
          "internalType": "bytes32",
          "name": "verifierID",
          "type": "bytes32"
        }
      ],
      "name": "updateVerifierID",
      "outputs": [],
      "stateMutability": "nonpayable",
      "type": "function"
    },
    {
      "inputs": [
        {
          "internalType": "address",
          "name": "to",
          "type": "address"
        },
        {
          "internalType": "uint256",
          "name": "amount",
          "type": "uint256"
        },
        {
          "components": [
            {
              "internalType": "string",
              "name": "message",
              "type": "string"
            },
            {
              "internalType": "uint256",
              "name": "expiration",
              "type": "uint256"
            }
          ],
          "internalType": "struct VerificationValidator.KYCVerificationInfo",
          "name": "verificationInfo",
          "type": "tuple"
        },
        {
          "internalType": "bytes",
          "name": "signature",
          "type": "bytes"
        }
      ],
      "name": "validateAndTransfer",
      "outputs": [],
      "stateMutability": "nonpayable",
      "type": "function"
    },
    {
      "inputs": [],
      "name": "verificationThreshold",
      "outputs": [
        {
          "internalType": "uint256",
          "name": "",
          "type": "uint256"
        }
      ],
      "stateMutability": "view",
      "type": "function"
    }
  ],
  "bytecode": "0x6101406040526040518060400160405280601081526020017f5665726974792044656d6f20555344430000000000000000000000000000000081525060029080519060200190620000529291906200031d565b506040518060400160405280600581526020017f565553444300000000000000000000000000000000000000000000000000000081525060039080519060200190620000a09291906200031d565b50620f4240600455348015620000b557600080fd5b506040518060400160405280601581526020017f566572696669636174696f6e56616c696461746f7200000000000000000000008152506040518060400160405280600381526020017f312e30000000000000000000000000000000000000000000000000000000000081525062000142620001366200021560201b60201c565b6200021d60201b60201c565b60008280519060200120905060008280519060200120905060007f8b73c3c69bb8fe3d512ecc4cf759cc79239f7b179b0ffacaa9a75d522b39400f90508260c081815250508160e081815250504660a08181525050620001aa818484620002e160201b60201c565b608081815250508061010081815250505050505050600454600560003373ffffffffffffffffffffffffffffffffffffffff1673ffffffffffffffffffffffffffffffffffffffff16815260200190815260200160002081905550600a61012081815250506200050a565b600033905090565b60008060009054906101000a900473ffffffffffffffffffffffffffffffffffffffff169050816000806101000a81548173ffffffffffffffffffffffffffffffffffffffff021916908373ffffffffffffffffffffffffffffffffffffffff1602179055508173ffffffffffffffffffffffffffffffffffffffff168173ffffffffffffffffffffffffffffffffffffffff167f8be0079c531659141344cd1fd0a4f28419497f9722a3daafe3b4186f6b6457e060405160405180910390a35050565b60008383834630604051602001620002fe95949392919062000400565b6040516020818303038152906040528051906020012090509392505050565b8280546200032b90620004a5565b90600052602060002090601f0160209004810192826200034f57600085556200039b565b82601f106200036a57805160ff19168380011785556200039b565b828001600101855582156200039b579182015b828111156200039a5782518255916020019190600101906200037d565b5b509050620003aa9190620003ae565b5090565b5b80821115620003c9576000816000905550600101620003af565b5090565b620003d8816200045d565b82525050565b620003e98162000471565b82525050565b620003fa816200049b565b82525050565b600060a082019050620004176000830188620003de565b620004266020830187620003de565b620004356040830186620003de565b620004446060830185620003ef565b620004536080830184620003cd565b9695505050505050565b60006200046a826200047b565b9050919050565b6000819050919050565b600073ffffffffffffffffffffffffffffffffffffffff82169050919050565b6000819050919050565b60006002820490506001821680620004be57607f821691505b60208210811415620004d557620004d4620004db565b5b50919050565b7f4e487b7100000000000000000000000000000000000000000000000000000000600052602260045260246000fd5b60805160a05160c05160e05161010051610120516121dd6200056160003960008181610364015261085001526000610f6201526000610fa401526000610f8301526000610f0f01526000610f3701526121dd6000f3fe608060405234801561001057600080fd5b50600436106100f55760003560e01c8063801d2cf111610097578063a9059cbb11610066578063a9059cbb14610262578063b0a44a681461027e578063c6b055751461029a578063f2fde38b146102b6576100f5565b8063801d2cf1146101da5780638da5cb5b146101f65780638f9e0ee01461021457806395d89b4114610244576100f5565b806350f11d2a116100d357806350f11d2a1461015457806370a0823114610184578063715018a6146101b45780637e72b493146101be576100f5565b806306fdde03146100fa578063167feb091461011857806318160ddd14610136575b600080fd5b6101026102d2565b60405161010f9190611956565b60405180910390f35b610120610360565b60405161012d9190611af8565b60405180910390f35b61013e610388565b60405161014b9190611af8565b60405180910390f35b61016e60048036038101906101699190611432565b61038e565b60405161017b9190611843565b60405180910390f35b61019e60048036038101906101999190611432565b6103dd565b6040516101ab9190611af8565b60405180910390f35b6101bc610426565b005b6101d860048036038101906101d391906114d3565b6104ae565b005b6101f460048036038101906101ef9190611432565b61054a565b005b6101fe610647565b60405161020b91906117ff565b60405180910390f35b61022e60048036038101906102299190611432565b610670565b60405161023b919061185e565b60405180910390f35b61024c61073e565b6040516102599190611956565b60405180910390f35b61027c60048036038101906102779190611497565b6107cc565b005b6102986004803603810190610293919061145b565b6108be565b005b6102b460048036038101906102af919061145b565b6109bb565b005b6102d060048036038101906102cb9190611432565b610a88565b005b600280546102df90611cec565b80601f016020809104026020016040519081016040528092919081815260200182805461030b90611cec565b80156103585780601f1061032d57610100808354040283529160200191610358565b820191906000526020600020905b81548152906001019060200180831161033b57829003601f168201915b505050505081565b60007f0000000000000000000000000000000000000000000000000000000000000000905090565b60045481565b60008060001b600160008473ffffffffffffffffffffffffffffffffffffffff1673ffffffffffffffffffffffffffffffffffffffff1681526020019081526020016000205414159050919050565b6000600560008373ffffffffffffffffffffffffffffffffffffffff1673ffffffffffffffffffffffffffffffffffffffff168152602001908152602001600020549050919050565b61042e610b80565b73ffffffffffffffffffffffffffffffffffffffff1661044c610647565b73ffffffffffffffffffffffffffffffffffffffff16146104a2576040517f08c379a000000000000000000000000000000000000000000000000000000000815260040161049990611a58565b60405180910390fd5b6104ac6000610b88565b565b82600560003373ffffffffffffffffffffffffffffffffffffffff1673ffffffffffffffffffffffffffffffffffffffff168152602001908152602001600020541015610530576040517f08c379a000000000000000000000000000000000000000000000000000000000815260040161052790611ab8565b60405180910390fd5b61053a8282610c4c565b6105448484610cc8565b50505050565b610552610b80565b73ffffffffffffffffffffffffffffffffffffffff16610570610647565b73ffffffffffffffffffffffffffffffffffffffff16146105c6576040517f08c379a00000000000000000000000000000000000000000000000000000000081526004016105bd90611a58565b60405180910390fd5b6000801b600160008373ffffffffffffffffffffffffffffffffffffffff1673ffffffffffffffffffffffffffffffffffffffff168152602001908152602001600020819055507f44a3cd4eb5cc5748f6169df057b1cb2ae4c383e87cd94663c430e095d4cba4248160405161063c91906117ff565b60405180910390a150565b60008060009054906101000a900473ffffffffffffffffffffffffffffffffffffffff16905090565b60008060001b600160008473ffffffffffffffffffffffffffffffffffffffff1673ffffffffffffffffffffffffffffffffffffffff1681526020019081526020016000205414156106f7576040517f08c379a00000000000000000000000000000000000000000000000000000000081526004016106ee90611a98565b60405180910390fd5b600160008373ffffffffffffffffffffffffffffffffffffffff1673ffffffffffffffffffffffffffffffffffffffff168152602001908152602001600020549050919050565b6003805461074b90611cec565b80601f016020809104026020016040519081016040528092919081815260200182805461077790611cec565b80156107c45780601f10610799576101008083540402835291602001916107c4565b820191906000526020600020905b8154815290600101906020018083116107a757829003601f168201915b505050505081565b80600560003373ffffffffffffffffffffffffffffffffffffffff1673ffffffffffffffffffffffffffffffffffffffff16815260200190815260200160002054101561084e576040517f08c379a000000000000000000000000000000000000000000000000000000000815260040161084590611ab8565b60405180910390fd5b7f000000000000000000000000000000000000000000000000000000000000000081106108b0576040517f08c379a00000000000000000000000000000000000000000000000000000000081526004016108a790611ad8565b60405180910390fd5b6108ba8282610cc8565b5050565b6108c6610b80565b73ffffffffffffffffffffffffffffffffffffffff166108e4610647565b73ffffffffffffffffffffffffffffffffffffffff161461093a576040517f08c379a000000000000000000000000000000000000000000000000000000000815260040161093190611a58565b60405180910390fd5b80600160008473ffffffffffffffffffffffffffffffffffffffff1673ffffffffffffffffffffffffffffffffffffffff168152602001908152602001600020819055507fdf395e5bd7458959ba8998503d4a8766e743681644b5d1b4866b0a566c213c7c82826040516109af92919061181a565b60405180910390a15050565b6000801b600160003373ffffffffffffffffffffffffffffffffffffffff1673ffffffffffffffffffffffffffffffffffffffff168152602001908152602001600020541415610a40576040517f08c379a0000000000000000000000000000000000000000000000000000000008152600401610a3790611a18565b60405180910390fd5b80600160008473ffffffffffffffffffffffffffffffffffffffff1673ffffffffffffffffffffffffffffffffffffffff168152602001908152602001600020819055505050565b610a90610b80565b73ffffffffffffffffffffffffffffffffffffffff16610aae610647565b73ffffffffffffffffffffffffffffffffffffffff1614610b04576040517f08c379a0000000000000000000000000000000000000000000000000000000008152600401610afb90611a58565b60405180910390fd5b600073ffffffffffffffffffffffffffffffffffffffff168173ffffffffffffffffffffffffffffffffffffffff161415610b74576040517f08c379a0000000000000000000000000000000000000000000000000000000008152600401610b6b906119b8565b60405180910390fd5b610b7d81610b88565b50565b600033905090565b60008060009054906101000a900473ffffffffffffffffffffffffffffffffffffffff169050816000806101000a81548173ffffffffffffffffffffffffffffffffffffffff021916908373ffffffffffffffffffffffffffffffffffffffff1602179055508173ffffffffffffffffffffffffffffffffffffffff168173ffffffffffffffffffffffffffffffffffffffff167f8be0079c531659141344cd1fd0a4f28419497f9722a3daafe3b4186f6b6457e060405160405180910390a35050565b6000610cb27fe515b780fde88b343d6f4ac49641cbe70370069c35c934c9f811ec706008dc56846000015180519060200120856020015133604051602001610c9794939291906118cc565b60405160208183030381529060405280519060200120610ddd565b9050610cc381838560200151610df7565b505050565b80600560003373ffffffffffffffffffffffffffffffffffffffff1673ffffffffffffffffffffffffffffffffffffffff1681526020019081526020016000206000828254610d179190611c17565b9250508190555080600560008473ffffffffffffffffffffffffffffffffffffffff1673ffffffffffffffffffffffffffffffffffffffff1681526020019081526020016000206000828254610d6d9190611bc1565b925050819055508173ffffffffffffffffffffffffffffffffffffffff163373ffffffffffffffffffffffffffffffffffffffff167fddf252ad1be2c89b69c2b068fc378daa952ba7f163c4a11628f55a4df523b3ef83604051610dd19190611af8565b60405180910390a35050565b6000610df0610dea610f0b565b83610fce565b9050919050565b6000610e038484611001565b90506000801b600160008373ffffffffffffffffffffffffffffffffffffffff1673ffffffffffffffffffffffffffffffffffffffff168152602001908152602001600020541415610e8a576040517f08c379a0000000000000000000000000000000000000000000000000000000008152600401610e8190611a78565b60405180910390fd5b428211610ecc576040517f08c379a0000000000000000000000000000000000000000000000000000000008152600401610ec3906119f8565b60405180910390fd5b7f79b1686b747c956ec66fff2381aff3dc3fd7cf5e7d16eee73380738c4ef4d4028185604051610efd92919061181a565b60405180910390a150505050565b60007f0000000000000000000000000000000000000000000000000000000000000000461415610f5d577f00000000000000000000000000000000000000000000000000000000000000009050610fcb565b610fc87f00000000000000000000000000000000000000000000000000000000000000007f00000000000000000000000000000000000000000000000000000000000000007f00000000000000000000000000000000000000000000000000000000000000006110b0565b90505b90565b60008282604051602001610fe39291906117c8565b60405160208183030381529060405280519060200120905092915050565b60006041825114156110405760008060006020850151925060408501519150606085015160001a9050611036868285856110ea565b93505050506110aa565b60408251141561106f576000806020840151915060408401519050611066858383611275565b925050506110aa565b6040517f08c379a00000000000000000000000000000000000000000000000000000000081526004016110a190611998565b60405180910390fd5b92915050565b600083838346306040516020016110cb959493929190611879565b6040516020818303038152906040528051906020012090509392505050565b60007f7fffffffffffffffffffffffffffffff5d576e7357a4501ddfe92f46681b20a08260001c1115611152576040517f08c379a0000000000000000000000000000000000000000000000000000000008152600401611149906119d8565b60405180910390fd5b601b8460ff1614806111675750601c8460ff16145b6111a6576040517f08c379a000000000000000000000000000000000000000000000000000000000815260040161119d90611a38565b60405180910390fd5b6000600186868686604051600081526020016040526040516111cb9493929190611911565b6020604051602081039080840390855afa1580156111ed573d6000803e3d6000fd5b505050602060405103519050600073ffffffffffffffffffffffffffffffffffffffff168173ffffffffffffffffffffffffffffffffffffffff161415611269576040517f08c379a000000000000000000000000000000000000000000000000000000000815260040161126090611978565b60405180910390fd5b80915050949350505050565b60008060007f7fffffffffffffffffffffffffffffffffffffffffffffffffffffffffffffff84169150601b8460ff1c0190506112b4868287856110ea565b925050509392505050565b60006112d26112cd84611b38565b611b13565b9050828152602081018484840111156112ea57600080fd5b6112f5848285611caa565b509392505050565b600061131061130b84611b69565b611b13565b90508281526020810184848401111561132857600080fd5b611333848285611caa565b509392505050565b60008135905061134a81612162565b92915050565b60008135905061135f81612179565b92915050565b600082601f83011261137657600080fd5b81356113868482602086016112bf565b91505092915050565b600082601f8301126113a057600080fd5b81356113b08482602086016112fd565b91505092915050565b6000604082840312156113cb57600080fd5b6113d56040611b13565b9050600082013567ffffffffffffffff8111156113f157600080fd5b6113fd8482850161138f565b60008301525060206114118482850161141d565b60208301525092915050565b60008135905061142c81612190565b92915050565b60006020828403121561144457600080fd5b60006114528482850161133b565b91505092915050565b6000806040838503121561146e57600080fd5b600061147c8582860161133b565b925050602061148d85828601611350565b9150509250929050565b600080604083850312156114aa57600080fd5b60006114b88582860161133b565b92505060206114c98582860161141d565b9150509250929050565b600080600080608085870312156114e957600080fd5b60006114f78782880161133b565b94505060206115088782880161141d565b935050604085013567ffffffffffffffff81111561152557600080fd5b611531878288016113b9565b925050606085013567ffffffffffffffff81111561154e57600080fd5b61155a87828801611365565b91505092959194509250565b61156f81611c4b565b82525050565b61157e81611c5d565b82525050565b61158d81611c69565b82525050565b6115a461159f82611c69565b611d4f565b82525050565b60006115b582611b9a565b6115bf8185611ba5565b93506115cf818560208601611cb9565b6115d881611de6565b840191505092915050565b60006115f0601883611ba5565b91506115fb82611df7565b602082019050919050565b6000611613601f83611ba5565b915061161e82611e20565b602082019050919050565b6000611636602683611ba5565b915061164182611e49565b604082019050919050565b6000611659600283611bb6565b915061166482611e98565b600282019050919050565b600061167c602283611ba5565b915061168782611ec1565b604082019050919050565b600061169f603883611ba5565b91506116aa82611f10565b604082019050919050565b60006116c2603783611ba5565b91506116cd82611f5f565b604082019050919050565b60006116e5602283611ba5565b91506116f082611fae565b604082019050919050565b6000611708602083611ba5565b915061171382611ffd565b602082019050919050565b600061172b603783611ba5565b915061173682612026565b604082019050919050565b600061174e602f83611ba5565b915061175982612075565b604082019050919050565b6000611771601183611ba5565b915061177c826120c4565b602082019050919050565b6000611794604b83611ba5565b915061179f826120ed565b606082019050919050565b6117b381611c93565b82525050565b6117c281611c9d565b82525050565b60006117d38261164c565b91506117df8285611593565b6020820191506117ef8284611593565b6020820191508190509392505050565b60006020820190506118146000830184611566565b92915050565b600060408201905061182f6000830185611566565b61183c6020830184611584565b9392505050565b60006020820190506118586000830184611575565b92915050565b60006020820190506118736000830184611584565b92915050565b600060a08201905061188e6000830188611584565b61189b6020830187611584565b6118a86040830186611584565b6118b560608301856117aa565b6118c26080830184611566565b9695505050505050565b60006080820190506118e16000830187611584565b6118ee6020830186611584565b6118fb60408301856117aa565b6119086060830184611566565b95945050505050565b60006080820190506119266000830187611584565b61193360208301866117b9565b6119406040830185611584565b61194d6060830184611584565b95945050505050565b6000602082019050818103600083015261197081846115aa565b905092915050565b60006020820190508181036000830152611991816115e3565b9050919050565b600060208201905081810360008301526119b181611606565b9050919050565b600060208201905081810360008301526119d181611629565b9050919050565b600060208201905081810360008301526119f18161166f565b9050919050565b60006020820190508181036000830152611a1181611692565b9050919050565b60006020820190508181036000830152611a31816116b5565b9050919050565b60006020820190508181036000830152611a51816116d8565b9050919050565b60006020820190508181036000830152611a71816116fb565b9050919050565b60006020820190508181036000830152611a918161171e565b9050919050565b60006020820190508181036000830152611ab181611741565b9050919050565b60006020820190508181036000830152611ad181611764565b9050919050565b60006020820190508181036000830152611af181611787565b9050919050565b6000602082019050611b0d60008301846117aa565b92915050565b6000611b1d611b2e565b9050611b298282611d1e565b919050565b6000604051905090565b600067ffffffffffffffff821115611b5357611b52611db7565b5b611b5c82611de6565b9050602081019050919050565b600067ffffffffffffffff821115611b8457611b83611db7565b5b611b8d82611de6565b9050602081019050919050565b600081519050919050565b600082825260208201905092915050565b600081905092915050565b6000611bcc82611c93565b9150611bd783611c93565b9250827fffffffffffffffffffffffffffffffffffffffffffffffffffffffffffffffff03821115611c0c57611c0b611d59565b5b828201905092915050565b6000611c2282611c93565b9150611c2d83611c93565b925082821015611c4057611c3f611d59565b5b828203905092915050565b6000611c5682611c73565b9050919050565b60008115159050919050565b6000819050919050565b600073ffffffffffffffffffffffffffffffffffffffff82169050919050565b6000819050919050565b600060ff82169050919050565b82818337600083830152505050565b60005b83811015611cd7578082015181840152602081019050611cbc565b83811115611ce6576000848401525b50505050565b60006002820490506001821680611d0457607f821691505b60208210811415611d1857611d17611d88565b5b50919050565b611d2782611de6565b810181811067ffffffffffffffff82111715611d4657611d45611db7565b5b80604052505050565b6000819050919050565b7f4e487b7100000000000000000000000000000000000000000000000000000000600052601160045260246000fd5b7f4e487b7100000000000000000000000000000000000000000000000000000000600052602260045260246000fd5b7f4e487b7100000000000000000000000000000000000000000000000000000000600052604160045260246000fd5b6000601f19601f8301169050919050565b7f45434453413a20696e76616c6964207369676e61747572650000000000000000600082015250565b7f45434453413a20696e76616c6964207369676e6174757265206c656e67746800600082015250565b7f4f776e61626c653a206e6577206f776e657220697320746865207a65726f206160008201527f6464726573730000000000000000000000000000000000000000000000000000602082015250565b7f1901000000000000000000000000000000000000000000000000000000000000600082015250565b7f45434453413a20696e76616c6964207369676e6174757265202773272076616c60008201527f7565000000000000000000000000000000000000000000000000000000000000602082015250565b7f56657269666961626c652043726564656e7469616c3a2056657269666963617460008201527f696f6e20636f6e6669726d6174696f6e20657870697265640000000000000000602082015250565b7f566572696669636174696f6e56616c696461746f723a2063616c6c657220697360008201527f206e6f7420612074727573746564207665726966696572000000000000000000602082015250565b7f45434453413a20696e76616c6964207369676e6174757265202776272076616c60008201527f7565000000000000000000000000000000000000000000000000000000000000602082015250565b7f4f776e61626c653a2063616c6c6572206973206e6f7420746865206f776e6572600082015250565b7f56657269666961626c652043726564656e7469616c3a205369676e656420646960008201527f676573742063616e6e6f74206265207665726966696564000000000000000000602082015250565b7f566572696669636174696f6e56616c696461746f723a20556e6b6e6f776e205660008201527f6572696669657220416464726573730000000000000000000000000000000000602082015250565b7f4e6f7420656e6f75676820746f6b656e73000000000000000000000000000000600082015250565b7f56657269666961626c652043726564656e7469616c3a205472616e736665727360008201527f206f66207468697320616d6f756e7420726571756972652076616c696461746560208201527f416e645472616e73666572000000000000000000000000000000000000000000604082015250565b61216b81611c4b565b811461217657600080fd5b50565b61218281611c69565b811461218d57600080fd5b50565b61219981611c93565b81146121a457600080fd5b5056fea26469706673582212202c66a9165b00ad1c5f4e1e29ffc76c7441bdea62a2a7d1643b587509335ff83964736f6c63430008040033",
  "linkReferences": {},
  "deployedLinkReferences": {}
}