{
  "_format": "hh-sol-artifact-1",
  "contractName": "ThresholdToken",
  "sourceName": "contracts/ThresholdToken.sol",
  "abi": [
    {
      "inputs": [
        {
          "internalType": "uint256",
          "name": "initialSupply",
          "type": "uint256"
        }
      ],
      "stateMutability": "nonpayable",
      "type": "constructor"
    },
    {
      "anonymous": false,
      "inputs": [
        {
          "indexed": true,
          "internalType": "address",
          "name": "owner",
          "type": "address"
        },
        {
          "indexed": true,
          "internalType": "address",
          "name": "spender",
          "type": "address"
        },
        {
          "indexed": false,
          "internalType": "uint256",
          "name": "value",
          "type": "uint256"
        }
      ],
      "name": "Approval",
      "type": "event"
    },
    {
      "anonymous": false,
      "inputs": [
        {
          "indexed": true,
          "internalType": "address",
          "name": "previousOwner",
          "type": "address"
        },
        {
          "indexed": true,
          "internalType": "address",
          "name": "newOwner",
          "type": "address"
        }
      ],
      "name": "OwnershipTransferred",
      "type": "event"
    },
    {
      "anonymous": false,
      "inputs": [
        {
          "indexed": true,
          "internalType": "address",
          "name": "from",
          "type": "address"
        },
        {
          "indexed": true,
          "internalType": "address",
          "name": "to",
          "type": "address"
        },
        {
          "indexed": false,
          "internalType": "uint256",
          "name": "value",
          "type": "uint256"
        }
      ],
      "name": "Transfer",
      "type": "event"
    },
    {
      "anonymous": false,
      "inputs": [
        {
          "indexed": false,
          "internalType": "bytes32",
          "name": "uuid",
          "type": "bytes32"
        }
      ],
      "name": "VerificationRemoved",
      "type": "event"
    },
    {
      "anonymous": false,
      "inputs": [
        {
          "components": [
            {
              "internalType": "bytes32",
              "name": "uuid",
              "type": "bytes32"
            },
            {
              "internalType": "address",
              "name": "verifier",
              "type": "address"
            },
            {
              "internalType": "address",
              "name": "subject",
              "type": "address"
            },
            {
              "internalType": "uint256",
              "name": "entryTime",
              "type": "uint256"
            },
            {
              "internalType": "uint256",
              "name": "expirationTime",
              "type": "uint256"
            },
            {
              "internalType": "bool",
              "name": "revoked",
              "type": "bool"
            }
          ],
          "indexed": false,
          "internalType": "struct VerificationRecord",
          "name": "verificationRecord",
          "type": "tuple"
        }
      ],
      "name": "VerificationResultConfirmed",
      "type": "event"
    },
    {
      "anonymous": false,
      "inputs": [
        {
          "indexed": false,
          "internalType": "bytes32",
          "name": "uuid",
          "type": "bytes32"
        }
      ],
      "name": "VerificationRevoked",
      "type": "event"
    },
    {
      "anonymous": false,
      "inputs": [
        {
          "indexed": false,
          "internalType": "address",
          "name": "verifier",
          "type": "address"
        },
        {
          "components": [
            {
              "internalType": "bytes32",
              "name": "name",
              "type": "bytes32"
            },
            {
              "internalType": "string",
              "name": "did",
              "type": "string"
            },
            {
              "internalType": "string",
              "name": "url",
              "type": "string"
            },
            {
              "internalType": "address",
              "name": "signer",
              "type": "address"
            }
          ],
          "indexed": false,
          "internalType": "struct VerifierInfo",
          "name": "verifierInfo",
          "type": "tuple"
        }
      ],
      "name": "VerifierAdded",
      "type": "event"
    },
    {
      "anonymous": false,
      "inputs": [
        {
          "indexed": false,
          "internalType": "address",
          "name": "verifier",
          "type": "address"
        }
      ],
      "name": "VerifierRemoved",
      "type": "event"
    },
    {
      "anonymous": false,
      "inputs": [
        {
          "indexed": false,
          "internalType": "address",
          "name": "verifier",
          "type": "address"
        },
        {
          "components": [
            {
              "internalType": "bytes32",
              "name": "name",
              "type": "bytes32"
            },
            {
              "internalType": "string",
              "name": "did",
              "type": "string"
            },
            {
              "internalType": "string",
              "name": "url",
              "type": "string"
            },
            {
              "internalType": "address",
              "name": "signer",
              "type": "address"
            }
          ],
          "indexed": false,
          "internalType": "struct VerifierInfo",
          "name": "verifierInfo",
          "type": "tuple"
        }
      ],
      "name": "VerifierUpdated",
      "type": "event"
    },
    {
      "inputs": [
        {
          "internalType": "address",
          "name": "verifierAddress",
          "type": "address"
        },
        {
          "components": [
            {
              "internalType": "bytes32",
              "name": "name",
              "type": "bytes32"
            },
            {
              "internalType": "string",
              "name": "did",
              "type": "string"
            },
            {
              "internalType": "string",
              "name": "url",
              "type": "string"
            },
            {
              "internalType": "address",
              "name": "signer",
              "type": "address"
            }
          ],
          "internalType": "struct VerifierInfo",
          "name": "verifierInfo",
          "type": "tuple"
        }
      ],
      "name": "addVerifier",
      "outputs": [],
      "stateMutability": "nonpayable",
      "type": "function"
    },
    {
      "inputs": [
        {
          "internalType": "address",
          "name": "owner",
          "type": "address"
        },
        {
          "internalType": "address",
          "name": "spender",
          "type": "address"
        }
      ],
      "name": "allowance",
      "outputs": [
        {
          "internalType": "uint256",
          "name": "",
          "type": "uint256"
        }
      ],
      "stateMutability": "view",
      "type": "function"
    },
    {
      "inputs": [
        {
          "internalType": "address",
          "name": "spender",
          "type": "address"
        },
        {
          "internalType": "uint256",
          "name": "amount",
          "type": "uint256"
        }
      ],
      "name": "approve",
      "outputs": [
        {
          "internalType": "bool",
          "name": "",
          "type": "bool"
        }
      ],
      "stateMutability": "nonpayable",
      "type": "function"
    },
    {
      "inputs": [
        {
          "internalType": "address",
          "name": "account",
          "type": "address"
        }
      ],
      "name": "balanceOf",
      "outputs": [
        {
          "internalType": "uint256",
          "name": "",
          "type": "uint256"
        }
      ],
      "stateMutability": "view",
      "type": "function"
    },
    {
      "inputs": [],
      "name": "decimals",
      "outputs": [
        {
          "internalType": "uint8",
          "name": "",
          "type": "uint8"
        }
      ],
      "stateMutability": "view",
      "type": "function"
    },
    {
      "inputs": [
        {
          "internalType": "address",
          "name": "spender",
          "type": "address"
        },
        {
          "internalType": "uint256",
          "name": "subtractedValue",
          "type": "uint256"
        }
      ],
      "name": "decreaseAllowance",
      "outputs": [
        {
          "internalType": "bool",
          "name": "",
          "type": "bool"
        }
      ],
      "stateMutability": "nonpayable",
      "type": "function"
    },
    {
      "inputs": [],
      "name": "getThreshold",
      "outputs": [
        {
          "internalType": "uint256",
          "name": "",
          "type": "uint256"
        }
      ],
      "stateMutability": "view",
      "type": "function"
    },
    {
      "inputs": [
        {
          "internalType": "bytes32",
          "name": "uuid",
          "type": "bytes32"
        }
      ],
      "name": "getVerification",
      "outputs": [
        {
          "components": [
            {
              "internalType": "bytes32",
              "name": "uuid",
              "type": "bytes32"
            },
            {
              "internalType": "address",
              "name": "verifier",
              "type": "address"
            },
            {
              "internalType": "address",
              "name": "subject",
              "type": "address"
            },
            {
              "internalType": "uint256",
              "name": "entryTime",
              "type": "uint256"
            },
            {
              "internalType": "uint256",
              "name": "expirationTime",
              "type": "uint256"
            },
            {
              "internalType": "bool",
              "name": "revoked",
              "type": "bool"
            }
          ],
          "internalType": "struct VerificationRecord",
          "name": "",
          "type": "tuple"
        }
      ],
      "stateMutability": "view",
      "type": "function"
    },
    {
      "inputs": [],
      "name": "getVerificationCount",
      "outputs": [
        {
          "internalType": "uint256",
          "name": "",
          "type": "uint256"
        }
      ],
      "stateMutability": "view",
      "type": "function"
    },
    {
      "inputs": [
        {
          "internalType": "address",
          "name": "subject",
          "type": "address"
        }
      ],
      "name": "getVerificationsForSubject",
      "outputs": [
        {
          "components": [
            {
              "internalType": "bytes32",
              "name": "uuid",
              "type": "bytes32"
            },
            {
              "internalType": "address",
              "name": "verifier",
              "type": "address"
            },
            {
              "internalType": "address",
              "name": "subject",
              "type": "address"
            },
            {
              "internalType": "uint256",
              "name": "entryTime",
              "type": "uint256"
            },
            {
              "internalType": "uint256",
              "name": "expirationTime",
              "type": "uint256"
            },
            {
              "internalType": "bool",
              "name": "revoked",
              "type": "bool"
            }
          ],
          "internalType": "struct VerificationRecord[]",
          "name": "",
          "type": "tuple[]"
        }
      ],
      "stateMutability": "view",
      "type": "function"
    },
    {
      "inputs": [
        {
          "internalType": "address",
          "name": "verifier",
          "type": "address"
        }
      ],
      "name": "getVerificationsForVerifier",
      "outputs": [
        {
          "components": [
            {
              "internalType": "bytes32",
              "name": "uuid",
              "type": "bytes32"
            },
            {
              "internalType": "address",
              "name": "verifier",
              "type": "address"
            },
            {
              "internalType": "address",
              "name": "subject",
              "type": "address"
            },
            {
              "internalType": "uint256",
              "name": "entryTime",
              "type": "uint256"
            },
            {
              "internalType": "uint256",
              "name": "expirationTime",
              "type": "uint256"
            },
            {
              "internalType": "bool",
              "name": "revoked",
              "type": "bool"
            }
          ],
          "internalType": "struct VerificationRecord[]",
          "name": "",
          "type": "tuple[]"
        }
      ],
      "stateMutability": "view",
      "type": "function"
    },
    {
      "inputs": [
        {
          "internalType": "address",
          "name": "verifierAddress",
          "type": "address"
        }
      ],
      "name": "getVerifier",
      "outputs": [
        {
          "components": [
            {
              "internalType": "bytes32",
              "name": "name",
              "type": "bytes32"
            },
            {
              "internalType": "string",
              "name": "did",
              "type": "string"
            },
            {
              "internalType": "string",
              "name": "url",
              "type": "string"
            },
            {
              "internalType": "address",
              "name": "signer",
              "type": "address"
            }
          ],
          "internalType": "struct VerifierInfo",
          "name": "",
          "type": "tuple"
        }
      ],
      "stateMutability": "view",
      "type": "function"
    },
    {
      "inputs": [],
      "name": "getVerifierCount",
      "outputs": [
        {
          "internalType": "uint256",
          "name": "",
          "type": "uint256"
        }
      ],
      "stateMutability": "view",
      "type": "function"
    },
    {
      "inputs": [
        {
          "internalType": "address",
          "name": "spender",
          "type": "address"
        },
        {
          "internalType": "uint256",
          "name": "addedValue",
          "type": "uint256"
        }
      ],
      "name": "increaseAllowance",
      "outputs": [
        {
          "internalType": "bool",
          "name": "",
          "type": "bool"
        }
      ],
      "stateMutability": "nonpayable",
      "type": "function"
    },
    {
      "inputs": [
        {
          "internalType": "address",
          "name": "subject",
          "type": "address"
        }
      ],
      "name": "isVerified",
      "outputs": [
        {
          "internalType": "bool",
          "name": "",
          "type": "bool"
        }
      ],
      "stateMutability": "view",
      "type": "function"
    },
    {
      "inputs": [
        {
          "internalType": "address",
          "name": "account",
          "type": "address"
        }
      ],
      "name": "isVerifier",
      "outputs": [
        {
          "internalType": "bool",
          "name": "",
          "type": "bool"
        }
      ],
      "stateMutability": "view",
      "type": "function"
    },
    {
      "inputs": [],
      "name": "name",
      "outputs": [
        {
          "internalType": "string",
          "name": "",
          "type": "string"
        }
      ],
      "stateMutability": "view",
      "type": "function"
    },
    {
      "inputs": [],
      "name": "owner",
      "outputs": [
        {
          "internalType": "address",
          "name": "",
          "type": "address"
        }
      ],
      "stateMutability": "view",
      "type": "function"
    },
    {
      "inputs": [
        {
          "components": [
            {
              "internalType": "string",
              "name": "schema",
              "type": "string"
            },
            {
              "internalType": "address",
              "name": "subject",
              "type": "address"
            },
            {
              "internalType": "uint256",
              "name": "expiration",
              "type": "uint256"
            },
            {
              "internalType": "bytes32",
              "name": "payload",
              "type": "bytes32"
            }
          ],
          "internalType": "struct VerificationResult",
          "name": "verificationResult",
          "type": "tuple"
        },
        {
          "internalType": "bytes",
          "name": "signature",
          "type": "bytes"
        }
      ],
      "name": "registerVerification",
      "outputs": [
        {
          "components": [
            {
              "internalType": "bytes32",
              "name": "uuid",
              "type": "bytes32"
            },
            {
              "internalType": "address",
              "name": "verifier",
              "type": "address"
            },
            {
              "internalType": "address",
              "name": "subject",
              "type": "address"
            },
            {
              "internalType": "uint256",
              "name": "entryTime",
              "type": "uint256"
            },
            {
              "internalType": "uint256",
              "name": "expirationTime",
              "type": "uint256"
            },
            {
              "internalType": "bool",
              "name": "revoked",
              "type": "bool"
            }
          ],
          "internalType": "struct VerificationRecord",
          "name": "",
          "type": "tuple"
        }
      ],
      "stateMutability": "nonpayable",
      "type": "function"
    },
    {
      "inputs": [
        {
          "internalType": "bytes32",
          "name": "uuid",
          "type": "bytes32"
        }
      ],
      "name": "removeVerification",
      "outputs": [],
      "stateMutability": "nonpayable",
      "type": "function"
    },
    {
      "inputs": [
        {
          "internalType": "address",
          "name": "verifierAddress",
          "type": "address"
        }
      ],
      "name": "removeVerifier",
      "outputs": [],
      "stateMutability": "nonpayable",
      "type": "function"
    },
    {
      "inputs": [],
      "name": "renounceOwnership",
      "outputs": [],
      "stateMutability": "nonpayable",
      "type": "function"
    },
    {
      "inputs": [
        {
          "internalType": "bytes32",
          "name": "uuid",
          "type": "bytes32"
        }
      ],
      "name": "revokeVerification",
      "outputs": [],
      "stateMutability": "nonpayable",
      "type": "function"
    },
    {
      "inputs": [
        {
          "internalType": "uint256",
          "name": "t",
          "type": "uint256"
        }
      ],
      "name": "setThreshold",
      "outputs": [],
      "stateMutability": "nonpayable",
      "type": "function"
    },
    {
      "inputs": [],
      "name": "symbol",
      "outputs": [
        {
          "internalType": "string",
          "name": "",
          "type": "string"
        }
      ],
      "stateMutability": "view",
      "type": "function"
    },
    {
      "inputs": [],
      "name": "totalSupply",
      "outputs": [
        {
          "internalType": "uint256",
          "name": "",
          "type": "uint256"
        }
      ],
      "stateMutability": "view",
      "type": "function"
    },
    {
      "inputs": [
        {
          "internalType": "address",
          "name": "recipient",
          "type": "address"
        },
        {
          "internalType": "uint256",
          "name": "amount",
          "type": "uint256"
        }
      ],
      "name": "transfer",
      "outputs": [
        {
          "internalType": "bool",
          "name": "",
          "type": "bool"
        }
      ],
      "stateMutability": "nonpayable",
      "type": "function"
    },
    {
      "inputs": [
        {
          "internalType": "address",
          "name": "sender",
          "type": "address"
        },
        {
          "internalType": "address",
          "name": "recipient",
          "type": "address"
        },
        {
          "internalType": "uint256",
          "name": "amount",
          "type": "uint256"
        }
      ],
      "name": "transferFrom",
      "outputs": [
        {
          "internalType": "bool",
          "name": "",
          "type": "bool"
        }
      ],
      "stateMutability": "nonpayable",
      "type": "function"
    },
    {
      "inputs": [
        {
          "internalType": "address",
          "name": "newOwner",
          "type": "address"
        }
      ],
      "name": "transferOwnership",
      "outputs": [],
      "stateMutability": "nonpayable",
      "type": "function"
    },
    {
      "inputs": [
        {
          "internalType": "address",
          "name": "verifierAddress",
          "type": "address"
        },
        {
          "components": [
            {
              "internalType": "bytes32",
              "name": "name",
              "type": "bytes32"
            },
            {
              "internalType": "string",
              "name": "did",
              "type": "string"
            },
            {
              "internalType": "string",
              "name": "url",
              "type": "string"
            },
            {
              "internalType": "address",
              "name": "signer",
              "type": "address"
            }
          ],
          "internalType": "struct VerifierInfo",
          "name": "verifierInfo",
          "type": "tuple"
        }
      ],
      "name": "updateVerifier",
      "outputs": [],
      "stateMutability": "nonpayable",
      "type": "function"
    },
    {
      "inputs": [
        {
          "internalType": "address",
          "name": "to",
          "type": "address"
        },
        {
          "internalType": "uint256",
          "name": "amount",
          "type": "uint256"
        },
        {
          "components": [
            {
              "internalType": "string",
              "name": "schema",
              "type": "string"
            },
            {
              "internalType": "address",
              "name": "subject",
              "type": "address"
            },
            {
              "internalType": "uint256",
              "name": "expiration",
              "type": "uint256"
            },
            {
              "internalType": "bytes32",
              "name": "payload",
              "type": "bytes32"
            }
          ],
          "internalType": "struct VerificationResult",
          "name": "verificationResult",
          "type": "tuple"
        },
        {
          "internalType": "bytes",
          "name": "signature",
          "type": "bytes"
        }
      ],
      "name": "validateAndTransfer",
      "outputs": [],
      "stateMutability": "nonpayable",
      "type": "function"
    }
  ],
  "bytecode": "0x610120604052600a600d553480156200001757600080fd5b50604051620064753803806200647583398181016040528101906200003d9190620006ff565b6040518060400160405280601481526020017f566572696669636174696f6e52656769737472790000000000000000000000008152506040518060400160405280600381526020017f312e3000000000000000000000000000000000000000000000000000000000008152506040518060400160405280601681526020017f5468726573686f6c64204578616d706c6520436f696e000000000000000000008152506040518060400160405280600581526020017f544855534400000000000000000000000000000000000000000000000000000081525081600390805190602001906200012d929190620005f5565b50806004908051906020019062000146929190620005f5565b505050620001696200015d620001ff60201b60201c565b6200020760201b60201c565b60008280519060200120905060008280519060200120905060007f8b73c3c69bb8fe3d512ecc4cf759cc79239f7b179b0ffacaa9a75d522b39400f90508260c081815250508160e081815250504660a08181525050620001d1818484620002cd60201b60201c565b608081815250508061010081815250505050505050620001f833826200030960201b60201c565b5062000aaf565b600033905090565b6000600560009054906101000a900473ffffffffffffffffffffffffffffffffffffffff16905081600560006101000a81548173ffffffffffffffffffffffffffffffffffffffff021916908373ffffffffffffffffffffffffffffffffffffffff1602179055508173ffffffffffffffffffffffffffffffffffffffff168173ffffffffffffffffffffffffffffffffffffffff167f8be0079c531659141344cd1fd0a4f28419497f9722a3daafe3b4186f6b6457e060405160405180910390a35050565b60008383834630604051602001620002ea959493929190620007c9565b6040516020818303038152906040528051906020012090509392505050565b600073ffffffffffffffffffffffffffffffffffffffff168273ffffffffffffffffffffffffffffffffffffffff1614156200037c576040517f08c379a0000000000000000000000000000000000000000000000000000000008152600401620003739062000848565b60405180910390fd5b62000390600083836200048260201b60201c565b8060026000828254620003a4919062000898565b92505081905550806000808473ffffffffffffffffffffffffffffffffffffffff1673ffffffffffffffffffffffffffffffffffffffff1681526020019081526020016000206000828254620003fb919062000898565b925050819055508173ffffffffffffffffffffffffffffffffffffffff16600073ffffffffffffffffffffffffffffffffffffffff167fddf252ad1be2c89b69c2b068fc378daa952ba7f163c4a11628f55a4df523b3ef836040516200046291906200086a565b60405180910390a36200047e60008383620005c160201b60201c565b5050565b6200049a838383620005c660201b620027d41760201c565b3373ffffffffffffffffffffffffffffffffffffffff16620004c1620005cb60201b60201c565b73ffffffffffffffffffffffffffffffffffffffff1614620005bc57600d548110806200057957503073ffffffffffffffffffffffffffffffffffffffff1663b9209e33846040518263ffffffff1660e01b8152600401620005249190620007ac565b60206040518083038186803b1580156200053d57600080fd5b505afa15801562000552573d6000803e3d6000fd5b505050506040513d601f19601f82011682018060405250810190620005789190620006d3565b5b620005bb576040517f08c379a0000000000000000000000000000000000000000000000000000000008152600401620005b29062000826565b60405180910390fd5b5b505050565b505050565b505050565b6000600560009054906101000a900473ffffffffffffffffffffffffffffffffffffffff16905090565b828054620006039062000949565b90600052602060002090601f01602090048101928262000627576000855562000673565b82601f106200064257805160ff191683800117855562000673565b8280016001018555821562000673579182015b828111156200067257825182559160200191906001019062000655565b5b50905062000682919062000686565b5090565b5b80821115620006a157600081600090555060010162000687565b5090565b600081519050620006b68162000a7b565b92915050565b600081519050620006cd8162000a95565b92915050565b600060208284031215620006e657600080fd5b6000620006f684828501620006a5565b91505092915050565b6000602082840312156200071257600080fd5b60006200072284828501620006bc565b91505092915050565b6200073681620008f5565b82525050565b620007478162000915565b82525050565b60006200075c60448362000887565b91506200076982620009dd565b606082019050919050565b600062000783601f8362000887565b9150620007908262000a52565b602082019050919050565b620007a6816200093f565b82525050565b6000602082019050620007c360008301846200072b565b92915050565b600060a082019050620007e060008301886200073c565b620007ef60208301876200073c565b620007fe60408301866200073c565b6200080d60608301856200079b565b6200081c60808301846200072b565b9695505050505050565b6000602082019050818103600083015262000841816200074d565b9050919050565b60006020820190508181036000830152620008638162000774565b9050919050565b60006020820190506200088160008301846200079b565b92915050565b600082825260208201905092915050565b6000620008a5826200093f565b9150620008b2836200093f565b9250827fffffffffffffffffffffffffffffffffffffffffffffffffffffffffffffffff03821115620008ea57620008e96200097f565b5b828201905092915050565b600062000902826200091f565b9050919050565b60008115159050919050565b6000819050919050565b600073ffffffffffffffffffffffffffffffffffffffff82169050919050565b6000819050919050565b600060028204905060018216806200096257607f821691505b60208210811415620009795762000978620009ae565b5b50919050565b7f4e487b7100000000000000000000000000000000000000000000000000000000600052601160045260246000fd5b7f4e487b7100000000000000000000000000000000000000000000000000000000600052602260045260246000fd5b7f5468726573686f6c64546f6b656e3a205472616e7366657273206f662074686960008201527f7320616d6f756e7420726571756972652073656e64657220766572696669636160208201527f74696f6e00000000000000000000000000000000000000000000000000000000604082015250565b7f45524332303a206d696e7420746f20746865207a65726f206164647265737300600082015250565b62000a868162000909565b811462000a9257600080fd5b50565b62000aa0816200093f565b811462000aac57600080fd5b50565b60805160a05160c05160e0516101005161598162000af460003960006134470152600061348901526000613468015260006133f40152600061341c01526159816000f3fe608060405234801561001057600080fd5b50600436106101e55760003560e01c8063715018a61161010f578063a9059cbb116100a2578063dd62ed3e11610071578063dd62ed3e146105ca578063e75235b8146105fa578063ed2ffd2814610618578063f2fde38b14610648576101e5565b8063a9059cbb14610530578063b9209e3314610560578063b9c688a714610590578063ca2dfd0a146105ae576101e5565b806395d89b41116100de57806395d89b41146104aa578063960bfe04146104c857806399cf1a1d146104e4578063a457c2d714610500576101e5565b8063715018a6146104365780638da5cb5b146104405780638f38f8721461045e57806394ef24401461047a576101e5565b806323b872dd11610187578063417469a711610156578063417469a7146103b25780634e4de26d146103ce57806370a08231146103ea57806370eba1241461041a576101e5565b806323b872dd14610304578063313ce5671461033457806333105218146103525780633950935114610382576101e5565b80630e9e848f116101c35780630e9e848f1461026857806315e5ec2b1461029857806318160ddd146102c85780631f05b374146102e6576101e5565b8063059ce95d146101ea57806306fdde031461021a578063095ea7b314610238575b600080fd5b61020460048036038101906101ff9190613e2e565b610664565b6040516102119190614d0f565b60405180910390f35b6102226108c9565b60405161022f91906149b2565b60405180910390f35b610252600480360381019061024d9190613f36565b61095b565b60405161025f9190614891565b60405180910390f35b610282600480360381019061027d9190613e2e565b610979565b60405161028f919061486f565b60405180910390f35b6102b260048036038101906102ad9190614057565b610cb3565b6040516102bf9190614cf4565b60405180910390f35b6102d0610e16565b6040516102dd9190614d31565b60405180910390f35b6102ee610e20565b6040516102fb9190614d31565b60405180910390f35b61031e60048036038101906103199190613e93565b610e2a565b60405161032b9190614891565b60405180910390f35b61033c610f22565b6040516103499190614d4c565b60405180910390f35b61036c60048036038101906103679190613e2e565b610f27565b6040516103799190614891565b60405180910390f35b61039c60048036038101906103979190613f36565b610f79565b6040516103a99190614891565b60405180910390f35b6103cc60048036038101906103c79190613ee2565b611025565b005b6103e860048036038101906103e3919061402e565b6112b6565b005b61040460048036038101906103ff9190613e2e565b6114ac565b6040516104119190614d31565b60405180910390f35b610434600480360381019061042f919061402e565b6114f4565b005b61043e611689565b005b610448611711565b6040516104559190614824565b60405180910390f35b61047860048036038101906104739190613f72565b61173b565b005b610494600480360381019061048f919061402e565b6117e5565b6040516104a19190614cf4565b60405180910390f35b6104b26118f7565b6040516104bf91906149b2565b60405180910390f35b6104e260048036038101906104dd91906140c3565b611989565b005b6104fe60048036038101906104f99190613ee2565b611a0f565b005b61051a60048036038101906105159190613f36565b611cb7565b6040516105279190614891565b60405180910390f35b61054a60048036038101906105459190613f36565b611da2565b6040516105579190614891565b60405180910390f35b61057a60048036038101906105759190613e2e565b611dc0565b6040516105879190614891565b60405180910390f35b61059861205c565b6040516105a59190614d31565b60405180910390f35b6105c860048036038101906105c39190613e2e565b612066565b005b6105e460048036038101906105df9190613e57565b612311565b6040516105f19190614d31565b60405180910390f35b610602612398565b60405161060f9190614d31565b60405180910390f35b610632600480360381019061062d9190613e2e565b6123a2565b60405161063f919061486f565b60405180910390f35b610662600480360381019061065d9190613e2e565b6126dc565b005b61066c613a4f565b6000801b600660008473ffffffffffffffffffffffffffffffffffffffff1673ffffffffffffffffffffffffffffffffffffffff1681526020019081526020016000206000015414156106f4576040517f08c379a00000000000000000000000000000000000000000000000000000000081526004016106eb90614bf4565b60405180910390fd5b600660008373ffffffffffffffffffffffffffffffffffffffff1673ffffffffffffffffffffffffffffffffffffffff1681526020019081526020016000206040518060800160405290816000820154815260200160018201805461075890614f80565b80601f016020809104026020016040519081016040528092919081815260200182805461078490614f80565b80156107d15780601f106107a6576101008083540402835291602001916107d1565b820191906000526020600020905b8154815290600101906020018083116107b457829003601f168201915b505050505081526020016002820180546107ea90614f80565b80601f016020809104026020016040519081016040528092919081815260200182805461081690614f80565b80156108635780601f1061083857610100808354040283529160200191610863565b820191906000526020600020905b81548152906001019060200180831161084657829003601f168201915b505050505081526020016003820160009054906101000a900473ffffffffffffffffffffffffffffffffffffffff1673ffffffffffffffffffffffffffffffffffffffff1673ffffffffffffffffffffffffffffffffffffffff16815250509050919050565b6060600380546108d890614f80565b80601f016020809104026020016040519081016040528092919081815260200182805461090490614f80565b80156109515780601f1061092657610100808354040283529160200191610951565b820191906000526020600020905b81548152906001019060200180831161093457829003601f168201915b5050505050905090565b600061096f6109686127d9565b84846127e1565b6001905092915050565b6060600073ffffffffffffffffffffffffffffffffffffffff168273ffffffffffffffffffffffffffffffffffffffff1614156109eb576040517f08c379a00000000000000000000000000000000000000000000000000000000081526004016109e290614cb4565b60405180910390fd5b6000600b60008473ffffffffffffffffffffffffffffffffffffffff1673ffffffffffffffffffffffffffffffffffffffff168152602001908152602001600020805480602002602001604051908101604052809291908181526020018280548015610a7657602002820191906000526020600020905b815481526020019060010190808311610a62575b505050505090506000815167ffffffffffffffff811115610ac0577f4e487b7100000000000000000000000000000000000000000000000000000000600052604160045260246000fd5b604051908082528060200260200182016040528015610af957816020015b610ae6613a90565b815260200190600190039081610ade5790505b50905060005b8251811015610ca857600060096000858481518110610b47577f4e487b7100000000000000000000000000000000000000000000000000000000600052603260045260246000fd5b602002602001015181526020019081526020016000206040518060c0016040529081600082015481526020016001820160009054906101000a900473ffffffffffffffffffffffffffffffffffffffff1673ffffffffffffffffffffffffffffffffffffffff1673ffffffffffffffffffffffffffffffffffffffff1681526020016002820160009054906101000a900473ffffffffffffffffffffffffffffffffffffffff1673ffffffffffffffffffffffffffffffffffffffff1673ffffffffffffffffffffffffffffffffffffffff16815260200160038201548152602001600482015481526020016005820160009054906101000a900460ff161515151581525050905080838381518110610c89577f4e487b7100000000000000000000000000000000000000000000000000000000600052603260045260246000fd5b6020026020010181905250508080610ca090614fe3565b915050610aff565b508092505050919050565b610cbb613a90565b6000801b600660003373ffffffffffffffffffffffffffffffffffffffff1673ffffffffffffffffffffffffffffffffffffffff168152602001908152602001600020600001541415610d43576040517f08c379a0000000000000000000000000000000000000000000000000000000008152600401610d3a90614ab4565b60405180910390fd5b610d4c836129ac565b6000610d5884846129af565b90503373ffffffffffffffffffffffffffffffffffffffff16816020015173ffffffffffffffffffffffffffffffffffffffff1614610dcc576040517f08c379a0000000000000000000000000000000000000000000000000000000008152600401610dc390614ad4565b60405180910390fd5b610dd581612c41565b7fb13e5e7efcce7bbc67740f0fe050563d4fd1f5cc7096c3a32cb901711c95ab5481604051610e049190614cf4565b60405180910390a18091505092915050565b6000600254905090565b6000600854905090565b6000610e37848484612e1f565b6000600160008673ffffffffffffffffffffffffffffffffffffffff1673ffffffffffffffffffffffffffffffffffffffff1681526020019081526020016000206000610e826127d9565b73ffffffffffffffffffffffffffffffffffffffff1673ffffffffffffffffffffffffffffffffffffffff16815260200190815260200160002054905082811015610f02576040517f08c379a0000000000000000000000000000000000000000000000000000000008152600401610ef990614bb4565b60405180910390fd5b610f1685610f0e6127d9565b8584036127e1565b60019150509392505050565b600090565b60008060001b600660008473ffffffffffffffffffffffffffffffffffffffff1673ffffffffffffffffffffffffffffffffffffffff1681526020019081526020016000206000015414159050919050565b600061101b610f866127d9565b848460016000610f946127d9565b73ffffffffffffffffffffffffffffffffffffffff1673ffffffffffffffffffffffffffffffffffffffff16815260200190815260200160002060008873ffffffffffffffffffffffffffffffffffffffff1673ffffffffffffffffffffffffffffffffffffffff168152602001908152602001600020546110169190614e5f565b6127e1565b6001905092915050565b61102d6127d9565b73ffffffffffffffffffffffffffffffffffffffff1661104b611711565b73ffffffffffffffffffffffffffffffffffffffff16146110a1576040517f08c379a000000000000000000000000000000000000000000000000000000000815260040161109890614bd4565b60405180910390fd5b6000801b600660008473ffffffffffffffffffffffffffffffffffffffff1673ffffffffffffffffffffffffffffffffffffffff168152602001908152602001600020600001541415611129576040517f08c379a000000000000000000000000000000000000000000000000000000000815260040161112090614bf4565b60405180910390fd5b80600660008473ffffffffffffffffffffffffffffffffffffffff1673ffffffffffffffffffffffffffffffffffffffff16815260200190815260200160002060008201518160000155602082015181600101908051906020019061118f929190613af7565b5060408201518160020190805190602001906111ac929190613af7565b5060608201518160030160006101000a81548173ffffffffffffffffffffffffffffffffffffffff021916908373ffffffffffffffffffffffffffffffffffffffff1602179055509050508160076000836060015173ffffffffffffffffffffffffffffffffffffffff1673ffffffffffffffffffffffffffffffffffffffff16815260200190815260200160002060006101000a81548173ffffffffffffffffffffffffffffffffffffffff021916908373ffffffffffffffffffffffffffffffffffffffff1602179055507fcf8ca726ba9d58efa48fa96d3184c211fcce84e8b5e9a3c83c10c1ba9fd392c682826040516112aa92919061483f565b60405180910390a15050565b6000801b600660003373ffffffffffffffffffffffffffffffffffffffff1673ffffffffffffffffffffffffffffffffffffffff16815260200190815260200160002060000154141561133e576040517f08c379a000000000000000000000000000000000000000000000000000000000815260040161133590614ab4565b60405180910390fd5b3373ffffffffffffffffffffffffffffffffffffffff166009600083815260200190815260200160002060010160009054906101000a900473ffffffffffffffffffffffffffffffffffffffff1673ffffffffffffffffffffffffffffffffffffffff16146113e2576040517f08c379a00000000000000000000000000000000000000000000000000000000081526004016113d990614c14565b60405180910390fd5b600960008281526020019081526020016000206000808201600090556001820160006101000a81549073ffffffffffffffffffffffffffffffffffffffff02191690556002820160006101000a81549073ffffffffffffffffffffffffffffffffffffffff0219169055600382016000905560048201600090556005820160006101000a81549060ff021916905550507f9abf56d49e4ef717f3418600d3ed66048ca2ed8e3e630a70b76a71dd2142def5816040516114a191906148ac565b60405180910390a150565b60008060008373ffffffffffffffffffffffffffffffffffffffff1673ffffffffffffffffffffffffffffffffffffffff168152602001908152602001600020549050919050565b6000801b600660003373ffffffffffffffffffffffffffffffffffffffff1673ffffffffffffffffffffffffffffffffffffffff16815260200190815260200160002060000154141561157c576040517f08c379a000000000000000000000000000000000000000000000000000000000815260040161157390614ab4565b60405180910390fd5b3373ffffffffffffffffffffffffffffffffffffffff166009600083815260200190815260200160002060010160009054906101000a900473ffffffffffffffffffffffffffffffffffffffff1673ffffffffffffffffffffffffffffffffffffffff1614611620576040517f08c379a000000000000000000000000000000000000000000000000000000000815260040161161790614c74565b60405180910390fd5b60016009600083815260200190815260200160002060050160006101000a81548160ff0219169083151502179055507f071ad1bb208a373a52e72fe5d8aa7755d658f88e197e666bf1a6d09d0ddb50568160405161167e91906148ac565b60405180910390a150565b6116916127d9565b73ffffffffffffffffffffffffffffffffffffffff166116af611711565b73ffffffffffffffffffffffffffffffffffffffff1614611705576040517f08c379a00000000000000000000000000000000000000000000000000000000081526004016116fc90614bd4565b60405180910390fd5b61170f60006130a0565b565b6000600560009054906101000a900473ffffffffffffffffffffffffffffffffffffffff16905090565b3073ffffffffffffffffffffffffffffffffffffffff1663b9209e33336040518263ffffffff1660e01b81526004016117749190614824565b60206040518083038186803b15801561178c57600080fd5b505afa1580156117a0573d6000803e3d6000fd5b505050506040513d601f19601f820116820180604052508101906117c49190614005565b6117d4576117d28282613166565b505b6117de8484611da2565b5050505050565b6117ed613a90565b600960008381526020019081526020016000206040518060c0016040529081600082015481526020016001820160009054906101000a900473ffffffffffffffffffffffffffffffffffffffff1673ffffffffffffffffffffffffffffffffffffffff1673ffffffffffffffffffffffffffffffffffffffff1681526020016002820160009054906101000a900473ffffffffffffffffffffffffffffffffffffffff1673ffffffffffffffffffffffffffffffffffffffff1673ffffffffffffffffffffffffffffffffffffffff16815260200160038201548152602001600482015481526020016005820160009054906101000a900460ff1615151515815250509050919050565b60606004805461190690614f80565b80601f016020809104026020016040519081016040528092919081815260200182805461193290614f80565b801561197f5780601f106119545761010080835404028352916020019161197f565b820191906000526020600020905b81548152906001019060200180831161196257829003601f168201915b5050505050905090565b6119916127d9565b73ffffffffffffffffffffffffffffffffffffffff166119af611711565b73ffffffffffffffffffffffffffffffffffffffff1614611a05576040517f08c379a00000000000000000000000000000000000000000000000000000000081526004016119fc90614bd4565b60405180910390fd5b80600d8190555050565b611a176127d9565b73ffffffffffffffffffffffffffffffffffffffff16611a35611711565b73ffffffffffffffffffffffffffffffffffffffff1614611a8b576040517f08c379a0000000000000000000000000000000000000000000000000000000008152600401611a8290614bd4565b60405180910390fd5b6000801b600660008473ffffffffffffffffffffffffffffffffffffffff1673ffffffffffffffffffffffffffffffffffffffff1681526020019081526020016000206000015414611b12576040517f08c379a0000000000000000000000000000000000000000000000000000000008152600401611b0990614b34565b60405180910390fd5b80600660008473ffffffffffffffffffffffffffffffffffffffff1673ffffffffffffffffffffffffffffffffffffffff168152602001908152602001600020600082015181600001556020820151816001019080519060200190611b78929190613af7565b506040820151816002019080519060200190611b95929190613af7565b5060608201518160030160006101000a81548173ffffffffffffffffffffffffffffffffffffffff021916908373ffffffffffffffffffffffffffffffffffffffff1602179055509050508160076000836060015173ffffffffffffffffffffffffffffffffffffffff1673ffffffffffffffffffffffffffffffffffffffff16815260200190815260200160002060006101000a81548173ffffffffffffffffffffffffffffffffffffffff021916908373ffffffffffffffffffffffffffffffffffffffff16021790555060086000815480929190611c7590614fe3565b91905055507f57fdb74cb7ec2177b327961b74feef54dcb8102656cf6484ea992a84eb1bb4d08282604051611cab92919061483f565b60405180910390a15050565b60008060016000611cc66127d9565b73ffffffffffffffffffffffffffffffffffffffff1673ffffffffffffffffffffffffffffffffffffffff16815260200190815260200160002060008573ffffffffffffffffffffffffffffffffffffffff1673ffffffffffffffffffffffffffffffffffffffff16815260200190815260200160002054905082811015611d83576040517f08c379a0000000000000000000000000000000000000000000000000000000008152600401611d7a90614cd4565b60405180910390fd5b611d97611d8e6127d9565b858584036127e1565b600191505092915050565b6000611db6611daf6127d9565b8484612e1f565b6001905092915050565b60008073ffffffffffffffffffffffffffffffffffffffff168273ffffffffffffffffffffffffffffffffffffffff161415611e31576040517f08c379a0000000000000000000000000000000000000000000000000000000008152600401611e2890614cb4565b60405180910390fd5b6000600a60008473ffffffffffffffffffffffffffffffffffffffff1673ffffffffffffffffffffffffffffffffffffffff168152602001908152602001600020805480602002602001604051908101604052809291908181526020018280548015611ebc57602002820191906000526020600020905b815481526020019060010190808311611ea8575b5050505050905060005b815181101561205057600060096000848481518110611f0e577f4e487b7100000000000000000000000000000000000000000000000000000000600052603260045260246000fd5b602002602001015181526020019081526020016000206040518060c0016040529081600082015481526020016001820160009054906101000a900473ffffffffffffffffffffffffffffffffffffffff1673ffffffffffffffffffffffffffffffffffffffff1673ffffffffffffffffffffffffffffffffffffffff1681526020016002820160009054906101000a900473ffffffffffffffffffffffffffffffffffffffff1673ffffffffffffffffffffffffffffffffffffffff1673ffffffffffffffffffffffffffffffffffffffff16815260200160038201548152602001600482015481526020016005820160009054906101000a900460ff16151515158152505090508060a0015115801561202b5750428160800151115b1561203c5760019350505050612057565b50808061204890614fe3565b915050611ec6565b5060009150505b919050565b6000600854905090565b61206e6127d9565b73ffffffffffffffffffffffffffffffffffffffff1661208c611711565b73ffffffffffffffffffffffffffffffffffffffff16146120e2576040517f08c379a00000000000000000000000000000000000000000000000000000000081526004016120d990614bd4565b60405180910390fd5b6000801b600660008373ffffffffffffffffffffffffffffffffffffffff1673ffffffffffffffffffffffffffffffffffffffff16815260200190815260200160002060000154141561216a576040517f08c379a000000000000000000000000000000000000000000000000000000000815260040161216190614b54565b60405180910390fd5b60076000600660008473ffffffffffffffffffffffffffffffffffffffff1673ffffffffffffffffffffffffffffffffffffffff16815260200190815260200160002060030160009054906101000a900473ffffffffffffffffffffffffffffffffffffffff1673ffffffffffffffffffffffffffffffffffffffff1673ffffffffffffffffffffffffffffffffffffffff16815260200190815260200160002060006101000a81549073ffffffffffffffffffffffffffffffffffffffff0219169055600660008273ffffffffffffffffffffffffffffffffffffffff1673ffffffffffffffffffffffffffffffffffffffff1681526020019081526020016000206000808201600090556001820160006122869190613b7d565b6002820160006122969190613b7d565b6003820160006101000a81549073ffffffffffffffffffffffffffffffffffffffff02191690555050600860008154809291906122d290614f56565b91905055507f44a3cd4eb5cc5748f6169df057b1cb2ae4c383e87cd94663c430e095d4cba424816040516123069190614824565b60405180910390a150565b6000600160008473ffffffffffffffffffffffffffffffffffffffff1673ffffffffffffffffffffffffffffffffffffffff16815260200190815260200160002060008373ffffffffffffffffffffffffffffffffffffffff1673ffffffffffffffffffffffffffffffffffffffff16815260200190815260200160002054905092915050565b6000600d54905090565b6060600073ffffffffffffffffffffffffffffffffffffffff168273ffffffffffffffffffffffffffffffffffffffff161415612414576040517f08c379a000000000000000000000000000000000000000000000000000000000815260040161240b90614cb4565b60405180910390fd5b6000600a60008473ffffffffffffffffffffffffffffffffffffffff1673ffffffffffffffffffffffffffffffffffffffff16815260200190815260200160002080548060200260200160405190810160405280929190818152602001828054801561249f57602002820191906000526020600020905b81548152602001906001019080831161248b575b505050505090506000815167ffffffffffffffff8111156124e9577f4e487b7100000000000000000000000000000000000000000000000000000000600052604160045260246000fd5b60405190808252806020026020018201604052801561252257816020015b61250f613a90565b8152602001906001900390816125075790505b50905060005b82518110156126d157600060096000858481518110612570577f4e487b7100000000000000000000000000000000000000000000000000000000600052603260045260246000fd5b602002602001015181526020019081526020016000206040518060c0016040529081600082015481526020016001820160009054906101000a900473ffffffffffffffffffffffffffffffffffffffff1673ffffffffffffffffffffffffffffffffffffffff1673ffffffffffffffffffffffffffffffffffffffff1681526020016002820160009054906101000a900473ffffffffffffffffffffffffffffffffffffffff1673ffffffffffffffffffffffffffffffffffffffff1673ffffffffffffffffffffffffffffffffffffffff16815260200160038201548152602001600482015481526020016005820160009054906101000a900460ff1615151515815250509050808383815181106126b2577f4e487b7100000000000000000000000000000000000000000000000000000000600052603260045260246000fd5b60200260200101819052505080806126c990614fe3565b915050612528565b508092505050919050565b6126e46127d9565b73ffffffffffffffffffffffffffffffffffffffff16612702611711565b73ffffffffffffffffffffffffffffffffffffffff1614612758576040517f08c379a000000000000000000000000000000000000000000000000000000000815260040161274f90614bd4565b60405180910390fd5b600073ffffffffffffffffffffffffffffffffffffffff168173ffffffffffffffffffffffffffffffffffffffff1614156127c8576040517f08c379a00000000000000000000000000000000000000000000000000000000081526004016127bf90614a74565b60405180910390fd5b6127d1816130a0565b50565b505050565b600033905090565b600073ffffffffffffffffffffffffffffffffffffffff168373ffffffffffffffffffffffffffffffffffffffff161415612851576040517f08c379a000000000000000000000000000000000000000000000000000000000815260040161284890614c94565b60405180910390fd5b600073ffffffffffffffffffffffffffffffffffffffff168273ffffffffffffffffffffffffffffffffffffffff1614156128c1576040517f08c379a00000000000000000000000000000000000000000000000000000000081526004016128b890614a94565b60405180910390fd5b80600160008573ffffffffffffffffffffffffffffffffffffffff1673ffffffffffffffffffffffffffffffffffffffff16815260200190815260200160002060008473ffffffffffffffffffffffffffffffffffffffff1673ffffffffffffffffffffffffffffffffffffffff168152602001908152602001600020819055508173ffffffffffffffffffffffffffffffffffffffff168373ffffffffffffffffffffffffffffffffffffffff167f8c5be1e5ebec7d5bd14f71427d1e84f3dd0314c0f7b2291e5b200ac8c7c3b9258360405161299f9190614d31565b60405180910390a3505050565b50565b6129b7613a90565b6000612a277fdafa0744ca168e0d0f27b1ba21796593dba0298e02cde0546c6bd8adb345f6fe856000015180519060200120866020015187604001518860600151604051602001612a0c9594939291906148c7565b60405160208183030381529060405280519060200120613241565b90506000612a35828561325b565b90506000600760008373ffffffffffffffffffffffffffffffffffffffff1673ffffffffffffffffffffffffffffffffffffffff16815260200190815260200160002060009054906101000a900473ffffffffffffffffffffffffffffffffffffffff1690508173ffffffffffffffffffffffffffffffffffffffff16600660008373ffffffffffffffffffffffffffffffffffffffff1673ffffffffffffffffffffffffffffffffffffffff16815260200190815260200160002060030160009054906101000a900473ffffffffffffffffffffffffffffffffffffffff1673ffffffffffffffffffffffffffffffffffffffff1614612b6b576040517f08c379a0000000000000000000000000000000000000000000000000000000008152600401612b6290614c34565b60405180910390fd5b42866040015111612bb1576040517f08c379a0000000000000000000000000000000000000000000000000000000008152600401612ba890614a34565b60405180910390fd5b60006040518060c001604052806000801b81526020018373ffffffffffffffffffffffffffffffffffffffff168152602001886020015173ffffffffffffffffffffffffffffffffffffffff168152602001428152602001886040015181526020016000151581525090506000612c2782613282565b905080826000018181525050819550505050505092915050565b600c6000815480929190612c5490614fe3565b91905055508060096000836000015181526020019081526020016000206000820151816000015560208201518160010160006101000a81548173ffffffffffffffffffffffffffffffffffffffff021916908373ffffffffffffffffffffffffffffffffffffffff16021790555060408201518160020160006101000a81548173ffffffffffffffffffffffffffffffffffffffff021916908373ffffffffffffffffffffffffffffffffffffffff160217905550606082015181600301556080820151816004015560a08201518160050160006101000a81548160ff021916908315150217905550905050600a6000826040015173ffffffffffffffffffffffffffffffffffffffff1673ffffffffffffffffffffffffffffffffffffffff16815260200190815260200160002081600001519080600181540180825580915050600190039060005260206000200160009091909190915055600b6000826020015173ffffffffffffffffffffffffffffffffffffffff1673ffffffffffffffffffffffffffffffffffffffff1681526020019081526020016000208160000151908060018154018082558091505060019003906000526020600020016000909190919091505550565b600073ffffffffffffffffffffffffffffffffffffffff168373ffffffffffffffffffffffffffffffffffffffff161415612e8f576040517f08c379a0000000000000000000000000000000000000000000000000000000008152600401612e8690614c54565b60405180910390fd5b600073ffffffffffffffffffffffffffffffffffffffff168273ffffffffffffffffffffffffffffffffffffffff161415612eff576040517f08c379a0000000000000000000000000000000000000000000000000000000008152600401612ef690614a14565b60405180910390fd5b612f0a8383836132cc565b60008060008573ffffffffffffffffffffffffffffffffffffffff1673ffffffffffffffffffffffffffffffffffffffff16815260200190815260200160002054905081811015612f90576040517f08c379a0000000000000000000000000000000000000000000000000000000008152600401612f8790614af4565b60405180910390fd5b8181036000808673ffffffffffffffffffffffffffffffffffffffff1673ffffffffffffffffffffffffffffffffffffffff16815260200190815260200160002081905550816000808573ffffffffffffffffffffffffffffffffffffffff1673ffffffffffffffffffffffffffffffffffffffff16815260200190815260200160002060008282546130239190614e5f565b925050819055508273ffffffffffffffffffffffffffffffffffffffff168473ffffffffffffffffffffffffffffffffffffffff167fddf252ad1be2c89b69c2b068fc378daa952ba7f163c4a11628f55a4df523b3ef846040516130879190614d31565b60405180910390a361309a8484846133eb565b50505050565b6000600560009054906101000a900473ffffffffffffffffffffffffffffffffffffffff16905081600560006101000a81548173ffffffffffffffffffffffffffffffffffffffff021916908373ffffffffffffffffffffffffffffffffffffffff1602179055508173ffffffffffffffffffffffffffffffffffffffff168173ffffffffffffffffffffffffffffffffffffffff167f8be0079c531659141344cd1fd0a4f28419497f9722a3daafe3b4186f6b6457e060405160405180910390a35050565b61316e613a90565b3373ffffffffffffffffffffffffffffffffffffffff16836020015173ffffffffffffffffffffffffffffffffffffffff16146131e0576040517f08c379a00000000000000000000000000000000000000000000000000000000081526004016131d790614b74565b60405180910390fd5b6131e9836129ac565b60006131f584846129af565b905061320081612c41565b7fb13e5e7efcce7bbc67740f0fe050563d4fd1f5cc7096c3a32cb901711c95ab548160405161322f9190614cf4565b60405180910390a18091505092915050565b600061325461324e6133f0565b836134b3565b9050919050565b600080600061326a85856134e6565b9150915061327781613569565b819250505092915050565b60008160200151826040015183606001518460800151600c546040516020016132af95949392919061478e565b604051602081830303815290604052805190602001209050919050565b6132d78383836127d4565b3373ffffffffffffffffffffffffffffffffffffffff166132f6611711565b73ffffffffffffffffffffffffffffffffffffffff16146133e657600d548110806133a657503073ffffffffffffffffffffffffffffffffffffffff1663b9209e33846040518263ffffffff1660e01b81526004016133559190614824565b60206040518083038186803b15801561336d57600080fd5b505afa158015613381573d6000803e3d6000fd5b505050506040513d601f19601f820116820180604052508101906133a59190614005565b5b6133e5576040517f08c379a00000000000000000000000000000000000000000000000000000000081526004016133dc906149f4565b60405180910390fd5b5b505050565b505050565b60007f0000000000000000000000000000000000000000000000000000000000000000461415613442577f000000000000000000000000000000000000000000000000000000000000000090506134b0565b6134ad7f00000000000000000000000000000000000000000000000000000000000000007f00000000000000000000000000000000000000000000000000000000000000007f00000000000000000000000000000000000000000000000000000000000000006138ba565b90505b90565b600082826040516020016134c89291906147ed565b60405160208183030381529060405280519060200120905092915050565b6000806041835114156135285760008060006020860151925060408601519150606086015160001a905061351c878285856138f4565b94509450505050613562565b60408351141561355957600080602085015191506040850151905061354e868383613a01565b935093505050613562565b60006002915091505b9250929050565b600060048111156135a3577f4e487b7100000000000000000000000000000000000000000000000000000000600052602160045260246000fd5b8160048111156135dc577f4e487b7100000000000000000000000000000000000000000000000000000000600052602160045260246000fd5b14156135e7576138b7565b60016004811115613621577f4e487b7100000000000000000000000000000000000000000000000000000000600052602160045260246000fd5b81600481111561365a577f4e487b7100000000000000000000000000000000000000000000000000000000600052602160045260246000fd5b141561369b576040517f08c379a0000000000000000000000000000000000000000000000000000000008152600401613692906149d4565b60405180910390fd5b600260048111156136d5577f4e487b7100000000000000000000000000000000000000000000000000000000600052602160045260246000fd5b81600481111561370e577f4e487b7100000000000000000000000000000000000000000000000000000000600052602160045260246000fd5b141561374f576040517f08c379a000000000000000000000000000000000000000000000000000000000815260040161374690614a54565b60405180910390fd5b60036004811115613789577f4e487b7100000000000000000000000000000000000000000000000000000000600052602160045260246000fd5b8160048111156137c2577f4e487b7100000000000000000000000000000000000000000000000000000000600052602160045260246000fd5b1415613803576040517f08c379a00000000000000000000000000000000000000000000000000000000081526004016137fa90614b14565b60405180910390fd5b60048081111561383c577f4e487b7100000000000000000000000000000000000000000000000000000000600052602160045260246000fd5b816004811115613875577f4e487b7100000000000000000000000000000000000000000000000000000000600052602160045260246000fd5b14156138b6576040517f08c379a00000000000000000000000000000000000000000000000000000000081526004016138ad90614b94565b60405180910390fd5b5b50565b600083838346306040516020016138d595949392919061491a565b6040516020818303038152906040528051906020012090509392505050565b6000807f7fffffffffffffffffffffffffffffff5d576e7357a4501ddfe92f46681b20a08360001c111561392f5760006003915091506139f8565b601b8560ff16141580156139475750601c8560ff1614155b156139595760006004915091506139f8565b60006001878787876040516000815260200160405260405161397e949392919061496d565b6020604051602081039080840390855afa1580156139a0573d6000803e3d6000fd5b505050602060405103519050600073ffffffffffffffffffffffffffffffffffffffff168173ffffffffffffffffffffffffffffffffffffffff1614156139ef576000600192509250506139f8565b80600092509250505b94509492505050565b6000806000807f7fffffffffffffffffffffffffffffffffffffffffffffffffffffffffffffff85169150601b8560ff1c019050613a41878288856138f4565b935093505050935093915050565b6040518060800160405280600080191681526020016060815260200160608152602001600073ffffffffffffffffffffffffffffffffffffffff1681525090565b6040518060c0016040528060008019168152602001600073ffffffffffffffffffffffffffffffffffffffff168152602001600073ffffffffffffffffffffffffffffffffffffffff16815260200160008152602001600081526020016000151581525090565b828054613b0390614f80565b90600052602060002090601f016020900481019282613b255760008555613b6c565b82601f10613b3e57805160ff1916838001178555613b6c565b82800160010185558215613b6c579182015b82811115613b6b578251825591602001919060010190613b50565b5b509050613b799190613bbd565b5090565b508054613b8990614f80565b6000825580601f10613b9b5750613bba565b601f016020900490600052602060002090810190613bb99190613bbd565b5b50565b5b80821115613bd6576000816000905550600101613bbe565b5090565b6000613bed613be884614d8c565b614d67565b905082815260208101848484011115613c0557600080fd5b613c10848285614f14565b509392505050565b6000613c2b613c2684614dbd565b614d67565b905082815260208101848484011115613c4357600080fd5b613c4e848285614f14565b509392505050565b600081359050613c65816158ef565b92915050565b600081519050613c7a81615906565b92915050565b600081359050613c8f8161591d565b92915050565b600082601f830112613ca657600080fd5b8135613cb6848260208601613bda565b91505092915050565b600082601f830112613cd057600080fd5b8135613ce0848260208601613c18565b91505092915050565b600060808284031215613cfb57600080fd5b613d056080614d67565b9050600082013567ffffffffffffffff811115613d2157600080fd5b613d2d84828501613cbf565b6000830152506020613d4184828501613c56565b6020830152506040613d5584828501613e19565b6040830152506060613d6984828501613c80565b60608301525092915050565b600060808284031215613d8757600080fd5b613d916080614d67565b90506000613da184828501613c80565b600083015250602082013567ffffffffffffffff811115613dc157600080fd5b613dcd84828501613cbf565b602083015250604082013567ffffffffffffffff811115613ded57600080fd5b613df984828501613cbf565b6040830152506060613e0d84828501613c56565b60608301525092915050565b600081359050613e2881615934565b92915050565b600060208284031215613e4057600080fd5b6000613e4e84828501613c56565b91505092915050565b60008060408385031215613e6a57600080fd5b6000613e7885828601613c56565b9250506020613e8985828601613c56565b9150509250929050565b600080600060608486031215613ea857600080fd5b6000613eb686828701613c56565b9350506020613ec786828701613c56565b9250506040613ed886828701613e19565b9150509250925092565b60008060408385031215613ef557600080fd5b6000613f0385828601613c56565b925050602083013567ffffffffffffffff811115613f2057600080fd5b613f2c85828601613d75565b9150509250929050565b60008060408385031215613f4957600080fd5b6000613f5785828601613c56565b9250506020613f6885828601613e19565b9150509250929050565b60008060008060808587031215613f8857600080fd5b6000613f9687828801613c56565b9450506020613fa787828801613e19565b935050604085013567ffffffffffffffff811115613fc457600080fd5b613fd087828801613ce9565b925050606085013567ffffffffffffffff811115613fed57600080fd5b613ff987828801613c95565b91505092959194509250565b60006020828403121561401757600080fd5b600061402584828501613c6b565b91505092915050565b60006020828403121561404057600080fd5b600061404e84828501613c80565b91505092915050565b6000806040838503121561406a57600080fd5b600083013567ffffffffffffffff81111561408457600080fd5b61409085828601613ce9565b925050602083013567ffffffffffffffff8111156140ad57600080fd5b6140b985828601613c95565b9150509250929050565b6000602082840312156140d557600080fd5b60006140e384828501613e19565b91505092915050565b60006140f883836145ea565b60c08301905092915050565b61410d81614eb5565b82525050565b61411c81614eb5565b82525050565b61413361412e82614eb5565b61502c565b82525050565b600061414482614dfe565b61414e8185614e21565b935061415983614dee565b8060005b8381101561418a57815161417188826140ec565b975061417c83614e14565b92505060018101905061415d565b5085935050505092915050565b6141a081614ec7565b82525050565b6141af81614ec7565b82525050565b6141be81614ed3565b82525050565b6141cd81614ed3565b82525050565b6141e46141df82614ed3565b61503e565b82525050565b60006141f582614e09565b6141ff8185614e32565b935061420f818560208601614f23565b614218816150f1565b840191505092915050565b600061422e82614e09565b6142388185614e43565b9350614248818560208601614f23565b614251816150f1565b840191505092915050565b6000614269601883614e43565b91506142748261510f565b602082019050919050565b600061428c604483614e43565b915061429782615138565b606082019050919050565b60006142af602383614e43565b91506142ba826151ad565b604082019050919050565b60006142d2603783614e43565b91506142dd826151fc565b604082019050919050565b60006142f5601f83614e43565b91506143008261524b565b602082019050919050565b6000614318602683614e43565b915061432382615274565b604082019050919050565b600061433b602283614e43565b9150614346826152c3565b604082019050919050565b600061435e600283614e54565b915061436982615312565b600282019050919050565b6000614381602e83614e43565b915061438c8261533b565b604082019050919050565b60006143a4604483614e43565b91506143af8261538a565b606082019050919050565b60006143c7602683614e43565b91506143d2826153ff565b604082019050919050565b60006143ea602283614e43565b91506143f58261544e565b604082019050919050565b600061440d602d83614e43565b91506144188261549d565b604082019050919050565b6000614430603583614e43565b915061443b826154ec565b604082019050919050565b6000614453603883614e43565b915061445e8261553b565b604082019050919050565b6000614476602283614e43565b91506144818261558a565b604082019050919050565b6000614499602883614e43565b91506144a4826155d9565b604082019050919050565b60006144bc602083614e43565b91506144c782615628565b602082019050919050565b60006144df602e83614e43565b91506144ea82615651565b604082019050919050565b6000614502604983614e43565b915061450d826156a0565b606082019050919050565b6000614525603683614e43565b915061453082615715565b604082019050919050565b6000614548602583614e43565b915061455382615764565b604082019050919050565b600061456b603983614e43565b9150614576826157b3565b604082019050919050565b600061458e602483614e43565b915061459982615802565b604082019050919050565b60006145b1602583614e43565b91506145bc82615851565b604082019050919050565b60006145d4602583614e43565b91506145df826158a0565b604082019050919050565b60c08201600082015161460060008501826141b5565b5060208201516146136020850182614104565b5060408201516146266040850182614104565b506060820151614639606085018261474a565b50608082015161464c608085018261474a565b5060a082015161465f60a0850182614197565b50505050565b60c08201600082015161467b60008501826141b5565b50602082015161468e6020850182614104565b5060408201516146a16040850182614104565b5060608201516146b4606085018261474a565b5060808201516146c7608085018261474a565b5060a08201516146da60a0850182614197565b50505050565b60006080830160008301516146f860008601826141b5565b506020830151848203602086015261471082826141ea565b9150506040830151848203604086015261472a82826141ea565b915050606083015161473f6060860182614104565b508091505092915050565b61475381614efd565b82525050565b61476281614efd565b82525050565b61477961477482614efd565b61505a565b82525050565b61478881614f07565b82525050565b600061479a8288614122565b6014820191506147aa8287614122565b6014820191506147ba8286614768565b6020820191506147ca8285614768565b6020820191506147da8284614768565b6020820191508190509695505050505050565b60006147f882614351565b915061480482856141d3565b60208201915061481482846141d3565b6020820191508190509392505050565b60006020820190506148396000830184614113565b92915050565b60006040820190506148546000830185614113565b818103602083015261486681846146e0565b90509392505050565b600060208201905081810360008301526148898184614139565b905092915050565b60006020820190506148a660008301846141a6565b92915050565b60006020820190506148c160008301846141c4565b92915050565b600060a0820190506148dc60008301886141c4565b6148e960208301876141c4565b6148f66040830186614113565b6149036060830185614759565b61491060808301846141c4565b9695505050505050565b600060a08201905061492f60008301886141c4565b61493c60208301876141c4565b61494960408301866141c4565b6149566060830185614759565b6149636080830184614113565b9695505050505050565b600060808201905061498260008301876141c4565b61498f602083018661477f565b61499c60408301856141c4565b6149a960608301846141c4565b95945050505050565b600060208201905081810360008301526149cc8184614223565b905092915050565b600060208201905081810360008301526149ed8161425c565b9050919050565b60006020820190508181036000830152614a0d8161427f565b9050919050565b60006020820190508181036000830152614a2d816142a2565b9050919050565b60006020820190508181036000830152614a4d816142c5565b9050919050565b60006020820190508181036000830152614a6d816142e8565b9050919050565b60006020820190508181036000830152614a8d8161430b565b9050919050565b60006020820190508181036000830152614aad8161432e565b9050919050565b60006020820190508181036000830152614acd81614374565b9050919050565b60006020820190508181036000830152614aed81614397565b9050919050565b60006020820190508181036000830152614b0d816143ba565b9050919050565b60006020820190508181036000830152614b2d816143dd565b9050919050565b60006020820190508181036000830152614b4d81614400565b9050919050565b60006020820190508181036000830152614b6d81614423565b9050919050565b60006020820190508181036000830152614b8d81614446565b9050919050565b60006020820190508181036000830152614bad81614469565b9050919050565b60006020820190508181036000830152614bcd8161448c565b9050919050565b60006020820190508181036000830152614bed816144af565b9050919050565b60006020820190508181036000830152614c0d816144d2565b9050919050565b60006020820190508181036000830152614c2d816144f5565b9050919050565b60006020820190508181036000830152614c4d81614518565b9050919050565b60006020820190508181036000830152614c6d8161453b565b9050919050565b60006020820190508181036000830152614c8d8161455e565b9050919050565b60006020820190508181036000830152614cad81614581565b9050919050565b60006020820190508181036000830152614ccd816145a4565b9050919050565b60006020820190508181036000830152614ced816145c7565b9050919050565b600060c082019050614d096000830184614665565b92915050565b60006020820190508181036000830152614d2981846146e0565b905092915050565b6000602082019050614d466000830184614759565b92915050565b6000602082019050614d61600083018461477f565b92915050565b6000614d71614d82565b9050614d7d8282614fb2565b919050565b6000604051905090565b600067ffffffffffffffff821115614da757614da66150c2565b5b614db0826150f1565b9050602081019050919050565b600067ffffffffffffffff821115614dd857614dd76150c2565b5b614de1826150f1565b9050602081019050919050565b6000819050602082019050919050565b600081519050919050565b600081519050919050565b6000602082019050919050565b600082825260208201905092915050565b600082825260208201905092915050565b600082825260208201905092915050565b600081905092915050565b6000614e6a82614efd565b9150614e7583614efd565b9250827fffffffffffffffffffffffffffffffffffffffffffffffffffffffffffffffff03821115614eaa57614ea9615064565b5b828201905092915050565b6000614ec082614edd565b9050919050565b60008115159050919050565b6000819050919050565b600073ffffffffffffffffffffffffffffffffffffffff82169050919050565b6000819050919050565b600060ff82169050919050565b82818337600083830152505050565b60005b83811015614f41578082015181840152602081019050614f26565b83811115614f50576000848401525b50505050565b6000614f6182614efd565b91506000821415614f7557614f74615064565b5b600182039050919050565b60006002820490506001821680614f9857607f821691505b60208210811415614fac57614fab615093565b5b50919050565b614fbb826150f1565b810181811067ffffffffffffffff82111715614fda57614fd96150c2565b5b80604052505050565b6000614fee82614efd565b91507fffffffffffffffffffffffffffffffffffffffffffffffffffffffffffffffff82141561502157615020615064565b5b600182019050919050565b600061503782615048565b9050919050565b6000819050919050565b600061505382615102565b9050919050565b6000819050919050565b7f4e487b7100000000000000000000000000000000000000000000000000000000600052601160045260246000fd5b7f4e487b7100000000000000000000000000000000000000000000000000000000600052602260045260246000fd5b7f4e487b7100000000000000000000000000000000000000000000000000000000600052604160045260246000fd5b6000601f19601f8301169050919050565b60008160601b9050919050565b7f45434453413a20696e76616c6964207369676e61747572650000000000000000600082015250565b7f5468726573686f6c64546f6b656e3a205472616e7366657273206f662074686960008201527f7320616d6f756e7420726571756972652073656e64657220766572696669636160208201527f74696f6e00000000000000000000000000000000000000000000000000000000604082015250565b7f45524332303a207472616e7366657220746f20746865207a65726f206164647260008201527f6573730000000000000000000000000000000000000000000000000000000000602082015250565b7f566572696669636174696f6e52656769737472793a205665726966696361746960008201527f6f6e20636f6e6669726d6174696f6e2065787069726564000000000000000000602082015250565b7f45434453413a20696e76616c6964207369676e6174757265206c656e67746800600082015250565b7f4f776e61626c653a206e6577206f776e657220697320746865207a65726f206160008201527f6464726573730000000000000000000000000000000000000000000000000000602082015250565b7f45524332303a20617070726f766520746f20746865207a65726f20616464726560008201527f7373000000000000000000000000000000000000000000000000000000000000602082015250565b7f1901000000000000000000000000000000000000000000000000000000000000600082015250565b7f566572696669636174696f6e52656769737472793a2043616c6c65722069732060008201527f6e6f742061205665726966696572000000000000000000000000000000000000602082015250565b7f566572696669636174696f6e52656769737472793a2043616c6c65722069732060008201527f6e6f7420746865207665726966696572206f662074686520766572696669636160208201527f74696f6e00000000000000000000000000000000000000000000000000000000604082015250565b7f45524332303a207472616e7366657220616d6f756e742065786365656473206260008201527f616c616e63650000000000000000000000000000000000000000000000000000602082015250565b7f45434453413a20696e76616c6964207369676e6174757265202773272076616c60008201527f7565000000000000000000000000000000000000000000000000000000000000602082015250565b7f566572696669636174696f6e52656769737472793a205665726966696572204160008201527f6464726573732045786973747300000000000000000000000000000000000000602082015250565b7f566572696669636174696f6e52656769737472793a205665726966696572204160008201527f64647265737320446f6573204e6f742045786973740000000000000000000000602082015250565b7f566572696669636174696f6e52656769737472793a2043616c6c65722069732060008201527f6e6f7420746865207665726966696564207375626a6563740000000000000000602082015250565b7f45434453413a20696e76616c6964207369676e6174757265202776272076616c60008201527f7565000000000000000000000000000000000000000000000000000000000000602082015250565b7f45524332303a207472616e7366657220616d6f756e742065786365656473206160008201527f6c6c6f77616e6365000000000000000000000000000000000000000000000000602082015250565b7f4f776e61626c653a2063616c6c6572206973206e6f7420746865206f776e6572600082015250565b7f566572696669636174696f6e52656769737472793a20556e6b6e6f776e20566560008201527f7269666965722041646472657373000000000000000000000000000000000000602082015250565b7f566572696669636174696f6e52656769737472793a2043616c6c65722069732060008201527f6e6f7420746865207665726966696572206f6620746865207265666572656e6360208201527f6564207265636f72640000000000000000000000000000000000000000000000604082015250565b7f566572696669636174696f6e52656769737472793a205369676e65642064696760008201527f6573742063616e6e6f7420626520766572696669656400000000000000000000602082015250565b7f45524332303a207472616e736665722066726f6d20746865207a65726f20616460008201527f6472657373000000000000000000000000000000000000000000000000000000602082015250565b7f566572696669636174696f6e52656769737472793a2043616c6c65722069732060008201527f6e6f7420746865206f726967696e616c20766572696669657200000000000000602082015250565b7f45524332303a20617070726f76652066726f6d20746865207a65726f2061646460008201527f7265737300000000000000000000000000000000000000000000000000000000602082015250565b7f566572696669636174696f6e52656769737472793a20496e76616c696420616460008201527f6472657373000000000000000000000000000000000000000000000000000000602082015250565b7f45524332303a2064656372656173656420616c6c6f77616e63652062656c6f7760008201527f207a65726f000000000000000000000000000000000000000000000000000000602082015250565b6158f881614eb5565b811461590357600080fd5b50565b61590f81614ec7565b811461591a57600080fd5b50565b61592681614ed3565b811461593157600080fd5b50565b61593d81614efd565b811461594857600080fd5b5056fea26469706673582212204e89aa533c1a644259822f519acef625e02125f6d8fc4cf5024de6ad6affd3b064736f6c63430008040033",
  "linkReferences": {},
  "deployedLinkReferences": {}
}