{
  "_format": "hh-sol-artifact-1",
  "contractName": "Token",
  "sourceName": "contracts/Token.sol",
  "abi": [
    {
      "inputs": [],
      "stateMutability": "nonpayable",
      "type": "constructor"
    },
    {
      "anonymous": false,
      "inputs": [
        {
          "indexed": true,
          "internalType": "address",
          "name": "previousOwner",
          "type": "address"
        },
        {
          "indexed": true,
          "internalType": "address",
          "name": "newOwner",
          "type": "address"
        }
      ],
      "name": "OwnershipTransferred",
      "type": "event"
    },
    {
      "anonymous": false,
      "inputs": [
        {
          "indexed": true,
          "internalType": "address",
          "name": "from",
          "type": "address"
        },
        {
          "indexed": true,
          "internalType": "address",
          "name": "to",
          "type": "address"
        },
        {
          "indexed": false,
          "internalType": "uint256",
          "name": "amount",
          "type": "uint256"
        }
      ],
      "name": "Transfer",
      "type": "event"
    },
    {
      "anonymous": false,
      "inputs": [
        {
          "indexed": false,
          "internalType": "address",
          "name": "verifierAddress",
          "type": "address"
        },
        {
          "indexed": false,
          "internalType": "bytes32",
          "name": "verificationInfo",
          "type": "bytes32"
        }
      ],
      "name": "VerifiedCredentialConfirmed",
      "type": "event"
    },
    {
      "anonymous": false,
      "inputs": [
        {
          "indexed": false,
          "internalType": "address",
          "name": "verifier",
          "type": "address"
        },
        {
          "indexed": false,
          "internalType": "bytes32",
          "name": "verifierID",
          "type": "bytes32"
        }
      ],
      "name": "VerifierAdded",
      "type": "event"
    },
    {
      "anonymous": false,
      "inputs": [
        {
          "indexed": false,
          "internalType": "address",
          "name": "verifier",
          "type": "address"
        }
      ],
      "name": "VerifierRemoved",
      "type": "event"
    },
    {
      "inputs": [
        {
          "internalType": "address",
          "name": "signingAddr",
          "type": "address"
        },
        {
          "internalType": "bytes32",
          "name": "verifierID",
          "type": "bytes32"
        }
      ],
      "name": "addTrustedVerifier",
      "outputs": [],
      "stateMutability": "nonpayable",
      "type": "function"
    },
    {
      "inputs": [
        {
          "internalType": "address",
          "name": "account",
          "type": "address"
        }
      ],
      "name": "balanceOf",
      "outputs": [
        {
          "internalType": "uint256",
          "name": "",
          "type": "uint256"
        }
      ],
      "stateMutability": "view",
      "type": "function"
    },
    {
      "inputs": [
        {
          "internalType": "address",
          "name": "signingAddr",
          "type": "address"
        }
      ],
      "name": "getVerifierID",
      "outputs": [
        {
          "internalType": "bytes32",
          "name": "",
          "type": "bytes32"
        }
      ],
      "stateMutability": "view",
      "type": "function"
    },
    {
      "inputs": [
        {
          "internalType": "address",
          "name": "account",
          "type": "address"
        }
      ],
      "name": "isTrustedVerifier",
      "outputs": [
        {
          "internalType": "bool",
          "name": "",
          "type": "bool"
        }
      ],
      "stateMutability": "view",
      "type": "function"
    },
    {
      "inputs": [],
      "name": "name",
      "outputs": [
        {
          "internalType": "string",
          "name": "",
          "type": "string"
        }
      ],
      "stateMutability": "view",
      "type": "function"
    },
    {
      "inputs": [],
      "name": "owner",
      "outputs": [
        {
          "internalType": "address",
          "name": "",
          "type": "address"
        }
      ],
      "stateMutability": "view",
      "type": "function"
    },
    {
      "inputs": [
        {
          "internalType": "address",
          "name": "signingAddr",
          "type": "address"
        }
      ],
      "name": "removeTrustedVerifier",
      "outputs": [],
      "stateMutability": "nonpayable",
      "type": "function"
    },
    {
      "inputs": [],
      "name": "renounceOwnership",
      "outputs": [],
      "stateMutability": "nonpayable",
      "type": "function"
    },
    {
      "inputs": [],
      "name": "symbol",
      "outputs": [
        {
          "internalType": "string",
          "name": "",
          "type": "string"
        }
      ],
      "stateMutability": "view",
      "type": "function"
    },
    {
      "inputs": [],
      "name": "totalSupply",
      "outputs": [
        {
          "internalType": "uint256",
          "name": "",
          "type": "uint256"
        }
      ],
      "stateMutability": "view",
      "type": "function"
    },
    {
      "inputs": [
        {
          "internalType": "address",
          "name": "to",
          "type": "address"
        },
        {
          "internalType": "uint256",
          "name": "amount",
          "type": "uint256"
        }
      ],
      "name": "transfer",
      "outputs": [],
      "stateMutability": "nonpayable",
      "type": "function"
    },
    {
      "inputs": [
        {
          "internalType": "address",
          "name": "newOwner",
          "type": "address"
        }
      ],
      "name": "transferOwnership",
      "outputs": [],
      "stateMutability": "nonpayable",
      "type": "function"
    },
    {
      "inputs": [
        {
          "internalType": "address",
          "name": "signingAddr",
          "type": "address"
        },
        {
          "internalType": "bytes32",
          "name": "verifierID",
          "type": "bytes32"
        }
      ],
      "name": "updateVerifierID",
      "outputs": [],
      "stateMutability": "nonpayable",
      "type": "function"
    },
    {
      "inputs": [
        {
          "internalType": "address",
          "name": "to",
          "type": "address"
        },
        {
          "internalType": "uint256",
          "name": "amount",
          "type": "uint256"
        },
        {
          "components": [
            {
              "internalType": "string",
              "name": "message",
              "type": "string"
            },
            {
              "internalType": "uint256",
              "name": "expiration",
              "type": "uint256"
            }
          ],
          "internalType": "struct VerificationValidator.KYCVerificationInfo",
          "name": "verificationInfo",
          "type": "tuple"
        },
        {
          "internalType": "bytes",
          "name": "signature",
          "type": "bytes"
        }
      ],
      "name": "validateAndTransfer",
      "outputs": [],
      "stateMutability": "nonpayable",
      "type": "function"
    },
    {
      "inputs": [],
      "name": "verificationThreshold",
      "outputs": [
        {
          "internalType": "uint256",
          "name": "",
          "type": "uint256"
        }
      ],
      "stateMutability": "view",
      "type": "function"
    }
  ],
  "bytecode": "0x6101406040526040518060400160405280601081526020017f5665726974792044656d6f20555344430000000000000000000000000000000081525060029080519060200190620000529291906200031d565b506040518060400160405280600581526020017f565553444300000000000000000000000000000000000000000000000000000081525060039080519060200190620000a09291906200031d565b50620f4240600455348015620000b557600080fd5b506040518060400160405280601581526020017f566572696669636174696f6e56616c696461746f7200000000000000000000008152506040518060400160405280600381526020017f312e30000000000000000000000000000000000000000000000000000000000081525062000142620001366200021560201b60201c565b6200021d60201b60201c565b60008280519060200120905060008280519060200120905060007f8b73c3c69bb8fe3d512ecc4cf759cc79239f7b179b0ffacaa9a75d522b39400f90508260c081815250508160e081815250504660a08181525050620001aa818484620002e160201b60201c565b608081815250508061010081815250505050505050600454600560003373ffffffffffffffffffffffffffffffffffffffff1673ffffffffffffffffffffffffffffffffffffffff16815260200190815260200160002081905550600a61012081815250506200050a565b600033905090565b60008060009054906101000a900473ffffffffffffffffffffffffffffffffffffffff169050816000806101000a81548173ffffffffffffffffffffffffffffffffffffffff021916908373ffffffffffffffffffffffffffffffffffffffff1602179055508173ffffffffffffffffffffffffffffffffffffffff168173ffffffffffffffffffffffffffffffffffffffff167f8be0079c531659141344cd1fd0a4f28419497f9722a3daafe3b4186f6b6457e060405160405180910390a35050565b60008383834630604051602001620002fe95949392919062000400565b6040516020818303038152906040528051906020012090509392505050565b8280546200032b90620004a5565b90600052602060002090601f0160209004810192826200034f57600085556200039b565b82601f106200036a57805160ff19168380011785556200039b565b828001600101855582156200039b579182015b828111156200039a5782518255916020019190600101906200037d565b5b509050620003aa9190620003ae565b5090565b5b80821115620003c9576000816000905550600101620003af565b5090565b620003d8816200045d565b82525050565b620003e98162000471565b82525050565b620003fa816200049b565b82525050565b600060a082019050620004176000830188620003de565b620004266020830187620003de565b620004356040830186620003de565b620004446060830185620003ef565b620004536080830184620003cd565b9695505050505050565b60006200046a826200047b565b9050919050565b6000819050919050565b600073ffffffffffffffffffffffffffffffffffffffff82169050919050565b6000819050919050565b60006002820490506001821680620004be57607f821691505b60208210811415620004d557620004d4620004db565b5b50919050565b7f4e487b7100000000000000000000000000000000000000000000000000000000600052602260045260246000fd5b60805160a05160c05160e05161010051610120516124af6200056160003960008181610364015261085001526000610f6201526000610fa401526000610f8301526000610f0f01526000610f3701526124af6000f3fe608060405234801561001057600080fd5b50600436106100f55760003560e01c8063801d2cf111610097578063a9059cbb11610066578063a9059cbb14610262578063b0a44a681461027e578063c6b055751461029a578063f2fde38b146102b6576100f5565b8063801d2cf1146101da5780638da5cb5b146101f65780638f9e0ee01461021457806395d89b4114610244576100f5565b806350f11d2a116100d357806350f11d2a1461015457806370a0823114610184578063715018a6146101b45780637e72b493146101be576100f5565b806306fdde03146100fa578063167feb091461011857806318160ddd14610136575b600080fd5b6101026102d2565b60405161010f9190611c28565b60405180910390f35b610120610360565b60405161012d9190611dca565b60405180910390f35b61013e610388565b60405161014b9190611dca565b60405180910390f35b61016e60048036038101906101699190611704565b61038e565b60405161017b9190611b15565b60405180910390f35b61019e60048036038101906101999190611704565b6103dd565b6040516101ab9190611dca565b60405180910390f35b6101bc610426565b005b6101d860048036038101906101d391906117a5565b6104ae565b005b6101f460048036038101906101ef9190611704565b61054a565b005b6101fe610647565b60405161020b9190611ad1565b60405180910390f35b61022e60048036038101906102299190611704565b610670565b60405161023b9190611b30565b60405180910390f35b61024c61073e565b6040516102599190611c28565b60405180910390f35b61027c60048036038101906102779190611769565b6107cc565b005b6102986004803603810190610293919061172d565b6108be565b005b6102b460048036038101906102af919061172d565b6109bb565b005b6102d060048036038101906102cb9190611704565b610a88565b005b600280546102df90611fbe565b80601f016020809104026020016040519081016040528092919081815260200182805461030b90611fbe565b80156103585780601f1061032d57610100808354040283529160200191610358565b820191906000526020600020905b81548152906001019060200180831161033b57829003601f168201915b505050505081565b60007f0000000000000000000000000000000000000000000000000000000000000000905090565b60045481565b60008060001b600160008473ffffffffffffffffffffffffffffffffffffffff1673ffffffffffffffffffffffffffffffffffffffff1681526020019081526020016000205414159050919050565b6000600560008373ffffffffffffffffffffffffffffffffffffffff1673ffffffffffffffffffffffffffffffffffffffff168152602001908152602001600020549050919050565b61042e610b80565b73ffffffffffffffffffffffffffffffffffffffff1661044c610647565b73ffffffffffffffffffffffffffffffffffffffff16146104a2576040517f08c379a000000000000000000000000000000000000000000000000000000000815260040161049990611d2a565b60405180910390fd5b6104ac6000610b88565b565b82600560003373ffffffffffffffffffffffffffffffffffffffff1673ffffffffffffffffffffffffffffffffffffffff168152602001908152602001600020541015610530576040517f08c379a000000000000000000000000000000000000000000000000000000000815260040161052790611d8a565b60405180910390fd5b61053a8282610c4c565b6105448484610cc8565b50505050565b610552610b80565b73ffffffffffffffffffffffffffffffffffffffff16610570610647565b73ffffffffffffffffffffffffffffffffffffffff16146105c6576040517f08c379a00000000000000000000000000000000000000000000000000000000081526004016105bd90611d2a565b60405180910390fd5b6000801b600160008373ffffffffffffffffffffffffffffffffffffffff1673ffffffffffffffffffffffffffffffffffffffff168152602001908152602001600020819055507f44a3cd4eb5cc5748f6169df057b1cb2ae4c383e87cd94663c430e095d4cba4248160405161063c9190611ad1565b60405180910390a150565b60008060009054906101000a900473ffffffffffffffffffffffffffffffffffffffff16905090565b60008060001b600160008473ffffffffffffffffffffffffffffffffffffffff1673ffffffffffffffffffffffffffffffffffffffff1681526020019081526020016000205414156106f7576040517f08c379a00000000000000000000000000000000000000000000000000000000081526004016106ee90611d6a565b60405180910390fd5b600160008373ffffffffffffffffffffffffffffffffffffffff1673ffffffffffffffffffffffffffffffffffffffff168152602001908152602001600020549050919050565b6003805461074b90611fbe565b80601f016020809104026020016040519081016040528092919081815260200182805461077790611fbe565b80156107c45780601f10610799576101008083540402835291602001916107c4565b820191906000526020600020905b8154815290600101906020018083116107a757829003601f168201915b505050505081565b80600560003373ffffffffffffffffffffffffffffffffffffffff1673ffffffffffffffffffffffffffffffffffffffff16815260200190815260200160002054101561084e576040517f08c379a000000000000000000000000000000000000000000000000000000000815260040161084590611d8a565b60405180910390fd5b7f000000000000000000000000000000000000000000000000000000000000000081106108b0576040517f08c379a00000000000000000000000000000000000000000000000000000000081526004016108a790611daa565b60405180910390fd5b6108ba8282610cc8565b5050565b6108c6610b80565b73ffffffffffffffffffffffffffffffffffffffff166108e4610647565b73ffffffffffffffffffffffffffffffffffffffff161461093a576040517f08c379a000000000000000000000000000000000000000000000000000000000815260040161093190611d2a565b60405180910390fd5b80600160008473ffffffffffffffffffffffffffffffffffffffff1673ffffffffffffffffffffffffffffffffffffffff168152602001908152602001600020819055507fdf395e5bd7458959ba8998503d4a8766e743681644b5d1b4866b0a566c213c7c82826040516109af929190611aec565b60405180910390a15050565b6000801b600160003373ffffffffffffffffffffffffffffffffffffffff1673ffffffffffffffffffffffffffffffffffffffff168152602001908152602001600020541415610a40576040517f08c379a0000000000000000000000000000000000000000000000000000000008152600401610a3790611cea565b60405180910390fd5b80600160008473ffffffffffffffffffffffffffffffffffffffff1673ffffffffffffffffffffffffffffffffffffffff168152602001908152602001600020819055505050565b610a90610b80565b73ffffffffffffffffffffffffffffffffffffffff16610aae610647565b73ffffffffffffffffffffffffffffffffffffffff1614610b04576040517f08c379a0000000000000000000000000000000000000000000000000000000008152600401610afb90611d2a565b60405180910390fd5b600073ffffffffffffffffffffffffffffffffffffffff168173ffffffffffffffffffffffffffffffffffffffff161415610b74576040517f08c379a0000000000000000000000000000000000000000000000000000000008152600401610b6b90611c8a565b60405180910390fd5b610b7d81610b88565b50565b600033905090565b60008060009054906101000a900473ffffffffffffffffffffffffffffffffffffffff169050816000806101000a81548173ffffffffffffffffffffffffffffffffffffffff021916908373ffffffffffffffffffffffffffffffffffffffff1602179055508173ffffffffffffffffffffffffffffffffffffffff168173ffffffffffffffffffffffffffffffffffffffff167f8be0079c531659141344cd1fd0a4f28419497f9722a3daafe3b4186f6b6457e060405160405180910390a35050565b6000610cb27fe515b780fde88b343d6f4ac49641cbe70370069c35c934c9f811ec706008dc56846000015180519060200120856020015133604051602001610c979493929190611b9e565b60405160208183030381529060405280519060200120610ddd565b9050610cc381838560200151610df7565b505050565b80600560003373ffffffffffffffffffffffffffffffffffffffff1673ffffffffffffffffffffffffffffffffffffffff1681526020019081526020016000206000828254610d179190611ee9565b9250508190555080600560008473ffffffffffffffffffffffffffffffffffffffff1673ffffffffffffffffffffffffffffffffffffffff1681526020019081526020016000206000828254610d6d9190611e93565b925050819055508173ffffffffffffffffffffffffffffffffffffffff163373ffffffffffffffffffffffffffffffffffffffff167fddf252ad1be2c89b69c2b068fc378daa952ba7f163c4a11628f55a4df523b3ef83604051610dd19190611dca565b60405180910390a35050565b6000610df0610dea610f0b565b83610fce565b9050919050565b6000610e038484611001565b90506000801b600160008373ffffffffffffffffffffffffffffffffffffffff1673ffffffffffffffffffffffffffffffffffffffff168152602001908152602001600020541415610e8a576040517f08c379a0000000000000000000000000000000000000000000000000000000008152600401610e8190611d4a565b60405180910390fd5b428211610ecc576040517f08c379a0000000000000000000000000000000000000000000000000000000008152600401610ec390611cca565b60405180910390fd5b7f79b1686b747c956ec66fff2381aff3dc3fd7cf5e7d16eee73380738c4ef4d4028185604051610efd929190611aec565b60405180910390a150505050565b60007f0000000000000000000000000000000000000000000000000000000000000000461415610f5d577f00000000000000000000000000000000000000000000000000000000000000009050610fcb565b610fc87f00000000000000000000000000000000000000000000000000000000000000007f00000000000000000000000000000000000000000000000000000000000000007f0000000000000000000000000000000000000000000000000000000000000000611028565b90505b90565b60008282604051602001610fe3929190611a9a565b60405160208183030381529060405280519060200120905092915050565b60008060006110108585611062565b9150915061101d816110e5565b819250505092915050565b60008383834630604051602001611043959493929190611b4b565b6040516020818303038152906040528051906020012090509392505050565b6000806041835114156110a45760008060006020860151925060408601519150606086015160001a905061109887828585611436565b945094505050506110de565b6040835114156110d55760008060208501519150604085015190506110ca868383611543565b9350935050506110de565b60006002915091505b9250929050565b6000600481111561111f577f4e487b7100000000000000000000000000000000000000000000000000000000600052602160045260246000fd5b816004811115611158577f4e487b7100000000000000000000000000000000000000000000000000000000600052602160045260246000fd5b141561116357611433565b6001600481111561119d577f4e487b7100000000000000000000000000000000000000000000000000000000600052602160045260246000fd5b8160048111156111d6577f4e487b7100000000000000000000000000000000000000000000000000000000600052602160045260246000fd5b1415611217576040517f08c379a000000000000000000000000000000000000000000000000000000000815260040161120e90611c4a565b60405180910390fd5b60026004811115611251577f4e487b7100000000000000000000000000000000000000000000000000000000600052602160045260246000fd5b81600481111561128a577f4e487b7100000000000000000000000000000000000000000000000000000000600052602160045260246000fd5b14156112cb576040517f08c379a00000000000000000000000000000000000000000000000000000000081526004016112c290611c6a565b60405180910390fd5b60036004811115611305577f4e487b7100000000000000000000000000000000000000000000000000000000600052602160045260246000fd5b81600481111561133e577f4e487b7100000000000000000000000000000000000000000000000000000000600052602160045260246000fd5b141561137f576040517f08c379a000000000000000000000000000000000000000000000000000000000815260040161137690611caa565b60405180910390fd5b6004808111156113b8577f4e487b7100000000000000000000000000000000000000000000000000000000600052602160045260246000fd5b8160048111156113f1577f4e487b7100000000000000000000000000000000000000000000000000000000600052602160045260246000fd5b1415611432576040517f08c379a000000000000000000000000000000000000000000000000000000000815260040161142990611d0a565b60405180910390fd5b5b50565b6000807f7fffffffffffffffffffffffffffffff5d576e7357a4501ddfe92f46681b20a08360001c111561147157600060039150915061153a565b601b8560ff16141580156114895750601c8560ff1614155b1561149b57600060049150915061153a565b6000600187878787604051600081526020016040526040516114c09493929190611be3565b6020604051602081039080840390855afa1580156114e2573d6000803e3d6000fd5b505050602060405103519050600073ffffffffffffffffffffffffffffffffffffffff168173ffffffffffffffffffffffffffffffffffffffff1614156115315760006001925092505061153a565b80600092509250505b94509492505050565b6000806000807f7fffffffffffffffffffffffffffffffffffffffffffffffffffffffffffffff85169150601b8560ff1c01905061158387828885611436565b935093505050935093915050565b60006115a461159f84611e0a565b611de5565b9050828152602081018484840111156115bc57600080fd5b6115c7848285611f7c565b509392505050565b60006115e26115dd84611e3b565b611de5565b9050828152602081018484840111156115fa57600080fd5b611605848285611f7c565b509392505050565b60008135905061161c81612434565b92915050565b6000813590506116318161244b565b92915050565b600082601f83011261164857600080fd5b8135611658848260208601611591565b91505092915050565b600082601f83011261167257600080fd5b81356116828482602086016115cf565b91505092915050565b60006040828403121561169d57600080fd5b6116a76040611de5565b9050600082013567ffffffffffffffff8111156116c357600080fd5b6116cf84828501611661565b60008301525060206116e3848285016116ef565b60208301525092915050565b6000813590506116fe81612462565b92915050565b60006020828403121561171657600080fd5b60006117248482850161160d565b91505092915050565b6000806040838503121561174057600080fd5b600061174e8582860161160d565b925050602061175f85828601611622565b9150509250929050565b6000806040838503121561177c57600080fd5b600061178a8582860161160d565b925050602061179b858286016116ef565b9150509250929050565b600080600080608085870312156117bb57600080fd5b60006117c98782880161160d565b94505060206117da878288016116ef565b935050604085013567ffffffffffffffff8111156117f757600080fd5b6118038782880161168b565b925050606085013567ffffffffffffffff81111561182057600080fd5b61182c87828801611637565b91505092959194509250565b61184181611f1d565b82525050565b61185081611f2f565b82525050565b61185f81611f3b565b82525050565b61187661187182611f3b565b612021565b82525050565b600061188782611e6c565b6118918185611e77565b93506118a1818560208601611f8b565b6118aa816120b8565b840191505092915050565b60006118c2601883611e77565b91506118cd826120c9565b602082019050919050565b60006118e5601f83611e77565b91506118f0826120f2565b602082019050919050565b6000611908602683611e77565b91506119138261211b565b604082019050919050565b600061192b600283611e88565b91506119368261216a565b600282019050919050565b600061194e602283611e77565b915061195982612193565b604082019050919050565b6000611971603883611e77565b915061197c826121e2565b604082019050919050565b6000611994603783611e77565b915061199f82612231565b604082019050919050565b60006119b7602283611e77565b91506119c282612280565b604082019050919050565b60006119da602083611e77565b91506119e5826122cf565b602082019050919050565b60006119fd603783611e77565b9150611a08826122f8565b604082019050919050565b6000611a20602f83611e77565b9150611a2b82612347565b604082019050919050565b6000611a43601183611e77565b9150611a4e82612396565b602082019050919050565b6000611a66604b83611e77565b9150611a71826123bf565b606082019050919050565b611a8581611f65565b82525050565b611a9481611f6f565b82525050565b6000611aa58261191e565b9150611ab18285611865565b602082019150611ac18284611865565b6020820191508190509392505050565b6000602082019050611ae66000830184611838565b92915050565b6000604082019050611b016000830185611838565b611b0e6020830184611856565b9392505050565b6000602082019050611b2a6000830184611847565b92915050565b6000602082019050611b456000830184611856565b92915050565b600060a082019050611b606000830188611856565b611b6d6020830187611856565b611b7a6040830186611856565b611b876060830185611a7c565b611b946080830184611838565b9695505050505050565b6000608082019050611bb36000830187611856565b611bc06020830186611856565b611bcd6040830185611a7c565b611bda6060830184611838565b95945050505050565b6000608082019050611bf86000830187611856565b611c056020830186611a8b565b611c126040830185611856565b611c1f6060830184611856565b95945050505050565b60006020820190508181036000830152611c42818461187c565b905092915050565b60006020820190508181036000830152611c63816118b5565b9050919050565b60006020820190508181036000830152611c83816118d8565b9050919050565b60006020820190508181036000830152611ca3816118fb565b9050919050565b60006020820190508181036000830152611cc381611941565b9050919050565b60006020820190508181036000830152611ce381611964565b9050919050565b60006020820190508181036000830152611d0381611987565b9050919050565b60006020820190508181036000830152611d23816119aa565b9050919050565b60006020820190508181036000830152611d43816119cd565b9050919050565b60006020820190508181036000830152611d63816119f0565b9050919050565b60006020820190508181036000830152611d8381611a13565b9050919050565b60006020820190508181036000830152611da381611a36565b9050919050565b60006020820190508181036000830152611dc381611a59565b9050919050565b6000602082019050611ddf6000830184611a7c565b92915050565b6000611def611e00565b9050611dfb8282611ff0565b919050565b6000604051905090565b600067ffffffffffffffff821115611e2557611e24612089565b5b611e2e826120b8565b9050602081019050919050565b600067ffffffffffffffff821115611e5657611e55612089565b5b611e5f826120b8565b9050602081019050919050565b600081519050919050565b600082825260208201905092915050565b600081905092915050565b6000611e9e82611f65565b9150611ea983611f65565b9250827fffffffffffffffffffffffffffffffffffffffffffffffffffffffffffffffff03821115611ede57611edd61202b565b5b828201905092915050565b6000611ef482611f65565b9150611eff83611f65565b925082821015611f1257611f1161202b565b5b828203905092915050565b6000611f2882611f45565b9050919050565b60008115159050919050565b6000819050919050565b600073ffffffffffffffffffffffffffffffffffffffff82169050919050565b6000819050919050565b600060ff82169050919050565b82818337600083830152505050565b60005b83811015611fa9578082015181840152602081019050611f8e565b83811115611fb8576000848401525b50505050565b60006002820490506001821680611fd657607f821691505b60208210811415611fea57611fe961205a565b5b50919050565b611ff9826120b8565b810181811067ffffffffffffffff8211171561201857612017612089565b5b80604052505050565b6000819050919050565b7f4e487b7100000000000000000000000000000000000000000000000000000000600052601160045260246000fd5b7f4e487b7100000000000000000000000000000000000000000000000000000000600052602260045260246000fd5b7f4e487b7100000000000000000000000000000000000000000000000000000000600052604160045260246000fd5b6000601f19601f8301169050919050565b7f45434453413a20696e76616c6964207369676e61747572650000000000000000600082015250565b7f45434453413a20696e76616c6964207369676e6174757265206c656e67746800600082015250565b7f4f776e61626c653a206e6577206f776e657220697320746865207a65726f206160008201527f6464726573730000000000000000000000000000000000000000000000000000602082015250565b7f1901000000000000000000000000000000000000000000000000000000000000600082015250565b7f45434453413a20696e76616c6964207369676e6174757265202773272076616c60008201527f7565000000000000000000000000000000000000000000000000000000000000602082015250565b7f56657269666961626c652043726564656e7469616c3a2056657269666963617460008201527f696f6e20636f6e6669726d6174696f6e20657870697265640000000000000000602082015250565b7f566572696669636174696f6e56616c696461746f723a2063616c6c657220697360008201527f206e6f7420612074727573746564207665726966696572000000000000000000602082015250565b7f45434453413a20696e76616c6964207369676e6174757265202776272076616c60008201527f7565000000000000000000000000000000000000000000000000000000000000602082015250565b7f4f776e61626c653a2063616c6c6572206973206e6f7420746865206f776e6572600082015250565b7f56657269666961626c652043726564656e7469616c3a205369676e656420646960008201527f676573742063616e6e6f74206265207665726966696564000000000000000000602082015250565b7f566572696669636174696f6e56616c696461746f723a20556e6b6e6f776e205660008201527f6572696669657220416464726573730000000000000000000000000000000000602082015250565b7f4e6f7420656e6f75676820746f6b656e73000000000000000000000000000000600082015250565b7f56657269666961626c652043726564656e7469616c3a205472616e736665727360008201527f206f66207468697320616d6f756e7420726571756972652076616c696461746560208201527f416e645472616e73666572000000000000000000000000000000000000000000604082015250565b61243d81611f1d565b811461244857600080fd5b50565b61245481611f3b565b811461245f57600080fd5b50565b61246b81611f65565b811461247657600080fd5b5056fea2646970667358221220c4c0061587aded7d16b9ac4f89abf65d1f37e893f63cadde0783aca130e3b41764736f6c63430008040033",
  "linkReferences": {},
  "deployedLinkReferences": {}
}